{
	"contracts/StorageFactory.sol": {
		"StorageFactory": {
			"abi": [
				{
					"inputs": [
						{
							"internalType": "string",
							"name": "_name",
							"type": "string"
						},
						{
							"internalType": "uint256",
							"name": "_favoriteNumber",
							"type": "uint256"
						}
					],
					"name": "addPerson",
					"outputs": [],
					"stateMutability": "nonpayable",
					"type": "function"
				},
				{
					"inputs": [],
					"name": "createSimpleStorageContract",
					"outputs": [],
					"stateMutability": "nonpayable",
					"type": "function"
				},
				{
					"inputs": [
						{
							"internalType": "string",
							"name": "",
							"type": "string"
						}
					],
					"name": "nameToFavoriteNumber",
					"outputs": [
						{
							"internalType": "uint256",
							"name": "",
							"type": "uint256"
						}
					],
					"stateMutability": "view",
					"type": "function"
				},
				{
					"inputs": [
						{
							"internalType": "uint256",
							"name": "",
							"type": "uint256"
						}
					],
					"name": "people",
					"outputs": [
						{
							"internalType": "uint256",
							"name": "favoriteNumber",
							"type": "uint256"
						},
						{
							"internalType": "string",
							"name": "name",
							"type": "string"
						}
					],
					"stateMutability": "view",
					"type": "function"
				},
				{
					"inputs": [
						{
							"internalType": "uint256",
							"name": "_number",
							"type": "uint256"
						}
					],
					"name": "pureFunction",
					"outputs": [],
					"stateMutability": "pure",
					"type": "function"
				},
				{
					"inputs": [],
					"name": "retrieve",
					"outputs": [
						{
							"internalType": "uint256",
							"name": "",
							"type": "uint256"
						}
					],
					"stateMutability": "view",
					"type": "function"
				},
				{
					"inputs": [
						{
							"internalType": "uint256",
							"name": "_simpleStorageIndex",
							"type": "uint256"
						}
					],
					"name": "sfGet",
					"outputs": [
						{
							"internalType": "uint256",
							"name": "",
							"type": "uint256"
						}
					],
					"stateMutability": "view",
					"type": "function"
				},
				{
					"inputs": [
						{
							"internalType": "uint256",
							"name": "_simpleStorageIndex",
							"type": "uint256"
						},
						{
							"internalType": "uint256",
							"name": "_simpleStorageNumber",
							"type": "uint256"
						}
					],
					"name": "sfStore",
					"outputs": [],
					"stateMutability": "nonpayable",
					"type": "function"
				},
				{
					"inputs": [
						{
							"internalType": "uint256",
							"name": "",
							"type": "uint256"
						}
					],
					"name": "simpleStorageArray",
					"outputs": [
						{
							"internalType": "contract SimpleStorage",
							"name": "",
							"type": "address"
						}
					],
					"stateMutability": "view",
					"type": "function"
				},
				{
					"inputs": [
						{
							"internalType": "uint256",
							"name": "_favoriteNumber",
							"type": "uint256"
						}
					],
					"name": "store",
					"outputs": [],
					"stateMutability": "nonpayable",
					"type": "function"
				}
			],
			"devdoc": {
				"kind": "dev",
				"methods": {},
				"version": 1
			},
			"evm": {
				"assembly": "    /* \"contracts/StorageFactory.sol\":87:783  contract StorageFactory is SimpleStorage {... */\n  mstore(0x40, 0x80)\n    /* \"contracts/SimpleStorage.sol\":136:137  7 */\n  0x07\n    /* \"contracts/SimpleStorage.sol\":111:137  uint256 favoriteNumber = 7 */\n  0x00\n  sstore\n    /* \"contracts/StorageFactory.sol\":87:783  contract StorageFactory is SimpleStorage {... */\n  callvalue\n  dup1\n  iszero\n  tag_1\n  jumpi\n  0x00\n  dup1\n  revert\ntag_1:\n  pop\n  dataSize(sub_0)\n  dup1\n  dataOffset(sub_0)\n  0x00\n  codecopy\n  0x00\n  return\nstop\n\nsub_0: assembly {\n        /* \"contracts/StorageFactory.sol\":87:783  contract StorageFactory is SimpleStorage {... */\n      mstore(0x40, 0x80)\n      callvalue\n      dup1\n      iszero\n      tag_1\n      jumpi\n      0x00\n      dup1\n      revert\n    tag_1:\n      pop\n      jumpi(tag_2, lt(calldatasize, 0x04))\n      shr(0xe0, calldataload(0x00))\n      dup1\n      0x6f760f41\n      gt\n      tag_13\n      jumpi\n      dup1\n      0x6f760f41\n      eq\n      tag_8\n      jumpi\n      dup1\n      0x8bab8dd5\n      eq\n      tag_9\n      jumpi\n      dup1\n      0x9e7a13ad\n      eq\n      tag_10\n      jumpi\n      dup1\n      0xb9c03b9a\n      eq\n      tag_11\n      jumpi\n      dup1\n      0xc5f19c20\n      eq\n      tag_12\n      jumpi\n      jump(tag_2)\n    tag_13:\n      dup1\n      0x1563700f\n      eq\n      tag_3\n      jumpi\n      dup1\n      0x1dda6541\n      eq\n      tag_4\n      jumpi\n      dup1\n      0x2e64cec1\n      eq\n      tag_5\n      jumpi\n      dup1\n      0x6057361d\n      eq\n      tag_6\n      jumpi\n      dup1\n      0x64591bf1\n      eq\n      tag_7\n      jumpi\n    tag_2:\n      0x00\n      dup1\n      revert\n        /* \"contracts/StorageFactory.sol\":349:574  function sfStore(uint256 _simpleStorageIndex, uint256 _simpleStorageNumber)... */\n    tag_3:\n      tag_14\n      0x04\n      dup1\n      calldatasize\n      sub\n      dup2\n      add\n      swap1\n      tag_15\n      swap2\n      swap1\n      tag_16\n      jump\t// in\n    tag_15:\n      tag_17\n      jump\t// in\n    tag_14:\n      stop\n        /* \"contracts/StorageFactory.sol\":182:343  function createSimpleStorageContract() public {... */\n    tag_4:\n      tag_18\n      tag_19\n      jump\t// in\n    tag_18:\n      stop\n        /* \"contracts/SimpleStorage.sol\":474:562  function retrieve() public view returns (uint256) {... */\n    tag_5:\n      tag_20\n      tag_21\n      jump\t// in\n    tag_20:\n      mload(0x40)\n      tag_22\n      swap2\n      swap1\n      tag_23\n      jump\t// in\n    tag_22:\n      mload(0x40)\n      dup1\n      swap2\n      sub\n      swap1\n      return\n        /* \"contracts/SimpleStorage.sol\":372:468  function store(uint256 _favoriteNumber) public {... */\n    tag_6:\n      tag_24\n      0x04\n      dup1\n      calldatasize\n      sub\n      dup2\n      add\n      swap1\n      tag_25\n      swap2\n      swap1\n      tag_26\n      jump\t// in\n    tag_25:\n      tag_27\n      jump\t// in\n    tag_24:\n      stop\n        /* \"contracts/StorageFactory.sol\":134:175  SimpleStorage[] public simpleStorageArray */\n    tag_7:\n      tag_28\n      0x04\n      dup1\n      calldatasize\n      sub\n      dup2\n      add\n      swap1\n      tag_29\n      swap2\n      swap1\n      tag_26\n      jump\t// in\n    tag_29:\n      tag_30\n      jump\t// in\n    tag_28:\n      mload(0x40)\n      tag_31\n      swap2\n      swap1\n      tag_32\n      jump\t// in\n    tag_31:\n      mload(0x40)\n      dup1\n      swap2\n      sub\n      swap1\n      return\n        /* \"contracts/SimpleStorage.sol\":971:1159  function addPerson(string memory _name, uint256 _favoriteNumber) public {... */\n    tag_8:\n      tag_33\n      0x04\n      dup1\n      calldatasize\n      sub\n      dup2\n      add\n      swap1\n      tag_34\n      swap2\n      swap1\n      tag_35\n      jump\t// in\n    tag_34:\n      tag_36\n      jump\t// in\n    tag_33:\n      stop\n        /* \"contracts/SimpleStorage.sol\":883:937  mapping(string => uint256) public nameToFavoriteNumber */\n    tag_9:\n      tag_37\n      0x04\n      dup1\n      calldatasize\n      sub\n      dup2\n      add\n      swap1\n      tag_38\n      swap2\n      swap1\n      tag_39\n      jump\t// in\n    tag_38:\n      tag_40\n      jump\t// in\n    tag_37:\n      mload(0x40)\n      tag_41\n      swap2\n      swap1\n      tag_23\n      jump\t// in\n    tag_41:\n      mload(0x40)\n      dup1\n      swap2\n      sub\n      swap1\n      return\n        /* \"contracts/SimpleStorage.sol\":778:800  People[] public people */\n    tag_10:\n      tag_42\n      0x04\n      dup1\n      calldatasize\n      sub\n      dup2\n      add\n      swap1\n      tag_43\n      swap2\n      swap1\n      tag_26\n      jump\t// in\n    tag_43:\n      tag_44\n      jump\t// in\n    tag_42:\n      mload(0x40)\n      tag_45\n      swap3\n      swap2\n      swap1\n      tag_46\n      jump\t// in\n    tag_45:\n      mload(0x40)\n      dup1\n      swap2\n      sub\n      swap1\n      return\n        /* \"contracts/SimpleStorage.sol\":568:653  function pureFunction(uint256 _number) public pure {... */\n    tag_11:\n      tag_47\n      0x04\n      dup1\n      calldatasize\n      sub\n      dup2\n      add\n      swap1\n      tag_48\n      swap2\n      swap1\n      tag_26\n      jump\t// in\n    tag_48:\n      tag_49\n      jump\t// in\n    tag_47:\n      stop\n        /* \"contracts/StorageFactory.sol\":580:781  function sfGet(uint256 _simpleStorageIndex) public view returns (uint256) {... */\n    tag_12:\n      tag_50\n      0x04\n      dup1\n      calldatasize\n      sub\n      dup2\n      add\n      swap1\n      tag_51\n      swap2\n      swap1\n      tag_26\n      jump\t// in\n    tag_51:\n      tag_52\n      jump\t// in\n    tag_50:\n      mload(0x40)\n      tag_53\n      swap2\n      swap1\n      tag_23\n      jump\t// in\n    tag_53:\n      mload(0x40)\n      dup1\n      swap2\n      sub\n      swap1\n      return\n        /* \"contracts/StorageFactory.sol\":349:574  function sfStore(uint256 _simpleStorageIndex, uint256 _simpleStorageNumber)... */\n    tag_17:\n        /* \"contracts/StorageFactory.sol\":476:494  simpleStorageArray */\n      0x03\n        /* \"contracts/StorageFactory.sol\":495:514  _simpleStorageIndex */\n      dup3\n        /* \"contracts/StorageFactory.sol\":476:515  simpleStorageArray[_simpleStorageIndex] */\n      dup2\n      sload\n      dup2\n      lt\n      tag_55\n      jumpi\n      tag_56\n      tag_57\n      jump\t// in\n    tag_56:\n    tag_55:\n      swap1\n      0x00\n      mstore\n      keccak256(0x00, 0x20)\n      add\n      0x00\n      swap1\n      sload\n      swap1\n      0x0100\n      exp\n      swap1\n      div\n      0xffffffffffffffffffffffffffffffffffffffff\n      and\n        /* \"contracts/StorageFactory.sol\":454:523  SimpleStorage(address(simpleStorageArray[_simpleStorageIndex])).store */\n      0xffffffffffffffffffffffffffffffffffffffff\n      and\n      0x6057361d\n        /* \"contracts/StorageFactory.sol\":537:557  _simpleStorageNumber */\n      dup3\n        /* \"contracts/StorageFactory.sol\":454:567  SimpleStorage(address(simpleStorageArray[_simpleStorageIndex])).store(... */\n      mload(0x40)\n      dup3\n      0xffffffff\n      and\n      0xe0\n      shl\n      dup2\n      mstore\n      0x04\n      add\n      tag_59\n      swap2\n      swap1\n      tag_23\n      jump\t// in\n    tag_59:\n      0x00\n      mload(0x40)\n      dup1\n      dup4\n      sub\n      dup2\n      0x00\n      dup8\n      dup1\n      extcodesize\n      iszero\n      dup1\n      iszero\n      tag_60\n      jumpi\n      0x00\n      dup1\n      revert\n    tag_60:\n      pop\n      gas\n      call\n      iszero\n      dup1\n      iszero\n      tag_62\n      jumpi\n      returndatasize\n      0x00\n      dup1\n      returndatacopy\n      revert(0x00, returndatasize)\n    tag_62:\n      pop\n      pop\n      pop\n      pop\n        /* \"contracts/StorageFactory.sol\":349:574  function sfStore(uint256 _simpleStorageIndex, uint256 _simpleStorageNumber)... */\n      pop\n      pop\n      jump\t// out\n        /* \"contracts/StorageFactory.sol\":182:343  function createSimpleStorageContract() public {... */\n    tag_19:\n        /* \"contracts/StorageFactory.sol\":238:265  SimpleStorage simpleStorage */\n      0x00\n        /* \"contracts/StorageFactory.sol\":268:287  new SimpleStorage() */\n      mload(0x40)\n      tag_64\n      swap1\n      tag_65\n      jump\t// in\n    tag_64:\n      mload(0x40)\n      dup1\n      swap2\n      sub\n      swap1\n      0x00\n      create\n      dup1\n      iszero\n      dup1\n      iszero\n      tag_66\n      jumpi\n      returndatasize\n      0x00\n      dup1\n      returndatacopy\n      revert(0x00, returndatasize)\n    tag_66:\n      pop\n        /* \"contracts/StorageFactory.sol\":238:287  SimpleStorage simpleStorage = new SimpleStorage() */\n      swap1\n      pop\n        /* \"contracts/StorageFactory.sol\":298:316  simpleStorageArray */\n      0x03\n        /* \"contracts/StorageFactory.sol\":322:335  simpleStorage */\n      dup2\n        /* \"contracts/StorageFactory.sol\":298:336  simpleStorageArray.push(simpleStorage) */\n      swap1\n      dup1\n      0x01\n      dup2\n      sload\n      add\n      dup1\n      dup3\n      sstore\n      dup1\n      swap2\n      pop\n      pop\n      0x01\n      swap1\n      sub\n      swap1\n      0x00\n      mstore\n      keccak256(0x00, 0x20)\n      add\n      0x00\n      swap1\n      swap2\n      swap1\n      swap2\n      swap1\n      swap2\n      0x0100\n      exp\n      dup2\n      sload\n      dup2\n      0xffffffffffffffffffffffffffffffffffffffff\n      mul\n      not\n      and\n      swap1\n      dup4\n      0xffffffffffffffffffffffffffffffffffffffff\n      and\n      mul\n      or\n      swap1\n      sstore\n      pop\n        /* \"contracts/StorageFactory.sol\":228:343  {... */\n      pop\n        /* \"contracts/StorageFactory.sol\":182:343  function createSimpleStorageContract() public {... */\n      jump\t// out\n        /* \"contracts/SimpleStorage.sol\":474:562  function retrieve() public view returns (uint256) {... */\n    tag_21:\n        /* \"contracts/SimpleStorage.sol\":515:522  uint256 */\n      0x00\n        /* \"contracts/SimpleStorage.sol\":541:555  favoriteNumber */\n      dup1\n      sload\n        /* \"contracts/SimpleStorage.sol\":534:555  return favoriteNumber */\n      swap1\n      pop\n        /* \"contracts/SimpleStorage.sol\":474:562  function retrieve() public view returns (uint256) {... */\n      swap1\n      jump\t// out\n        /* \"contracts/SimpleStorage.sol\":372:468  function store(uint256 _favoriteNumber) public {... */\n    tag_27:\n        /* \"contracts/SimpleStorage.sol\":446:461  _favoriteNumber */\n      dup1\n        /* \"contracts/SimpleStorage.sol\":429:443  favoriteNumber */\n      0x00\n        /* \"contracts/SimpleStorage.sol\":429:461  favoriteNumber = _favoriteNumber */\n      dup2\n      swap1\n      sstore\n      pop\n        /* \"contracts/SimpleStorage.sol\":372:468  function store(uint256 _favoriteNumber) public {... */\n      pop\n      jump\t// out\n        /* \"contracts/StorageFactory.sol\":134:175  SimpleStorage[] public simpleStorageArray */\n    tag_30:\n      0x03\n      dup2\n      dup2\n      sload\n      dup2\n      lt\n      tag_70\n      jumpi\n      0x00\n      dup1\n      revert\n    tag_70:\n      swap1\n      0x00\n      mstore\n      keccak256(0x00, 0x20)\n      add\n      0x00\n      swap2\n      pop\n      sload\n      swap1\n      0x0100\n      exp\n      swap1\n      div\n      0xffffffffffffffffffffffffffffffffffffffff\n      and\n      dup2\n      jump\t// out\n        /* \"contracts/SimpleStorage.sol\":971:1159  function addPerson(string memory _name, uint256 _favoriteNumber) public {... */\n    tag_36:\n        /* \"contracts/SimpleStorage.sol\":1053:1059  people */\n      0x01\n        /* \"contracts/SimpleStorage.sol\":1065:1095  People(_favoriteNumber, _name) */\n      mload(0x40)\n      dup1\n      0x40\n      add\n      0x40\n      mstore\n      dup1\n        /* \"contracts/SimpleStorage.sol\":1072:1087  _favoriteNumber */\n      dup4\n        /* \"contracts/SimpleStorage.sol\":1065:1095  People(_favoriteNumber, _name) */\n      dup2\n      mstore\n      0x20\n      add\n        /* \"contracts/SimpleStorage.sol\":1089:1094  _name */\n      dup5\n        /* \"contracts/SimpleStorage.sol\":1065:1095  People(_favoriteNumber, _name) */\n      dup2\n      mstore\n      pop\n        /* \"contracts/SimpleStorage.sol\":1053:1096  people.push(People(_favoriteNumber, _name)) */\n      swap1\n      dup1\n      0x01\n      dup2\n      sload\n      add\n      dup1\n      dup3\n      sstore\n      dup1\n      swap2\n      pop\n      pop\n      0x01\n      swap1\n      sub\n      swap1\n      0x00\n      mstore\n      keccak256(0x00, 0x20)\n      swap1\n      0x02\n      mul\n      add\n      0x00\n      swap1\n      swap2\n      swap1\n      swap2\n      swap1\n      swap2\n      pop\n      0x00\n      dup3\n      add\n      mload\n      dup2\n      0x00\n      add\n      sstore\n      0x20\n      dup3\n      add\n      mload\n      dup2\n      0x01\n      add\n      swap1\n      dup2\n      tag_74\n      swap2\n      swap1\n      tag_75\n      jump\t// in\n    tag_74:\n      pop\n      pop\n      pop\n        /* \"contracts/SimpleStorage.sol\":1137:1152  _favoriteNumber */\n      dup1\n        /* \"contracts/SimpleStorage.sol\":1107:1127  nameToFavoriteNumber */\n      0x02\n        /* \"contracts/SimpleStorage.sol\":1128:1133  _name */\n      dup4\n        /* \"contracts/SimpleStorage.sol\":1107:1134  nameToFavoriteNumber[_name] */\n      mload(0x40)\n      tag_76\n      swap2\n      swap1\n      tag_77\n      jump\t// in\n    tag_76:\n      swap1\n      dup2\n      mstore\n      0x20\n      add\n      mload(0x40)\n      dup1\n      swap2\n      sub\n      swap1\n      keccak256\n        /* \"contracts/SimpleStorage.sol\":1107:1152  nameToFavoriteNumber[_name] = _favoriteNumber */\n      dup2\n      swap1\n      sstore\n      pop\n        /* \"contracts/SimpleStorage.sol\":971:1159  function addPerson(string memory _name, uint256 _favoriteNumber) public {... */\n      pop\n      pop\n      jump\t// out\n        /* \"contracts/SimpleStorage.sol\":883:937  mapping(string => uint256) public nameToFavoriteNumber */\n    tag_40:\n      0x02\n      dup2\n      dup1\n      mload\n      0x20\n      dup2\n      add\n      dup3\n      add\n      dup1\n      mload\n      dup5\n      dup3\n      mstore\n      0x20\n      dup4\n      add\n      0x20\n      dup6\n      add\n      keccak256\n      dup2\n      dup4\n      mstore\n      dup1\n      swap6\n      pop\n      pop\n      pop\n      pop\n      pop\n      pop\n      0x00\n      swap2\n      pop\n      swap1\n      pop\n      sload\n      dup2\n      jump\t// out\n        /* \"contracts/SimpleStorage.sol\":778:800  People[] public people */\n    tag_44:\n      0x01\n      dup2\n      dup2\n      sload\n      dup2\n      lt\n      tag_78\n      jumpi\n      0x00\n      dup1\n      revert\n    tag_78:\n      swap1\n      0x00\n      mstore\n      keccak256(0x00, 0x20)\n      swap1\n      0x02\n      mul\n      add\n      0x00\n      swap2\n      pop\n      swap1\n      pop\n      dup1\n      0x00\n      add\n      sload\n      swap1\n      dup1\n      0x01\n      add\n      dup1\n      sload\n      tag_80\n      swap1\n      tag_81\n      jump\t// in\n    tag_80:\n      dup1\n      0x1f\n      add\n      0x20\n      dup1\n      swap2\n      div\n      mul\n      0x20\n      add\n      mload(0x40)\n      swap1\n      dup2\n      add\n      0x40\n      mstore\n      dup1\n      swap3\n      swap2\n      swap1\n      dup2\n      dup2\n      mstore\n      0x20\n      add\n      dup3\n      dup1\n      sload\n      tag_82\n      swap1\n      tag_81\n      jump\t// in\n    tag_82:\n      dup1\n      iszero\n      tag_83\n      jumpi\n      dup1\n      0x1f\n      lt\n      tag_84\n      jumpi\n      0x0100\n      dup1\n      dup4\n      sload\n      div\n      mul\n      dup4\n      mstore\n      swap2\n      0x20\n      add\n      swap2\n      jump(tag_83)\n    tag_84:\n      dup3\n      add\n      swap2\n      swap1\n      0x00\n      mstore\n      keccak256(0x00, 0x20)\n      swap1\n    tag_85:\n      dup2\n      sload\n      dup2\n      mstore\n      swap1\n      0x01\n      add\n      swap1\n      0x20\n      add\n      dup1\n      dup4\n      gt\n      tag_85\n      jumpi\n      dup3\n      swap1\n      sub\n      0x1f\n      and\n      dup3\n      add\n      swap2\n    tag_83:\n      pop\n      pop\n      pop\n      pop\n      pop\n      swap1\n      pop\n      dup3\n      jump\t// out\n        /* \"contracts/SimpleStorage.sol\":568:653  function pureFunction(uint256 _number) public pure {... */\n    tag_49:\n        /* \"contracts/SimpleStorage.sol\":639:646  _number */\n      dup1\n        /* \"contracts/SimpleStorage.sol\":629:636  _number */\n      dup2\n        /* \"contracts/SimpleStorage.sol\":629:646  _number + _number */\n      tag_87\n      swap2\n      swap1\n      tag_88\n      jump\t// in\n    tag_87:\n      pop\n        /* \"contracts/SimpleStorage.sol\":568:653  function pureFunction(uint256 _number) public pure {... */\n      pop\n      jump\t// out\n        /* \"contracts/StorageFactory.sol\":580:781  function sfGet(uint256 _simpleStorageIndex) public view returns (uint256) {... */\n    tag_52:\n        /* \"contracts/StorageFactory.sol\":645:652  uint256 */\n      0x00\n        /* \"contracts/StorageFactory.sol\":705:723  simpleStorageArray */\n      0x03\n        /* \"contracts/StorageFactory.sol\":724:743  _simpleStorageIndex */\n      dup3\n        /* \"contracts/StorageFactory.sol\":705:744  simpleStorageArray[_simpleStorageIndex] */\n      dup2\n      sload\n      dup2\n      lt\n      tag_90\n      jumpi\n      tag_91\n      tag_57\n      jump\t// in\n    tag_91:\n    tag_90:\n      swap1\n      0x00\n      mstore\n      keccak256(0x00, 0x20)\n      add\n      0x00\n      swap1\n      sload\n      swap1\n      0x0100\n      exp\n      swap1\n      div\n      0xffffffffffffffffffffffffffffffffffffffff\n      and\n        /* \"contracts/StorageFactory.sol\":683:772  SimpleStorage(address(simpleStorageArray[_simpleStorageIndex]))... */\n      0xffffffffffffffffffffffffffffffffffffffff\n      and\n      0x2e64cec1\n        /* \"contracts/StorageFactory.sol\":683:774  SimpleStorage(address(simpleStorageArray[_simpleStorageIndex]))... */\n      mload(0x40)\n      dup2\n      0xffffffff\n      and\n      0xe0\n      shl\n      dup2\n      mstore\n      0x04\n      add\n      0x20\n      mload(0x40)\n      dup1\n      dup4\n      sub\n      dup2\n      dup7\n      gas\n      staticcall\n      iszero\n      dup1\n      iszero\n      tag_94\n      jumpi\n      returndatasize\n      0x00\n      dup1\n      returndatacopy\n      revert(0x00, returndatasize)\n    tag_94:\n      pop\n      pop\n      pop\n      pop\n      mload(0x40)\n      returndatasize\n      not(0x1f)\n      0x1f\n      dup3\n      add\n      and\n      dup3\n      add\n      dup1\n      0x40\n      mstore\n      pop\n      dup2\n      add\n      swap1\n      tag_95\n      swap2\n      swap1\n      tag_96\n      jump\t// in\n    tag_95:\n        /* \"contracts/StorageFactory.sol\":664:774  return... */\n      swap1\n      pop\n        /* \"contracts/StorageFactory.sol\":580:781  function sfGet(uint256 _simpleStorageIndex) public view returns (uint256) {... */\n      swap2\n      swap1\n      pop\n      jump\t// out\n    tag_65:\n      dataSize(sub_0)\n      dup1\n      dataOffset(sub_0)\n      dup4\n      codecopy\n      add\n      swap1\n      jump\t// out\n        /* \"#utility.yul\":7:82   */\n    tag_97:\n        /* \"#utility.yul\":40:46   */\n      0x00\n        /* \"#utility.yul\":73:75   */\n      0x40\n        /* \"#utility.yul\":67:76   */\n      mload\n        /* \"#utility.yul\":57:76   */\n      swap1\n      pop\n        /* \"#utility.yul\":7:82   */\n      swap1\n      jump\t// out\n        /* \"#utility.yul\":88:205   */\n    tag_98:\n        /* \"#utility.yul\":197:198   */\n      0x00\n        /* \"#utility.yul\":194:195   */\n      dup1\n        /* \"#utility.yul\":187:199   */\n      revert\n        /* \"#utility.yul\":211:328   */\n    tag_99:\n        /* \"#utility.yul\":320:321   */\n      0x00\n        /* \"#utility.yul\":317:318   */\n      dup1\n        /* \"#utility.yul\":310:322   */\n      revert\n        /* \"#utility.yul\":334:411   */\n    tag_100:\n        /* \"#utility.yul\":371:378   */\n      0x00\n        /* \"#utility.yul\":400:405   */\n      dup2\n        /* \"#utility.yul\":389:405   */\n      swap1\n      pop\n        /* \"#utility.yul\":334:411   */\n      swap2\n      swap1\n      pop\n      jump\t// out\n        /* \"#utility.yul\":417:539   */\n    tag_101:\n        /* \"#utility.yul\":490:514   */\n      tag_149\n        /* \"#utility.yul\":508:513   */\n      dup2\n        /* \"#utility.yul\":490:514   */\n      tag_100\n      jump\t// in\n    tag_149:\n        /* \"#utility.yul\":483:488   */\n      dup2\n        /* \"#utility.yul\":480:515   */\n      eq\n        /* \"#utility.yul\":470:533   */\n      tag_150\n      jumpi\n        /* \"#utility.yul\":529:530   */\n      0x00\n        /* \"#utility.yul\":526:527   */\n      dup1\n        /* \"#utility.yul\":519:531   */\n      revert\n        /* \"#utility.yul\":470:533   */\n    tag_150:\n        /* \"#utility.yul\":417:539   */\n      pop\n      jump\t// out\n        /* \"#utility.yul\":545:684   */\n    tag_102:\n        /* \"#utility.yul\":591:596   */\n      0x00\n        /* \"#utility.yul\":629:635   */\n      dup2\n        /* \"#utility.yul\":616:636   */\n      calldataload\n        /* \"#utility.yul\":607:636   */\n      swap1\n      pop\n        /* \"#utility.yul\":645:678   */\n      tag_152\n        /* \"#utility.yul\":672:677   */\n      dup2\n        /* \"#utility.yul\":645:678   */\n      tag_101\n      jump\t// in\n    tag_152:\n        /* \"#utility.yul\":545:684   */\n      swap3\n      swap2\n      pop\n      pop\n      jump\t// out\n        /* \"#utility.yul\":690:1164   */\n    tag_16:\n        /* \"#utility.yul\":758:764   */\n      0x00\n        /* \"#utility.yul\":766:772   */\n      dup1\n        /* \"#utility.yul\":815:817   */\n      0x40\n        /* \"#utility.yul\":803:812   */\n      dup4\n        /* \"#utility.yul\":794:801   */\n      dup6\n        /* \"#utility.yul\":790:813   */\n      sub\n        /* \"#utility.yul\":786:818   */\n      slt\n        /* \"#utility.yul\":783:902   */\n      iszero\n      tag_154\n      jumpi\n        /* \"#utility.yul\":821:900   */\n      tag_155\n      tag_98\n      jump\t// in\n    tag_155:\n        /* \"#utility.yul\":783:902   */\n    tag_154:\n        /* \"#utility.yul\":941:942   */\n      0x00\n        /* \"#utility.yul\":966:1019   */\n      tag_156\n        /* \"#utility.yul\":1011:1018   */\n      dup6\n        /* \"#utility.yul\":1002:1008   */\n      dup3\n        /* \"#utility.yul\":991:1000   */\n      dup7\n        /* \"#utility.yul\":987:1009   */\n      add\n        /* \"#utility.yul\":966:1019   */\n      tag_102\n      jump\t// in\n    tag_156:\n        /* \"#utility.yul\":956:1019   */\n      swap3\n      pop\n        /* \"#utility.yul\":912:1029   */\n      pop\n        /* \"#utility.yul\":1068:1070   */\n      0x20\n        /* \"#utility.yul\":1094:1147   */\n      tag_157\n        /* \"#utility.yul\":1139:1146   */\n      dup6\n        /* \"#utility.yul\":1130:1136   */\n      dup3\n        /* \"#utility.yul\":1119:1128   */\n      dup7\n        /* \"#utility.yul\":1115:1137   */\n      add\n        /* \"#utility.yul\":1094:1147   */\n      tag_102\n      jump\t// in\n    tag_157:\n        /* \"#utility.yul\":1084:1147   */\n      swap2\n      pop\n        /* \"#utility.yul\":1039:1157   */\n      pop\n        /* \"#utility.yul\":690:1164   */\n      swap3\n      pop\n      swap3\n      swap1\n      pop\n      jump\t// out\n        /* \"#utility.yul\":1170:1288   */\n    tag_103:\n        /* \"#utility.yul\":1257:1281   */\n      tag_159\n        /* \"#utility.yul\":1275:1280   */\n      dup2\n        /* \"#utility.yul\":1257:1281   */\n      tag_100\n      jump\t// in\n    tag_159:\n        /* \"#utility.yul\":1252:1255   */\n      dup3\n        /* \"#utility.yul\":1245:1282   */\n      mstore\n        /* \"#utility.yul\":1170:1288   */\n      pop\n      pop\n      jump\t// out\n        /* \"#utility.yul\":1294:1516   */\n    tag_23:\n        /* \"#utility.yul\":1387:1391   */\n      0x00\n        /* \"#utility.yul\":1425:1427   */\n      0x20\n        /* \"#utility.yul\":1414:1423   */\n      dup3\n        /* \"#utility.yul\":1410:1428   */\n      add\n        /* \"#utility.yul\":1402:1428   */\n      swap1\n      pop\n        /* \"#utility.yul\":1438:1509   */\n      tag_161\n        /* \"#utility.yul\":1506:1507   */\n      0x00\n        /* \"#utility.yul\":1495:1504   */\n      dup4\n        /* \"#utility.yul\":1491:1508   */\n      add\n        /* \"#utility.yul\":1482:1488   */\n      dup5\n        /* \"#utility.yul\":1438:1509   */\n      tag_103\n      jump\t// in\n    tag_161:\n        /* \"#utility.yul\":1294:1516   */\n      swap3\n      swap2\n      pop\n      pop\n      jump\t// out\n        /* \"#utility.yul\":1522:1851   */\n    tag_26:\n        /* \"#utility.yul\":1581:1587   */\n      0x00\n        /* \"#utility.yul\":1630:1632   */\n      0x20\n        /* \"#utility.yul\":1618:1627   */\n      dup3\n        /* \"#utility.yul\":1609:1616   */\n      dup5\n        /* \"#utility.yul\":1605:1628   */\n      sub\n        /* \"#utility.yul\":1601:1633   */\n      slt\n        /* \"#utility.yul\":1598:1717   */\n      iszero\n      tag_163\n      jumpi\n        /* \"#utility.yul\":1636:1715   */\n      tag_164\n      tag_98\n      jump\t// in\n    tag_164:\n        /* \"#utility.yul\":1598:1717   */\n    tag_163:\n        /* \"#utility.yul\":1756:1757   */\n      0x00\n        /* \"#utility.yul\":1781:1834   */\n      tag_165\n        /* \"#utility.yul\":1826:1833   */\n      dup5\n        /* \"#utility.yul\":1817:1823   */\n      dup3\n        /* \"#utility.yul\":1806:1815   */\n      dup6\n        /* \"#utility.yul\":1802:1824   */\n      add\n        /* \"#utility.yul\":1781:1834   */\n      tag_102\n      jump\t// in\n    tag_165:\n        /* \"#utility.yul\":1771:1834   */\n      swap2\n      pop\n        /* \"#utility.yul\":1727:1844   */\n      pop\n        /* \"#utility.yul\":1522:1851   */\n      swap3\n      swap2\n      pop\n      pop\n      jump\t// out\n        /* \"#utility.yul\":1857:1983   */\n    tag_104:\n        /* \"#utility.yul\":1894:1901   */\n      0x00\n        /* \"#utility.yul\":1934:1976   */\n      0xffffffffffffffffffffffffffffffffffffffff\n        /* \"#utility.yul\":1927:1932   */\n      dup3\n        /* \"#utility.yul\":1923:1977   */\n      and\n        /* \"#utility.yul\":1912:1977   */\n      swap1\n      pop\n        /* \"#utility.yul\":1857:1983   */\n      swap2\n      swap1\n      pop\n      jump\t// out\n        /* \"#utility.yul\":1989:2049   */\n    tag_105:\n        /* \"#utility.yul\":2017:2020   */\n      0x00\n        /* \"#utility.yul\":2038:2043   */\n      dup2\n        /* \"#utility.yul\":2031:2043   */\n      swap1\n      pop\n        /* \"#utility.yul\":1989:2049   */\n      swap2\n      swap1\n      pop\n      jump\t// out\n        /* \"#utility.yul\":2055:2197   */\n    tag_106:\n        /* \"#utility.yul\":2105:2114   */\n      0x00\n        /* \"#utility.yul\":2138:2191   */\n      tag_169\n        /* \"#utility.yul\":2156:2190   */\n      tag_170\n        /* \"#utility.yul\":2165:2189   */\n      tag_171\n        /* \"#utility.yul\":2183:2188   */\n      dup5\n        /* \"#utility.yul\":2165:2189   */\n      tag_104\n      jump\t// in\n    tag_171:\n        /* \"#utility.yul\":2156:2190   */\n      tag_105\n      jump\t// in\n    tag_170:\n        /* \"#utility.yul\":2138:2191   */\n      tag_104\n      jump\t// in\n    tag_169:\n        /* \"#utility.yul\":2125:2191   */\n      swap1\n      pop\n        /* \"#utility.yul\":2055:2197   */\n      swap2\n      swap1\n      pop\n      jump\t// out\n        /* \"#utility.yul\":2203:2329   */\n    tag_107:\n        /* \"#utility.yul\":2253:2262   */\n      0x00\n        /* \"#utility.yul\":2286:2323   */\n      tag_173\n        /* \"#utility.yul\":2317:2322   */\n      dup3\n        /* \"#utility.yul\":2286:2323   */\n      tag_106\n      jump\t// in\n    tag_173:\n        /* \"#utility.yul\":2273:2323   */\n      swap1\n      pop\n        /* \"#utility.yul\":2203:2329   */\n      swap2\n      swap1\n      pop\n      jump\t// out\n        /* \"#utility.yul\":2335:2481   */\n    tag_108:\n        /* \"#utility.yul\":2405:2414   */\n      0x00\n        /* \"#utility.yul\":2438:2475   */\n      tag_175\n        /* \"#utility.yul\":2469:2474   */\n      dup3\n        /* \"#utility.yul\":2438:2475   */\n      tag_107\n      jump\t// in\n    tag_175:\n        /* \"#utility.yul\":2425:2475   */\n      swap1\n      pop\n        /* \"#utility.yul\":2335:2481   */\n      swap2\n      swap1\n      pop\n      jump\t// out\n        /* \"#utility.yul\":2487:2658   */\n    tag_109:\n        /* \"#utility.yul\":2594:2651   */\n      tag_177\n        /* \"#utility.yul\":2645:2650   */\n      dup2\n        /* \"#utility.yul\":2594:2651   */\n      tag_108\n      jump\t// in\n    tag_177:\n        /* \"#utility.yul\":2589:2592   */\n      dup3\n        /* \"#utility.yul\":2582:2652   */\n      mstore\n        /* \"#utility.yul\":2487:2658   */\n      pop\n      pop\n      jump\t// out\n        /* \"#utility.yul\":2664:2926   */\n    tag_32:\n        /* \"#utility.yul\":2777:2781   */\n      0x00\n        /* \"#utility.yul\":2815:2817   */\n      0x20\n        /* \"#utility.yul\":2804:2813   */\n      dup3\n        /* \"#utility.yul\":2800:2818   */\n      add\n        /* \"#utility.yul\":2792:2818   */\n      swap1\n      pop\n        /* \"#utility.yul\":2828:2919   */\n      tag_179\n        /* \"#utility.yul\":2916:2917   */\n      0x00\n        /* \"#utility.yul\":2905:2914   */\n      dup4\n        /* \"#utility.yul\":2901:2918   */\n      add\n        /* \"#utility.yul\":2892:2898   */\n      dup5\n        /* \"#utility.yul\":2828:2919   */\n      tag_109\n      jump\t// in\n    tag_179:\n        /* \"#utility.yul\":2664:2926   */\n      swap3\n      swap2\n      pop\n      pop\n      jump\t// out\n        /* \"#utility.yul\":2932:3049   */\n    tag_110:\n        /* \"#utility.yul\":3041:3042   */\n      0x00\n        /* \"#utility.yul\":3038:3039   */\n      dup1\n        /* \"#utility.yul\":3031:3043   */\n      revert\n        /* \"#utility.yul\":3055:3172   */\n    tag_111:\n        /* \"#utility.yul\":3164:3165   */\n      0x00\n        /* \"#utility.yul\":3161:3162   */\n      dup1\n        /* \"#utility.yul\":3154:3166   */\n      revert\n        /* \"#utility.yul\":3178:3280   */\n    tag_112:\n        /* \"#utility.yul\":3219:3225   */\n      0x00\n        /* \"#utility.yul\":3270:3272   */\n      0x1f\n        /* \"#utility.yul\":3266:3273   */\n      not\n        /* \"#utility.yul\":3261:3263   */\n      0x1f\n        /* \"#utility.yul\":3254:3259   */\n      dup4\n        /* \"#utility.yul\":3250:3264   */\n      add\n        /* \"#utility.yul\":3246:3274   */\n      and\n        /* \"#utility.yul\":3236:3274   */\n      swap1\n      pop\n        /* \"#utility.yul\":3178:3280   */\n      swap2\n      swap1\n      pop\n      jump\t// out\n        /* \"#utility.yul\":3286:3466   */\n    tag_113:\n        /* \"#utility.yul\":3334:3411   */\n      0x4e487b7100000000000000000000000000000000000000000000000000000000\n        /* \"#utility.yul\":3331:3332   */\n      0x00\n        /* \"#utility.yul\":3324:3412   */\n      mstore\n        /* \"#utility.yul\":3431:3435   */\n      0x41\n        /* \"#utility.yul\":3428:3429   */\n      0x04\n        /* \"#utility.yul\":3421:3436   */\n      mstore\n        /* \"#utility.yul\":3455:3459   */\n      0x24\n        /* \"#utility.yul\":3452:3453   */\n      0x00\n        /* \"#utility.yul\":3445:3460   */\n      revert\n        /* \"#utility.yul\":3472:3753   */\n    tag_114:\n        /* \"#utility.yul\":3555:3582   */\n      tag_185\n        /* \"#utility.yul\":3577:3581   */\n      dup3\n        /* \"#utility.yul\":3555:3582   */\n      tag_112\n      jump\t// in\n    tag_185:\n        /* \"#utility.yul\":3547:3553   */\n      dup2\n        /* \"#utility.yul\":3543:3583   */\n      add\n        /* \"#utility.yul\":3685:3691   */\n      dup2\n        /* \"#utility.yul\":3673:3683   */\n      dup2\n        /* \"#utility.yul\":3670:3692   */\n      lt\n        /* \"#utility.yul\":3649:3667   */\n      0xffffffffffffffff\n        /* \"#utility.yul\":3637:3647   */\n      dup3\n        /* \"#utility.yul\":3634:3668   */\n      gt\n        /* \"#utility.yul\":3631:3693   */\n      or\n        /* \"#utility.yul\":3628:3716   */\n      iszero\n      tag_186\n      jumpi\n        /* \"#utility.yul\":3696:3714   */\n      tag_187\n      tag_113\n      jump\t// in\n    tag_187:\n        /* \"#utility.yul\":3628:3716   */\n    tag_186:\n        /* \"#utility.yul\":3736:3746   */\n      dup1\n        /* \"#utility.yul\":3732:3734   */\n      0x40\n        /* \"#utility.yul\":3725:3747   */\n      mstore\n        /* \"#utility.yul\":3515:3753   */\n      pop\n        /* \"#utility.yul\":3472:3753   */\n      pop\n      pop\n      jump\t// out\n        /* \"#utility.yul\":3759:3888   */\n    tag_115:\n        /* \"#utility.yul\":3793:3799   */\n      0x00\n        /* \"#utility.yul\":3820:3840   */\n      tag_189\n      tag_97\n      jump\t// in\n    tag_189:\n        /* \"#utility.yul\":3810:3840   */\n      swap1\n      pop\n        /* \"#utility.yul\":3849:3882   */\n      tag_190\n        /* \"#utility.yul\":3877:3881   */\n      dup3\n        /* \"#utility.yul\":3869:3875   */\n      dup3\n        /* \"#utility.yul\":3849:3882   */\n      tag_114\n      jump\t// in\n    tag_190:\n        /* \"#utility.yul\":3759:3888   */\n      swap2\n      swap1\n      pop\n      jump\t// out\n        /* \"#utility.yul\":3894:4202   */\n    tag_116:\n        /* \"#utility.yul\":3956:3960   */\n      0x00\n        /* \"#utility.yul\":4046:4064   */\n      0xffffffffffffffff\n        /* \"#utility.yul\":4038:4044   */\n      dup3\n        /* \"#utility.yul\":4035:4065   */\n      gt\n        /* \"#utility.yul\":4032:4088   */\n      iszero\n      tag_192\n      jumpi\n        /* \"#utility.yul\":4068:4086   */\n      tag_193\n      tag_113\n      jump\t// in\n    tag_193:\n        /* \"#utility.yul\":4032:4088   */\n    tag_192:\n        /* \"#utility.yul\":4106:4135   */\n      tag_194\n        /* \"#utility.yul\":4128:4134   */\n      dup3\n        /* \"#utility.yul\":4106:4135   */\n      tag_112\n      jump\t// in\n    tag_194:\n        /* \"#utility.yul\":4098:4135   */\n      swap1\n      pop\n        /* \"#utility.yul\":4190:4194   */\n      0x20\n        /* \"#utility.yul\":4184:4188   */\n      dup2\n        /* \"#utility.yul\":4180:4195   */\n      add\n        /* \"#utility.yul\":4172:4195   */\n      swap1\n      pop\n        /* \"#utility.yul\":3894:4202   */\n      swap2\n      swap1\n      pop\n      jump\t// out\n        /* \"#utility.yul\":4208:4354   */\n    tag_117:\n        /* \"#utility.yul\":4305:4311   */\n      dup3\n        /* \"#utility.yul\":4300:4303   */\n      dup2\n        /* \"#utility.yul\":4295:4298   */\n      dup4\n        /* \"#utility.yul\":4282:4312   */\n      calldatacopy\n        /* \"#utility.yul\":4346:4347   */\n      0x00\n        /* \"#utility.yul\":4337:4343   */\n      dup4\n        /* \"#utility.yul\":4332:4335   */\n      dup4\n        /* \"#utility.yul\":4328:4344   */\n      add\n        /* \"#utility.yul\":4321:4348   */\n      mstore\n        /* \"#utility.yul\":4208:4354   */\n      pop\n      pop\n      pop\n      jump\t// out\n        /* \"#utility.yul\":4360:4785   */\n    tag_118:\n        /* \"#utility.yul\":4438:4443   */\n      0x00\n        /* \"#utility.yul\":4463:4529   */\n      tag_197\n        /* \"#utility.yul\":4479:4528   */\n      tag_198\n        /* \"#utility.yul\":4521:4527   */\n      dup5\n        /* \"#utility.yul\":4479:4528   */\n      tag_116\n      jump\t// in\n    tag_198:\n        /* \"#utility.yul\":4463:4529   */\n      tag_115\n      jump\t// in\n    tag_197:\n        /* \"#utility.yul\":4454:4529   */\n      swap1\n      pop\n        /* \"#utility.yul\":4552:4558   */\n      dup3\n        /* \"#utility.yul\":4545:4550   */\n      dup2\n        /* \"#utility.yul\":4538:4559   */\n      mstore\n        /* \"#utility.yul\":4590:4594   */\n      0x20\n        /* \"#utility.yul\":4583:4588   */\n      dup2\n        /* \"#utility.yul\":4579:4595   */\n      add\n        /* \"#utility.yul\":4628:4631   */\n      dup5\n        /* \"#utility.yul\":4619:4625   */\n      dup5\n        /* \"#utility.yul\":4614:4617   */\n      dup5\n        /* \"#utility.yul\":4610:4626   */\n      add\n        /* \"#utility.yul\":4607:4632   */\n      gt\n        /* \"#utility.yul\":4604:4716   */\n      iszero\n      tag_199\n      jumpi\n        /* \"#utility.yul\":4635:4714   */\n      tag_200\n      tag_111\n      jump\t// in\n    tag_200:\n        /* \"#utility.yul\":4604:4716   */\n    tag_199:\n        /* \"#utility.yul\":4725:4779   */\n      tag_201\n        /* \"#utility.yul\":4772:4778   */\n      dup5\n        /* \"#utility.yul\":4767:4770   */\n      dup3\n        /* \"#utility.yul\":4762:4765   */\n      dup6\n        /* \"#utility.yul\":4725:4779   */\n      tag_117\n      jump\t// in\n    tag_201:\n        /* \"#utility.yul\":4444:4785   */\n      pop\n        /* \"#utility.yul\":4360:4785   */\n      swap4\n      swap3\n      pop\n      pop\n      pop\n      jump\t// out\n        /* \"#utility.yul\":4805:5145   */\n    tag_119:\n        /* \"#utility.yul\":4861:4866   */\n      0x00\n        /* \"#utility.yul\":4910:4913   */\n      dup3\n        /* \"#utility.yul\":4903:4907   */\n      0x1f\n        /* \"#utility.yul\":4895:4901   */\n      dup4\n        /* \"#utility.yul\":4891:4908   */\n      add\n        /* \"#utility.yul\":4887:4914   */\n      slt\n        /* \"#utility.yul\":4877:4999   */\n      tag_203\n      jumpi\n        /* \"#utility.yul\":4918:4997   */\n      tag_204\n      tag_110\n      jump\t// in\n    tag_204:\n        /* \"#utility.yul\":4877:4999   */\n    tag_203:\n        /* \"#utility.yul\":5035:5041   */\n      dup2\n        /* \"#utility.yul\":5022:5042   */\n      calldataload\n        /* \"#utility.yul\":5060:5139   */\n      tag_205\n        /* \"#utility.yul\":5135:5138   */\n      dup5\n        /* \"#utility.yul\":5127:5133   */\n      dup3\n        /* \"#utility.yul\":5120:5124   */\n      0x20\n        /* \"#utility.yul\":5112:5118   */\n      dup7\n        /* \"#utility.yul\":5108:5125   */\n      add\n        /* \"#utility.yul\":5060:5139   */\n      tag_118\n      jump\t// in\n    tag_205:\n        /* \"#utility.yul\":5051:5139   */\n      swap2\n      pop\n        /* \"#utility.yul\":4867:5145   */\n      pop\n        /* \"#utility.yul\":4805:5145   */\n      swap3\n      swap2\n      pop\n      pop\n      jump\t// out\n        /* \"#utility.yul\":5151:5805   */\n    tag_35:\n        /* \"#utility.yul\":5229:5235   */\n      0x00\n        /* \"#utility.yul\":5237:5243   */\n      dup1\n        /* \"#utility.yul\":5286:5288   */\n      0x40\n        /* \"#utility.yul\":5274:5283   */\n      dup4\n        /* \"#utility.yul\":5265:5272   */\n      dup6\n        /* \"#utility.yul\":5261:5284   */\n      sub\n        /* \"#utility.yul\":5257:5289   */\n      slt\n        /* \"#utility.yul\":5254:5373   */\n      iszero\n      tag_207\n      jumpi\n        /* \"#utility.yul\":5292:5371   */\n      tag_208\n      tag_98\n      jump\t// in\n    tag_208:\n        /* \"#utility.yul\":5254:5373   */\n    tag_207:\n        /* \"#utility.yul\":5440:5441   */\n      0x00\n        /* \"#utility.yul\":5429:5438   */\n      dup4\n        /* \"#utility.yul\":5425:5442   */\n      add\n        /* \"#utility.yul\":5412:5443   */\n      calldataload\n        /* \"#utility.yul\":5470:5488   */\n      0xffffffffffffffff\n        /* \"#utility.yul\":5462:5468   */\n      dup2\n        /* \"#utility.yul\":5459:5489   */\n      gt\n        /* \"#utility.yul\":5456:5573   */\n      iszero\n      tag_209\n      jumpi\n        /* \"#utility.yul\":5492:5571   */\n      tag_210\n      tag_99\n      jump\t// in\n    tag_210:\n        /* \"#utility.yul\":5456:5573   */\n    tag_209:\n        /* \"#utility.yul\":5597:5660   */\n      tag_211\n        /* \"#utility.yul\":5652:5659   */\n      dup6\n        /* \"#utility.yul\":5643:5649   */\n      dup3\n        /* \"#utility.yul\":5632:5641   */\n      dup7\n        /* \"#utility.yul\":5628:5650   */\n      add\n        /* \"#utility.yul\":5597:5660   */\n      tag_119\n      jump\t// in\n    tag_211:\n        /* \"#utility.yul\":5587:5660   */\n      swap3\n      pop\n        /* \"#utility.yul\":5383:5670   */\n      pop\n        /* \"#utility.yul\":5709:5711   */\n      0x20\n        /* \"#utility.yul\":5735:5788   */\n      tag_212\n        /* \"#utility.yul\":5780:5787   */\n      dup6\n        /* \"#utility.yul\":5771:5777   */\n      dup3\n        /* \"#utility.yul\":5760:5769   */\n      dup7\n        /* \"#utility.yul\":5756:5778   */\n      add\n        /* \"#utility.yul\":5735:5788   */\n      tag_102\n      jump\t// in\n    tag_212:\n        /* \"#utility.yul\":5725:5788   */\n      swap2\n      pop\n        /* \"#utility.yul\":5680:5798   */\n      pop\n        /* \"#utility.yul\":5151:5805   */\n      swap3\n      pop\n      swap3\n      swap1\n      pop\n      jump\t// out\n        /* \"#utility.yul\":5811:6320   */\n    tag_39:\n        /* \"#utility.yul\":5880:5886   */\n      0x00\n        /* \"#utility.yul\":5929:5931   */\n      0x20\n        /* \"#utility.yul\":5917:5926   */\n      dup3\n        /* \"#utility.yul\":5908:5915   */\n      dup5\n        /* \"#utility.yul\":5904:5927   */\n      sub\n        /* \"#utility.yul\":5900:5932   */\n      slt\n        /* \"#utility.yul\":5897:6016   */\n      iszero\n      tag_214\n      jumpi\n        /* \"#utility.yul\":5935:6014   */\n      tag_215\n      tag_98\n      jump\t// in\n    tag_215:\n        /* \"#utility.yul\":5897:6016   */\n    tag_214:\n        /* \"#utility.yul\":6083:6084   */\n      0x00\n        /* \"#utility.yul\":6072:6081   */\n      dup3\n        /* \"#utility.yul\":6068:6085   */\n      add\n        /* \"#utility.yul\":6055:6086   */\n      calldataload\n        /* \"#utility.yul\":6113:6131   */\n      0xffffffffffffffff\n        /* \"#utility.yul\":6105:6111   */\n      dup2\n        /* \"#utility.yul\":6102:6132   */\n      gt\n        /* \"#utility.yul\":6099:6216   */\n      iszero\n      tag_216\n      jumpi\n        /* \"#utility.yul\":6135:6214   */\n      tag_217\n      tag_99\n      jump\t// in\n    tag_217:\n        /* \"#utility.yul\":6099:6216   */\n    tag_216:\n        /* \"#utility.yul\":6240:6303   */\n      tag_218\n        /* \"#utility.yul\":6295:6302   */\n      dup5\n        /* \"#utility.yul\":6286:6292   */\n      dup3\n        /* \"#utility.yul\":6275:6284   */\n      dup6\n        /* \"#utility.yul\":6271:6293   */\n      add\n        /* \"#utility.yul\":6240:6303   */\n      tag_119\n      jump\t// in\n    tag_218:\n        /* \"#utility.yul\":6230:6303   */\n      swap2\n      pop\n        /* \"#utility.yul\":6026:6313   */\n      pop\n        /* \"#utility.yul\":5811:6320   */\n      swap3\n      swap2\n      pop\n      pop\n      jump\t// out\n        /* \"#utility.yul\":6326:6425   */\n    tag_120:\n        /* \"#utility.yul\":6378:6384   */\n      0x00\n        /* \"#utility.yul\":6412:6417   */\n      dup2\n        /* \"#utility.yul\":6406:6418   */\n      mload\n        /* \"#utility.yul\":6396:6418   */\n      swap1\n      pop\n        /* \"#utility.yul\":6326:6425   */\n      swap2\n      swap1\n      pop\n      jump\t// out\n        /* \"#utility.yul\":6431:6600   */\n    tag_121:\n        /* \"#utility.yul\":6515:6526   */\n      0x00\n        /* \"#utility.yul\":6549:6555   */\n      dup3\n        /* \"#utility.yul\":6544:6547   */\n      dup3\n        /* \"#utility.yul\":6537:6556   */\n      mstore\n        /* \"#utility.yul\":6589:6593   */\n      0x20\n        /* \"#utility.yul\":6584:6587   */\n      dup3\n        /* \"#utility.yul\":6580:6594   */\n      add\n        /* \"#utility.yul\":6565:6594   */\n      swap1\n      pop\n        /* \"#utility.yul\":6431:6600   */\n      swap3\n      swap2\n      pop\n      pop\n      jump\t// out\n        /* \"#utility.yul\":6606:6852   */\n    tag_122:\n        /* \"#utility.yul\":6687:6688   */\n      0x00\n        /* \"#utility.yul\":6697:6810   */\n    tag_222:\n        /* \"#utility.yul\":6711:6717   */\n      dup4\n        /* \"#utility.yul\":6708:6709   */\n      dup2\n        /* \"#utility.yul\":6705:6718   */\n      lt\n        /* \"#utility.yul\":6697:6810   */\n      iszero\n      tag_224\n      jumpi\n        /* \"#utility.yul\":6796:6797   */\n      dup1\n        /* \"#utility.yul\":6791:6794   */\n      dup3\n        /* \"#utility.yul\":6787:6798   */\n      add\n        /* \"#utility.yul\":6781:6799   */\n      mload\n        /* \"#utility.yul\":6777:6778   */\n      dup2\n        /* \"#utility.yul\":6772:6775   */\n      dup5\n        /* \"#utility.yul\":6768:6779   */\n      add\n        /* \"#utility.yul\":6761:6800   */\n      mstore\n        /* \"#utility.yul\":6733:6735   */\n      0x20\n        /* \"#utility.yul\":6730:6731   */\n      dup2\n        /* \"#utility.yul\":6726:6736   */\n      add\n        /* \"#utility.yul\":6721:6736   */\n      swap1\n      pop\n        /* \"#utility.yul\":6697:6810   */\n      jump(tag_222)\n    tag_224:\n        /* \"#utility.yul\":6844:6845   */\n      0x00\n        /* \"#utility.yul\":6835:6841   */\n      dup5\n        /* \"#utility.yul\":6830:6833   */\n      dup5\n        /* \"#utility.yul\":6826:6842   */\n      add\n        /* \"#utility.yul\":6819:6846   */\n      mstore\n        /* \"#utility.yul\":6668:6852   */\n      pop\n        /* \"#utility.yul\":6606:6852   */\n      pop\n      pop\n      pop\n      jump\t// out\n        /* \"#utility.yul\":6858:7235   */\n    tag_123:\n        /* \"#utility.yul\":6946:6949   */\n      0x00\n        /* \"#utility.yul\":6974:7013   */\n      tag_226\n        /* \"#utility.yul\":7007:7012   */\n      dup3\n        /* \"#utility.yul\":6974:7013   */\n      tag_120\n      jump\t// in\n    tag_226:\n        /* \"#utility.yul\":7029:7100   */\n      tag_227\n        /* \"#utility.yul\":7093:7099   */\n      dup2\n        /* \"#utility.yul\":7088:7091   */\n      dup6\n        /* \"#utility.yul\":7029:7100   */\n      tag_121\n      jump\t// in\n    tag_227:\n        /* \"#utility.yul\":7022:7100   */\n      swap4\n      pop\n        /* \"#utility.yul\":7109:7174   */\n      tag_228\n        /* \"#utility.yul\":7167:7173   */\n      dup2\n        /* \"#utility.yul\":7162:7165   */\n      dup6\n        /* \"#utility.yul\":7155:7159   */\n      0x20\n        /* \"#utility.yul\":7148:7153   */\n      dup7\n        /* \"#utility.yul\":7144:7160   */\n      add\n        /* \"#utility.yul\":7109:7174   */\n      tag_122\n      jump\t// in\n    tag_228:\n        /* \"#utility.yul\":7199:7228   */\n      tag_229\n        /* \"#utility.yul\":7221:7227   */\n      dup2\n        /* \"#utility.yul\":7199:7228   */\n      tag_112\n      jump\t// in\n    tag_229:\n        /* \"#utility.yul\":7194:7197   */\n      dup5\n        /* \"#utility.yul\":7190:7229   */\n      add\n        /* \"#utility.yul\":7183:7229   */\n      swap2\n      pop\n        /* \"#utility.yul\":6950:7235   */\n      pop\n        /* \"#utility.yul\":6858:7235   */\n      swap3\n      swap2\n      pop\n      pop\n      jump\t// out\n        /* \"#utility.yul\":7241:7664   */\n    tag_46:\n        /* \"#utility.yul\":7382:7386   */\n      0x00\n        /* \"#utility.yul\":7420:7422   */\n      0x40\n        /* \"#utility.yul\":7409:7418   */\n      dup3\n        /* \"#utility.yul\":7405:7423   */\n      add\n        /* \"#utility.yul\":7397:7423   */\n      swap1\n      pop\n        /* \"#utility.yul\":7433:7504   */\n      tag_231\n        /* \"#utility.yul\":7501:7502   */\n      0x00\n        /* \"#utility.yul\":7490:7499   */\n      dup4\n        /* \"#utility.yul\":7486:7503   */\n      add\n        /* \"#utility.yul\":7477:7483   */\n      dup6\n        /* \"#utility.yul\":7433:7504   */\n      tag_103\n      jump\t// in\n    tag_231:\n        /* \"#utility.yul\":7551:7560   */\n      dup2\n        /* \"#utility.yul\":7545:7549   */\n      dup2\n        /* \"#utility.yul\":7541:7561   */\n      sub\n        /* \"#utility.yul\":7536:7538   */\n      0x20\n        /* \"#utility.yul\":7525:7534   */\n      dup4\n        /* \"#utility.yul\":7521:7539   */\n      add\n        /* \"#utility.yul\":7514:7562   */\n      mstore\n        /* \"#utility.yul\":7579:7657   */\n      tag_232\n        /* \"#utility.yul\":7652:7656   */\n      dup2\n        /* \"#utility.yul\":7643:7649   */\n      dup5\n        /* \"#utility.yul\":7579:7657   */\n      tag_123\n      jump\t// in\n    tag_232:\n        /* \"#utility.yul\":7571:7657   */\n      swap1\n      pop\n        /* \"#utility.yul\":7241:7664   */\n      swap4\n      swap3\n      pop\n      pop\n      pop\n      jump\t// out\n        /* \"#utility.yul\":7670:7850   */\n    tag_57:\n        /* \"#utility.yul\":7718:7795   */\n      0x4e487b7100000000000000000000000000000000000000000000000000000000\n        /* \"#utility.yul\":7715:7716   */\n      0x00\n        /* \"#utility.yul\":7708:7796   */\n      mstore\n        /* \"#utility.yul\":7815:7819   */\n      0x32\n        /* \"#utility.yul\":7812:7813   */\n      0x04\n        /* \"#utility.yul\":7805:7820   */\n      mstore\n        /* \"#utility.yul\":7839:7843   */\n      0x24\n        /* \"#utility.yul\":7836:7837   */\n      0x00\n        /* \"#utility.yul\":7829:7844   */\n      revert\n        /* \"#utility.yul\":7856:8036   */\n    tag_124:\n        /* \"#utility.yul\":7904:7981   */\n      0x4e487b7100000000000000000000000000000000000000000000000000000000\n        /* \"#utility.yul\":7901:7902   */\n      0x00\n        /* \"#utility.yul\":7894:7982   */\n      mstore\n        /* \"#utility.yul\":8001:8005   */\n      0x22\n        /* \"#utility.yul\":7998:7999   */\n      0x04\n        /* \"#utility.yul\":7991:8006   */\n      mstore\n        /* \"#utility.yul\":8025:8029   */\n      0x24\n        /* \"#utility.yul\":8022:8023   */\n      0x00\n        /* \"#utility.yul\":8015:8030   */\n      revert\n        /* \"#utility.yul\":8042:8362   */\n    tag_81:\n        /* \"#utility.yul\":8086:8092   */\n      0x00\n        /* \"#utility.yul\":8123:8124   */\n      0x02\n        /* \"#utility.yul\":8117:8121   */\n      dup3\n        /* \"#utility.yul\":8113:8125   */\n      div\n        /* \"#utility.yul\":8103:8125   */\n      swap1\n      pop\n        /* \"#utility.yul\":8170:8171   */\n      0x01\n        /* \"#utility.yul\":8164:8168   */\n      dup3\n        /* \"#utility.yul\":8160:8172   */\n      and\n        /* \"#utility.yul\":8191:8209   */\n      dup1\n        /* \"#utility.yul\":8181:8262   */\n      tag_236\n      jumpi\n        /* \"#utility.yul\":8247:8251   */\n      0x7f\n        /* \"#utility.yul\":8239:8245   */\n      dup3\n        /* \"#utility.yul\":8235:8252   */\n      and\n        /* \"#utility.yul\":8225:8252   */\n      swap2\n      pop\n        /* \"#utility.yul\":8181:8262   */\n    tag_236:\n        /* \"#utility.yul\":8309:8311   */\n      0x20\n        /* \"#utility.yul\":8301:8307   */\n      dup3\n        /* \"#utility.yul\":8298:8312   */\n      lt\n        /* \"#utility.yul\":8278:8296   */\n      dup2\n        /* \"#utility.yul\":8275:8313   */\n      sub\n        /* \"#utility.yul\":8272:8356   */\n      tag_237\n      jumpi\n        /* \"#utility.yul\":8328:8346   */\n      tag_238\n      tag_124\n      jump\t// in\n    tag_238:\n        /* \"#utility.yul\":8272:8356   */\n    tag_237:\n        /* \"#utility.yul\":8093:8362   */\n      pop\n        /* \"#utility.yul\":8042:8362   */\n      swap2\n      swap1\n      pop\n      jump\t// out\n        /* \"#utility.yul\":8368:8509   */\n    tag_125:\n        /* \"#utility.yul\":8417:8421   */\n      0x00\n        /* \"#utility.yul\":8440:8443   */\n      dup2\n        /* \"#utility.yul\":8432:8443   */\n      swap1\n      pop\n        /* \"#utility.yul\":8463:8466   */\n      dup2\n        /* \"#utility.yul\":8460:8461   */\n      0x00\n        /* \"#utility.yul\":8453:8467   */\n      mstore\n        /* \"#utility.yul\":8497:8501   */\n      0x20\n        /* \"#utility.yul\":8494:8495   */\n      0x00\n        /* \"#utility.yul\":8484:8502   */\n      keccak256\n        /* \"#utility.yul\":8476:8502   */\n      swap1\n      pop\n        /* \"#utility.yul\":8368:8509   */\n      swap2\n      swap1\n      pop\n      jump\t// out\n        /* \"#utility.yul\":8515:8608   */\n    tag_126:\n        /* \"#utility.yul\":8552:8558   */\n      0x00\n        /* \"#utility.yul\":8599:8601   */\n      0x20\n        /* \"#utility.yul\":8594:8596   */\n      0x1f\n        /* \"#utility.yul\":8587:8592   */\n      dup4\n        /* \"#utility.yul\":8583:8597   */\n      add\n        /* \"#utility.yul\":8579:8602   */\n      div\n        /* \"#utility.yul\":8569:8602   */\n      swap1\n      pop\n        /* \"#utility.yul\":8515:8608   */\n      swap2\n      swap1\n      pop\n      jump\t// out\n        /* \"#utility.yul\":8614:8721   */\n    tag_127:\n        /* \"#utility.yul\":8658:8666   */\n      0x00\n        /* \"#utility.yul\":8708:8713   */\n      dup3\n        /* \"#utility.yul\":8702:8706   */\n      dup3\n        /* \"#utility.yul\":8698:8714   */\n      shl\n        /* \"#utility.yul\":8677:8714   */\n      swap1\n      pop\n        /* \"#utility.yul\":8614:8721   */\n      swap3\n      swap2\n      pop\n      pop\n      jump\t// out\n        /* \"#utility.yul\":8727:9120   */\n    tag_128:\n        /* \"#utility.yul\":8796:8802   */\n      0x00\n        /* \"#utility.yul\":8846:8847   */\n      0x08\n        /* \"#utility.yul\":8834:8844   */\n      dup4\n        /* \"#utility.yul\":8830:8848   */\n      mul\n        /* \"#utility.yul\":8869:8966   */\n      tag_243\n        /* \"#utility.yul\":8899:8965   */\n      0xffffffffffffffffffffffffffffffffffffffffffffffffffffffffffffffff\n        /* \"#utility.yul\":8888:8897   */\n      dup3\n        /* \"#utility.yul\":8869:8966   */\n      tag_127\n      jump\t// in\n    tag_243:\n        /* \"#utility.yul\":8987:9026   */\n      tag_244\n        /* \"#utility.yul\":9017:9025   */\n      dup7\n        /* \"#utility.yul\":9006:9015   */\n      dup4\n        /* \"#utility.yul\":8987:9026   */\n      tag_127\n      jump\t// in\n    tag_244:\n        /* \"#utility.yul\":8975:9026   */\n      swap6\n      pop\n        /* \"#utility.yul\":9059:9063   */\n      dup1\n        /* \"#utility.yul\":9055:9064   */\n      not\n        /* \"#utility.yul\":9048:9053   */\n      dup5\n        /* \"#utility.yul\":9044:9065   */\n      and\n        /* \"#utility.yul\":9035:9065   */\n      swap4\n      pop\n        /* \"#utility.yul\":9108:9112   */\n      dup1\n        /* \"#utility.yul\":9098:9106   */\n      dup7\n        /* \"#utility.yul\":9094:9113   */\n      and\n        /* \"#utility.yul\":9087:9092   */\n      dup5\n        /* \"#utility.yul\":9084:9114   */\n      or\n        /* \"#utility.yul\":9074:9114   */\n      swap3\n      pop\n        /* \"#utility.yul\":8803:9120   */\n      pop\n      pop\n        /* \"#utility.yul\":8727:9120   */\n      swap4\n      swap3\n      pop\n      pop\n      pop\n      jump\t// out\n        /* \"#utility.yul\":9126:9268   */\n    tag_129:\n        /* \"#utility.yul\":9176:9185   */\n      0x00\n        /* \"#utility.yul\":9209:9262   */\n      tag_246\n        /* \"#utility.yul\":9227:9261   */\n      tag_247\n        /* \"#utility.yul\":9236:9260   */\n      tag_248\n        /* \"#utility.yul\":9254:9259   */\n      dup5\n        /* \"#utility.yul\":9236:9260   */\n      tag_100\n      jump\t// in\n    tag_248:\n        /* \"#utility.yul\":9227:9261   */\n      tag_105\n      jump\t// in\n    tag_247:\n        /* \"#utility.yul\":9209:9262   */\n      tag_100\n      jump\t// in\n    tag_246:\n        /* \"#utility.yul\":9196:9262   */\n      swap1\n      pop\n        /* \"#utility.yul\":9126:9268   */\n      swap2\n      swap1\n      pop\n      jump\t// out\n        /* \"#utility.yul\":9274:9349   */\n    tag_130:\n        /* \"#utility.yul\":9317:9320   */\n      0x00\n        /* \"#utility.yul\":9338:9343   */\n      dup2\n        /* \"#utility.yul\":9331:9343   */\n      swap1\n      pop\n        /* \"#utility.yul\":9274:9349   */\n      swap2\n      swap1\n      pop\n      jump\t// out\n        /* \"#utility.yul\":9355:9624   */\n    tag_131:\n        /* \"#utility.yul\":9465:9504   */\n      tag_251\n        /* \"#utility.yul\":9496:9503   */\n      dup4\n        /* \"#utility.yul\":9465:9504   */\n      tag_129\n      jump\t// in\n    tag_251:\n        /* \"#utility.yul\":9526:9617   */\n      tag_252\n        /* \"#utility.yul\":9575:9616   */\n      tag_253\n        /* \"#utility.yul\":9599:9615   */\n      dup3\n        /* \"#utility.yul\":9575:9616   */\n      tag_130\n      jump\t// in\n    tag_253:\n        /* \"#utility.yul\":9567:9573   */\n      dup5\n        /* \"#utility.yul\":9560:9564   */\n      dup5\n        /* \"#utility.yul\":9554:9565   */\n      sload\n        /* \"#utility.yul\":9526:9617   */\n      tag_128\n      jump\t// in\n    tag_252:\n        /* \"#utility.yul\":9520:9524   */\n      dup3\n        /* \"#utility.yul\":9513:9618   */\n      sstore\n        /* \"#utility.yul\":9431:9624   */\n      pop\n        /* \"#utility.yul\":9355:9624   */\n      pop\n      pop\n      pop\n      jump\t// out\n        /* \"#utility.yul\":9630:9703   */\n    tag_132:\n        /* \"#utility.yul\":9675:9678   */\n      0x00\n        /* \"#utility.yul\":9630:9703   */\n      swap1\n      jump\t// out\n        /* \"#utility.yul\":9709:9898   */\n    tag_133:\n        /* \"#utility.yul\":9786:9818   */\n      tag_256\n      tag_132\n      jump\t// in\n    tag_256:\n        /* \"#utility.yul\":9827:9892   */\n      tag_257\n        /* \"#utility.yul\":9885:9891   */\n      dup2\n        /* \"#utility.yul\":9877:9883   */\n      dup5\n        /* \"#utility.yul\":9871:9875   */\n      dup5\n        /* \"#utility.yul\":9827:9892   */\n      tag_131\n      jump\t// in\n    tag_257:\n        /* \"#utility.yul\":9762:9898   */\n      pop\n        /* \"#utility.yul\":9709:9898   */\n      pop\n      pop\n      jump\t// out\n        /* \"#utility.yul\":9904:10090   */\n    tag_134:\n        /* \"#utility.yul\":9964:10084   */\n    tag_259:\n        /* \"#utility.yul\":9981:9984   */\n      dup2\n        /* \"#utility.yul\":9974:9979   */\n      dup2\n        /* \"#utility.yul\":9971:9985   */\n      lt\n        /* \"#utility.yul\":9964:10084   */\n      iszero\n      tag_261\n      jumpi\n        /* \"#utility.yul\":10035:10074   */\n      tag_262\n        /* \"#utility.yul\":10072:10073   */\n      0x00\n        /* \"#utility.yul\":10065:10070   */\n      dup3\n        /* \"#utility.yul\":10035:10074   */\n      tag_133\n      jump\t// in\n    tag_262:\n        /* \"#utility.yul\":10008:10009   */\n      0x01\n        /* \"#utility.yul\":10001:10006   */\n      dup2\n        /* \"#utility.yul\":9997:10010   */\n      add\n        /* \"#utility.yul\":9988:10010   */\n      swap1\n      pop\n        /* \"#utility.yul\":9964:10084   */\n      jump(tag_259)\n    tag_261:\n        /* \"#utility.yul\":9904:10090   */\n      pop\n      pop\n      jump\t// out\n        /* \"#utility.yul\":10096:10639   */\n    tag_135:\n        /* \"#utility.yul\":10197:10199   */\n      0x1f\n        /* \"#utility.yul\":10192:10195   */\n      dup3\n        /* \"#utility.yul\":10189:10200   */\n      gt\n        /* \"#utility.yul\":10186:10632   */\n      iszero\n      tag_264\n      jumpi\n        /* \"#utility.yul\":10231:10269   */\n      tag_265\n        /* \"#utility.yul\":10263:10268   */\n      dup2\n        /* \"#utility.yul\":10231:10269   */\n      tag_125\n      jump\t// in\n    tag_265:\n        /* \"#utility.yul\":10315:10344   */\n      tag_266\n        /* \"#utility.yul\":10333:10343   */\n      dup5\n        /* \"#utility.yul\":10315:10344   */\n      tag_126\n      jump\t// in\n    tag_266:\n        /* \"#utility.yul\":10305:10313   */\n      dup2\n        /* \"#utility.yul\":10301:10345   */\n      add\n        /* \"#utility.yul\":10498:10500   */\n      0x20\n        /* \"#utility.yul\":10486:10496   */\n      dup6\n        /* \"#utility.yul\":10483:10501   */\n      lt\n        /* \"#utility.yul\":10480:10529   */\n      iszero\n      tag_267\n      jumpi\n        /* \"#utility.yul\":10519:10527   */\n      dup2\n        /* \"#utility.yul\":10504:10527   */\n      swap1\n      pop\n        /* \"#utility.yul\":10480:10529   */\n    tag_267:\n        /* \"#utility.yul\":10542:10622   */\n      tag_268\n        /* \"#utility.yul\":10598:10620   */\n      tag_269\n        /* \"#utility.yul\":10616:10619   */\n      dup6\n        /* \"#utility.yul\":10598:10620   */\n      tag_126\n      jump\t// in\n    tag_269:\n        /* \"#utility.yul\":10588:10596   */\n      dup4\n        /* \"#utility.yul\":10584:10621   */\n      add\n        /* \"#utility.yul\":10571:10582   */\n      dup3\n        /* \"#utility.yul\":10542:10622   */\n      tag_134\n      jump\t// in\n    tag_268:\n        /* \"#utility.yul\":10201:10632   */\n      pop\n      pop\n        /* \"#utility.yul\":10186:10632   */\n    tag_264:\n        /* \"#utility.yul\":10096:10639   */\n      pop\n      pop\n      pop\n      jump\t// out\n        /* \"#utility.yul\":10645:10762   */\n    tag_136:\n        /* \"#utility.yul\":10699:10707   */\n      0x00\n        /* \"#utility.yul\":10749:10754   */\n      dup3\n        /* \"#utility.yul\":10743:10747   */\n      dup3\n        /* \"#utility.yul\":10739:10755   */\n      shr\n        /* \"#utility.yul\":10718:10755   */\n      swap1\n      pop\n        /* \"#utility.yul\":10645:10762   */\n      swap3\n      swap2\n      pop\n      pop\n      jump\t// out\n        /* \"#utility.yul\":10768:10937   */\n    tag_137:\n        /* \"#utility.yul\":10812:10818   */\n      0x00\n        /* \"#utility.yul\":10845:10896   */\n      tag_272\n        /* \"#utility.yul\":10893:10894   */\n      0x00\n        /* \"#utility.yul\":10889:10895   */\n      not\n        /* \"#utility.yul\":10881:10886   */\n      dup5\n        /* \"#utility.yul\":10878:10879   */\n      0x08\n        /* \"#utility.yul\":10874:10887   */\n      mul\n        /* \"#utility.yul\":10845:10896   */\n      tag_136\n      jump\t// in\n    tag_272:\n        /* \"#utility.yul\":10841:10897   */\n      not\n        /* \"#utility.yul\":10926:10930   */\n      dup1\n        /* \"#utility.yul\":10920:10924   */\n      dup4\n        /* \"#utility.yul\":10916:10931   */\n      and\n        /* \"#utility.yul\":10906:10931   */\n      swap2\n      pop\n        /* \"#utility.yul\":10819:10937   */\n      pop\n        /* \"#utility.yul\":10768:10937   */\n      swap3\n      swap2\n      pop\n      pop\n      jump\t// out\n        /* \"#utility.yul\":10942:11237   */\n    tag_138:\n        /* \"#utility.yul\":11018:11022   */\n      0x00\n        /* \"#utility.yul\":11164:11193   */\n      tag_274\n        /* \"#utility.yul\":11189:11192   */\n      dup4\n        /* \"#utility.yul\":11183:11187   */\n      dup4\n        /* \"#utility.yul\":11164:11193   */\n      tag_137\n      jump\t// in\n    tag_274:\n        /* \"#utility.yul\":11156:11193   */\n      swap2\n      pop\n        /* \"#utility.yul\":11226:11229   */\n      dup3\n        /* \"#utility.yul\":11223:11224   */\n      0x02\n        /* \"#utility.yul\":11219:11230   */\n      mul\n        /* \"#utility.yul\":11213:11217   */\n      dup3\n        /* \"#utility.yul\":11210:11231   */\n      or\n        /* \"#utility.yul\":11202:11231   */\n      swap1\n      pop\n        /* \"#utility.yul\":10942:11237   */\n      swap3\n      swap2\n      pop\n      pop\n      jump\t// out\n        /* \"#utility.yul\":11242:12637   */\n    tag_75:\n        /* \"#utility.yul\":11359:11396   */\n      tag_276\n        /* \"#utility.yul\":11392:11395   */\n      dup3\n        /* \"#utility.yul\":11359:11396   */\n      tag_120\n      jump\t// in\n    tag_276:\n        /* \"#utility.yul\":11461:11479   */\n      0xffffffffffffffff\n        /* \"#utility.yul\":11453:11459   */\n      dup2\n        /* \"#utility.yul\":11450:11480   */\n      gt\n        /* \"#utility.yul\":11447:11503   */\n      iszero\n      tag_277\n      jumpi\n        /* \"#utility.yul\":11483:11501   */\n      tag_278\n      tag_113\n      jump\t// in\n    tag_278:\n        /* \"#utility.yul\":11447:11503   */\n    tag_277:\n        /* \"#utility.yul\":11527:11565   */\n      tag_279\n        /* \"#utility.yul\":11559:11563   */\n      dup3\n        /* \"#utility.yul\":11553:11564   */\n      sload\n        /* \"#utility.yul\":11527:11565   */\n      tag_81\n      jump\t// in\n    tag_279:\n        /* \"#utility.yul\":11612:11679   */\n      tag_280\n        /* \"#utility.yul\":11672:11678   */\n      dup3\n        /* \"#utility.yul\":11664:11670   */\n      dup3\n        /* \"#utility.yul\":11658:11662   */\n      dup6\n        /* \"#utility.yul\":11612:11679   */\n      tag_135\n      jump\t// in\n    tag_280:\n        /* \"#utility.yul\":11706:11707   */\n      0x00\n        /* \"#utility.yul\":11730:11734   */\n      0x20\n        /* \"#utility.yul\":11717:11734   */\n      swap1\n      pop\n        /* \"#utility.yul\":11762:11764   */\n      0x1f\n        /* \"#utility.yul\":11754:11760   */\n      dup4\n        /* \"#utility.yul\":11751:11765   */\n      gt\n        /* \"#utility.yul\":11779:11780   */\n      0x01\n        /* \"#utility.yul\":11774:12392   */\n      dup2\n      eq\n      tag_282\n      jumpi\n        /* \"#utility.yul\":12436:12437   */\n      0x00\n        /* \"#utility.yul\":12453:12459   */\n      dup5\n        /* \"#utility.yul\":12450:12527   */\n      iszero\n      tag_283\n      jumpi\n        /* \"#utility.yul\":12502:12511   */\n      dup3\n        /* \"#utility.yul\":12497:12500   */\n      dup8\n        /* \"#utility.yul\":12493:12512   */\n      add\n        /* \"#utility.yul\":12487:12513   */\n      mload\n        /* \"#utility.yul\":12478:12513   */\n      swap1\n      pop\n        /* \"#utility.yul\":12450:12527   */\n    tag_283:\n        /* \"#utility.yul\":12553:12620   */\n      tag_284\n        /* \"#utility.yul\":12613:12619   */\n      dup6\n        /* \"#utility.yul\":12606:12611   */\n      dup3\n        /* \"#utility.yul\":12553:12620   */\n      tag_138\n      jump\t// in\n    tag_284:\n        /* \"#utility.yul\":12547:12551   */\n      dup7\n        /* \"#utility.yul\":12540:12621   */\n      sstore\n        /* \"#utility.yul\":12409:12631   */\n      pop\n        /* \"#utility.yul\":11744:12631   */\n      jump(tag_281)\n        /* \"#utility.yul\":11774:12392   */\n    tag_282:\n        /* \"#utility.yul\":11826:11830   */\n      0x1f\n        /* \"#utility.yul\":11822:11831   */\n      not\n        /* \"#utility.yul\":11814:11820   */\n      dup5\n        /* \"#utility.yul\":11810:11832   */\n      and\n        /* \"#utility.yul\":11860:11897   */\n      tag_285\n        /* \"#utility.yul\":11892:11896   */\n      dup7\n        /* \"#utility.yul\":11860:11897   */\n      tag_125\n      jump\t// in\n    tag_285:\n        /* \"#utility.yul\":11919:11920   */\n      0x00\n        /* \"#utility.yul\":11933:12141   */\n    tag_286:\n        /* \"#utility.yul\":11947:11954   */\n      dup3\n        /* \"#utility.yul\":11944:11945   */\n      dup2\n        /* \"#utility.yul\":11941:11955   */\n      lt\n        /* \"#utility.yul\":11933:12141   */\n      iszero\n      tag_288\n      jumpi\n        /* \"#utility.yul\":12026:12035   */\n      dup5\n        /* \"#utility.yul\":12021:12024   */\n      dup10\n        /* \"#utility.yul\":12017:12036   */\n      add\n        /* \"#utility.yul\":12011:12037   */\n      mload\n        /* \"#utility.yul\":12003:12009   */\n      dup3\n        /* \"#utility.yul\":11996:12038   */\n      sstore\n        /* \"#utility.yul\":12077:12078   */\n      0x01\n        /* \"#utility.yul\":12069:12075   */\n      dup3\n        /* \"#utility.yul\":12065:12079   */\n      add\n        /* \"#utility.yul\":12055:12079   */\n      swap2\n      pop\n        /* \"#utility.yul\":12124:12126   */\n      0x20\n        /* \"#utility.yul\":12113:12122   */\n      dup6\n        /* \"#utility.yul\":12109:12127   */\n      add\n        /* \"#utility.yul\":12096:12127   */\n      swap5\n      pop\n        /* \"#utility.yul\":11970:11974   */\n      0x20\n        /* \"#utility.yul\":11967:11968   */\n      dup2\n        /* \"#utility.yul\":11963:11975   */\n      add\n        /* \"#utility.yul\":11958:11975   */\n      swap1\n      pop\n        /* \"#utility.yul\":11933:12141   */\n      jump(tag_286)\n    tag_288:\n        /* \"#utility.yul\":12169:12175   */\n      dup7\n        /* \"#utility.yul\":12160:12167   */\n      dup4\n        /* \"#utility.yul\":12157:12176   */\n      lt\n        /* \"#utility.yul\":12154:12333   */\n      iszero\n      tag_289\n      jumpi\n        /* \"#utility.yul\":12227:12236   */\n      dup5\n        /* \"#utility.yul\":12222:12225   */\n      dup10\n        /* \"#utility.yul\":12218:12237   */\n      add\n        /* \"#utility.yul\":12212:12238   */\n      mload\n        /* \"#utility.yul\":12270:12318   */\n      tag_290\n        /* \"#utility.yul\":12312:12316   */\n      0x1f\n        /* \"#utility.yul\":12304:12310   */\n      dup10\n        /* \"#utility.yul\":12300:12317   */\n      and\n        /* \"#utility.yul\":12289:12298   */\n      dup3\n        /* \"#utility.yul\":12270:12318   */\n      tag_137\n      jump\t// in\n    tag_290:\n        /* \"#utility.yul\":12262:12268   */\n      dup4\n        /* \"#utility.yul\":12255:12319   */\n      sstore\n        /* \"#utility.yul\":12177:12333   */\n      pop\n        /* \"#utility.yul\":12154:12333   */\n    tag_289:\n        /* \"#utility.yul\":12379:12380   */\n      0x01\n        /* \"#utility.yul\":12375:12376   */\n      0x02\n        /* \"#utility.yul\":12367:12373   */\n      dup9\n        /* \"#utility.yul\":12363:12377   */\n      mul\n        /* \"#utility.yul\":12359:12381   */\n      add\n        /* \"#utility.yul\":12353:12357   */\n      dup9\n        /* \"#utility.yul\":12346:12382   */\n      sstore\n        /* \"#utility.yul\":11781:12392   */\n      pop\n      pop\n      pop\n        /* \"#utility.yul\":11744:12631   */\n    tag_281:\n      pop\n        /* \"#utility.yul\":11334:12637   */\n      pop\n      pop\n      pop\n        /* \"#utility.yul\":11242:12637   */\n      pop\n      pop\n      jump\t// out\n        /* \"#utility.yul\":12643:12791   */\n    tag_139:\n        /* \"#utility.yul\":12745:12756   */\n      0x00\n        /* \"#utility.yul\":12782:12785   */\n      dup2\n        /* \"#utility.yul\":12767:12785   */\n      swap1\n      pop\n        /* \"#utility.yul\":12643:12791   */\n      swap3\n      swap2\n      pop\n      pop\n      jump\t// out\n        /* \"#utility.yul\":12797:13187   */\n    tag_140:\n        /* \"#utility.yul\":12903:12906   */\n      0x00\n        /* \"#utility.yul\":12931:12970   */\n      tag_293\n        /* \"#utility.yul\":12964:12969   */\n      dup3\n        /* \"#utility.yul\":12931:12970   */\n      tag_120\n      jump\t// in\n    tag_293:\n        /* \"#utility.yul\":12986:13075   */\n      tag_294\n        /* \"#utility.yul\":13068:13074   */\n      dup2\n        /* \"#utility.yul\":13063:13066   */\n      dup6\n        /* \"#utility.yul\":12986:13075   */\n      tag_139\n      jump\t// in\n    tag_294:\n        /* \"#utility.yul\":12979:13075   */\n      swap4\n      pop\n        /* \"#utility.yul\":13084:13149   */\n      tag_295\n        /* \"#utility.yul\":13142:13148   */\n      dup2\n        /* \"#utility.yul\":13137:13140   */\n      dup6\n        /* \"#utility.yul\":13130:13134   */\n      0x20\n        /* \"#utility.yul\":13123:13128   */\n      dup7\n        /* \"#utility.yul\":13119:13135   */\n      add\n        /* \"#utility.yul\":13084:13149   */\n      tag_122\n      jump\t// in\n    tag_295:\n        /* \"#utility.yul\":13174:13180   */\n      dup1\n        /* \"#utility.yul\":13169:13172   */\n      dup5\n        /* \"#utility.yul\":13165:13181   */\n      add\n        /* \"#utility.yul\":13158:13181   */\n      swap2\n      pop\n        /* \"#utility.yul\":12907:13187   */\n      pop\n        /* \"#utility.yul\":12797:13187   */\n      swap3\n      swap2\n      pop\n      pop\n      jump\t// out\n        /* \"#utility.yul\":13193:13468   */\n    tag_77:\n        /* \"#utility.yul\":13325:13328   */\n      0x00\n        /* \"#utility.yul\":13347:13442   */\n      tag_297\n        /* \"#utility.yul\":13438:13441   */\n      dup3\n        /* \"#utility.yul\":13429:13435   */\n      dup5\n        /* \"#utility.yul\":13347:13442   */\n      tag_140\n      jump\t// in\n    tag_297:\n        /* \"#utility.yul\":13340:13442   */\n      swap2\n      pop\n        /* \"#utility.yul\":13459:13462   */\n      dup2\n        /* \"#utility.yul\":13452:13462   */\n      swap1\n      pop\n        /* \"#utility.yul\":13193:13468   */\n      swap3\n      swap2\n      pop\n      pop\n      jump\t// out\n        /* \"#utility.yul\":13474:13654   */\n    tag_141:\n        /* \"#utility.yul\":13522:13599   */\n      0x4e487b7100000000000000000000000000000000000000000000000000000000\n        /* \"#utility.yul\":13519:13520   */\n      0x00\n        /* \"#utility.yul\":13512:13600   */\n      mstore\n        /* \"#utility.yul\":13619:13623   */\n      0x11\n        /* \"#utility.yul\":13616:13617   */\n      0x04\n        /* \"#utility.yul\":13609:13624   */\n      mstore\n        /* \"#utility.yul\":13643:13647   */\n      0x24\n        /* \"#utility.yul\":13640:13641   */\n      0x00\n        /* \"#utility.yul\":13633:13648   */\n      revert\n        /* \"#utility.yul\":13660:13851   */\n    tag_88:\n        /* \"#utility.yul\":13700:13703   */\n      0x00\n        /* \"#utility.yul\":13719:13739   */\n      tag_300\n        /* \"#utility.yul\":13737:13738   */\n      dup3\n        /* \"#utility.yul\":13719:13739   */\n      tag_100\n      jump\t// in\n    tag_300:\n        /* \"#utility.yul\":13714:13739   */\n      swap2\n      pop\n        /* \"#utility.yul\":13753:13773   */\n      tag_301\n        /* \"#utility.yul\":13771:13772   */\n      dup4\n        /* \"#utility.yul\":13753:13773   */\n      tag_100\n      jump\t// in\n    tag_301:\n        /* \"#utility.yul\":13748:13773   */\n      swap3\n      pop\n        /* \"#utility.yul\":13796:13797   */\n      dup3\n        /* \"#utility.yul\":13793:13794   */\n      dup3\n        /* \"#utility.yul\":13789:13798   */\n      add\n        /* \"#utility.yul\":13782:13798   */\n      swap1\n      pop\n        /* \"#utility.yul\":13817:13820   */\n      dup1\n        /* \"#utility.yul\":13814:13815   */\n      dup3\n        /* \"#utility.yul\":13811:13821   */\n      gt\n        /* \"#utility.yul\":13808:13844   */\n      iszero\n      tag_302\n      jumpi\n        /* \"#utility.yul\":13824:13842   */\n      tag_303\n      tag_141\n      jump\t// in\n    tag_303:\n        /* \"#utility.yul\":13808:13844   */\n    tag_302:\n        /* \"#utility.yul\":13660:13851   */\n      swap3\n      swap2\n      pop\n      pop\n      jump\t// out\n        /* \"#utility.yul\":13857:14000   */\n    tag_142:\n        /* \"#utility.yul\":13914:13919   */\n      0x00\n        /* \"#utility.yul\":13945:13951   */\n      dup2\n        /* \"#utility.yul\":13939:13952   */\n      mload\n        /* \"#utility.yul\":13930:13952   */\n      swap1\n      pop\n        /* \"#utility.yul\":13961:13994   */\n      tag_305\n        /* \"#utility.yul\":13988:13993   */\n      dup2\n        /* \"#utility.yul\":13961:13994   */\n      tag_101\n      jump\t// in\n    tag_305:\n        /* \"#utility.yul\":13857:14000   */\n      swap3\n      swap2\n      pop\n      pop\n      jump\t// out\n        /* \"#utility.yul\":14006:14357   */\n    tag_96:\n        /* \"#utility.yul\":14076:14082   */\n      0x00\n        /* \"#utility.yul\":14125:14127   */\n      0x20\n        /* \"#utility.yul\":14113:14122   */\n      dup3\n        /* \"#utility.yul\":14104:14111   */\n      dup5\n        /* \"#utility.yul\":14100:14123   */\n      sub\n        /* \"#utility.yul\":14096:14128   */\n      slt\n        /* \"#utility.yul\":14093:14212   */\n      iszero\n      tag_307\n      jumpi\n        /* \"#utility.yul\":14131:14210   */\n      tag_308\n      tag_98\n      jump\t// in\n    tag_308:\n        /* \"#utility.yul\":14093:14212   */\n    tag_307:\n        /* \"#utility.yul\":14251:14252   */\n      0x00\n        /* \"#utility.yul\":14276:14340   */\n      tag_309\n        /* \"#utility.yul\":14332:14339   */\n      dup5\n        /* \"#utility.yul\":14323:14329   */\n      dup3\n        /* \"#utility.yul\":14312:14321   */\n      dup6\n        /* \"#utility.yul\":14308:14330   */\n      add\n        /* \"#utility.yul\":14276:14340   */\n      tag_142\n      jump\t// in\n    tag_309:\n        /* \"#utility.yul\":14266:14340   */\n      swap2\n      pop\n        /* \"#utility.yul\":14222:14350   */\n      pop\n        /* \"#utility.yul\":14006:14357   */\n      swap3\n      swap2\n      pop\n      pop\n      jump\t// out\n    stop\n\n    sub_0: assembly {\n            /* \"contracts/SimpleStorage.sol\":66:1161  contract SimpleStorage {... */\n          mstore(0x40, 0x80)\n            /* \"contracts/SimpleStorage.sol\":136:137  7 */\n          0x07\n            /* \"contracts/SimpleStorage.sol\":111:137  uint256 favoriteNumber = 7 */\n          0x00\n          sstore\n            /* \"contracts/SimpleStorage.sol\":66:1161  contract SimpleStorage {... */\n          callvalue\n          dup1\n          iszero\n          tag_1\n          jumpi\n          0x00\n          dup1\n          revert\n        tag_1:\n          pop\n          dataSize(sub_0)\n          dup1\n          dataOffset(sub_0)\n          0x00\n          codecopy\n          0x00\n          return\n        stop\n\n        sub_0: assembly {\n                /* \"contracts/SimpleStorage.sol\":66:1161  contract SimpleStorage {... */\n              mstore(0x40, 0x80)\n              callvalue\n              dup1\n              iszero\n              tag_1\n              jumpi\n              0x00\n              dup1\n              revert\n            tag_1:\n              pop\n              jumpi(tag_2, lt(calldatasize, 0x04))\n              shr(0xe0, calldataload(0x00))\n              dup1\n              0x2e64cec1\n              eq\n              tag_3\n              jumpi\n              dup1\n              0x6057361d\n              eq\n              tag_4\n              jumpi\n              dup1\n              0x6f760f41\n              eq\n              tag_5\n              jumpi\n              dup1\n              0x8bab8dd5\n              eq\n              tag_6\n              jumpi\n              dup1\n              0x9e7a13ad\n              eq\n              tag_7\n              jumpi\n              dup1\n              0xb9c03b9a\n              eq\n              tag_8\n              jumpi\n            tag_2:\n              0x00\n              dup1\n              revert\n                /* \"contracts/SimpleStorage.sol\":474:562  function retrieve() public view returns (uint256) {... */\n            tag_3:\n              tag_9\n              tag_10\n              jump\t// in\n            tag_9:\n              mload(0x40)\n              tag_11\n              swap2\n              swap1\n              tag_12\n              jump\t// in\n            tag_11:\n              mload(0x40)\n              dup1\n              swap2\n              sub\n              swap1\n              return\n                /* \"contracts/SimpleStorage.sol\":372:468  function store(uint256 _favoriteNumber) public {... */\n            tag_4:\n              tag_13\n              0x04\n              dup1\n              calldatasize\n              sub\n              dup2\n              add\n              swap1\n              tag_14\n              swap2\n              swap1\n              tag_15\n              jump\t// in\n            tag_14:\n              tag_16\n              jump\t// in\n            tag_13:\n              stop\n                /* \"contracts/SimpleStorage.sol\":971:1159  function addPerson(string memory _name, uint256 _favoriteNumber) public {... */\n            tag_5:\n              tag_17\n              0x04\n              dup1\n              calldatasize\n              sub\n              dup2\n              add\n              swap1\n              tag_18\n              swap2\n              swap1\n              tag_19\n              jump\t// in\n            tag_18:\n              tag_20\n              jump\t// in\n            tag_17:\n              stop\n                /* \"contracts/SimpleStorage.sol\":883:937  mapping(string => uint256) public nameToFavoriteNumber */\n            tag_6:\n              tag_21\n              0x04\n              dup1\n              calldatasize\n              sub\n              dup2\n              add\n              swap1\n              tag_22\n              swap2\n              swap1\n              tag_23\n              jump\t// in\n            tag_22:\n              tag_24\n              jump\t// in\n            tag_21:\n              mload(0x40)\n              tag_25\n              swap2\n              swap1\n              tag_12\n              jump\t// in\n            tag_25:\n              mload(0x40)\n              dup1\n              swap2\n              sub\n              swap1\n              return\n                /* \"contracts/SimpleStorage.sol\":778:800  People[] public people */\n            tag_7:\n              tag_26\n              0x04\n              dup1\n              calldatasize\n              sub\n              dup2\n              add\n              swap1\n              tag_27\n              swap2\n              swap1\n              tag_15\n              jump\t// in\n            tag_27:\n              tag_28\n              jump\t// in\n            tag_26:\n              mload(0x40)\n              tag_29\n              swap3\n              swap2\n              swap1\n              tag_30\n              jump\t// in\n            tag_29:\n              mload(0x40)\n              dup1\n              swap2\n              sub\n              swap1\n              return\n                /* \"contracts/SimpleStorage.sol\":568:653  function pureFunction(uint256 _number) public pure {... */\n            tag_8:\n              tag_31\n              0x04\n              dup1\n              calldatasize\n              sub\n              dup2\n              add\n              swap1\n              tag_32\n              swap2\n              swap1\n              tag_15\n              jump\t// in\n            tag_32:\n              tag_33\n              jump\t// in\n            tag_31:\n              stop\n                /* \"contracts/SimpleStorage.sol\":474:562  function retrieve() public view returns (uint256) {... */\n            tag_10:\n                /* \"contracts/SimpleStorage.sol\":515:522  uint256 */\n              0x00\n                /* \"contracts/SimpleStorage.sol\":541:555  favoriteNumber */\n              dup1\n              sload\n                /* \"contracts/SimpleStorage.sol\":534:555  return favoriteNumber */\n              swap1\n              pop\n                /* \"contracts/SimpleStorage.sol\":474:562  function retrieve() public view returns (uint256) {... */\n              swap1\n              jump\t// out\n                /* \"contracts/SimpleStorage.sol\":372:468  function store(uint256 _favoriteNumber) public {... */\n            tag_16:\n                /* \"contracts/SimpleStorage.sol\":446:461  _favoriteNumber */\n              dup1\n                /* \"contracts/SimpleStorage.sol\":429:443  favoriteNumber */\n              0x00\n                /* \"contracts/SimpleStorage.sol\":429:461  favoriteNumber = _favoriteNumber */\n              dup2\n              swap1\n              sstore\n              pop\n                /* \"contracts/SimpleStorage.sol\":372:468  function store(uint256 _favoriteNumber) public {... */\n              pop\n              jump\t// out\n                /* \"contracts/SimpleStorage.sol\":971:1159  function addPerson(string memory _name, uint256 _favoriteNumber) public {... */\n            tag_20:\n                /* \"contracts/SimpleStorage.sol\":1053:1059  people */\n              0x01\n                /* \"contracts/SimpleStorage.sol\":1065:1095  People(_favoriteNumber, _name) */\n              mload(0x40)\n              dup1\n              0x40\n              add\n              0x40\n              mstore\n              dup1\n                /* \"contracts/SimpleStorage.sol\":1072:1087  _favoriteNumber */\n              dup4\n                /* \"contracts/SimpleStorage.sol\":1065:1095  People(_favoriteNumber, _name) */\n              dup2\n              mstore\n              0x20\n              add\n                /* \"contracts/SimpleStorage.sol\":1089:1094  _name */\n              dup5\n                /* \"contracts/SimpleStorage.sol\":1065:1095  People(_favoriteNumber, _name) */\n              dup2\n              mstore\n              pop\n                /* \"contracts/SimpleStorage.sol\":1053:1096  people.push(People(_favoriteNumber, _name)) */\n              swap1\n              dup1\n              0x01\n              dup2\n              sload\n              add\n              dup1\n              dup3\n              sstore\n              dup1\n              swap2\n              pop\n              pop\n              0x01\n              swap1\n              sub\n              swap1\n              0x00\n              mstore\n              keccak256(0x00, 0x20)\n              swap1\n              0x02\n              mul\n              add\n              0x00\n              swap1\n              swap2\n              swap1\n              swap2\n              swap1\n              swap2\n              pop\n              0x00\n              dup3\n              add\n              mload\n              dup2\n              0x00\n              add\n              sstore\n              0x20\n              dup3\n              add\n              mload\n              dup2\n              0x01\n              add\n              swap1\n              dup2\n              tag_38\n              swap2\n              swap1\n              tag_39\n              jump\t// in\n            tag_38:\n              pop\n              pop\n              pop\n                /* \"contracts/SimpleStorage.sol\":1137:1152  _favoriteNumber */\n              dup1\n                /* \"contracts/SimpleStorage.sol\":1107:1127  nameToFavoriteNumber */\n              0x02\n                /* \"contracts/SimpleStorage.sol\":1128:1133  _name */\n              dup4\n                /* \"contracts/SimpleStorage.sol\":1107:1134  nameToFavoriteNumber[_name] */\n              mload(0x40)\n              tag_40\n              swap2\n              swap1\n              tag_41\n              jump\t// in\n            tag_40:\n              swap1\n              dup2\n              mstore\n              0x20\n              add\n              mload(0x40)\n              dup1\n              swap2\n              sub\n              swap1\n              keccak256\n                /* \"contracts/SimpleStorage.sol\":1107:1152  nameToFavoriteNumber[_name] = _favoriteNumber */\n              dup2\n              swap1\n              sstore\n              pop\n                /* \"contracts/SimpleStorage.sol\":971:1159  function addPerson(string memory _name, uint256 _favoriteNumber) public {... */\n              pop\n              pop\n              jump\t// out\n                /* \"contracts/SimpleStorage.sol\":883:937  mapping(string => uint256) public nameToFavoriteNumber */\n            tag_24:\n              0x02\n              dup2\n              dup1\n              mload\n              0x20\n              dup2\n              add\n              dup3\n              add\n              dup1\n              mload\n              dup5\n              dup3\n              mstore\n              0x20\n              dup4\n              add\n              0x20\n              dup6\n              add\n              keccak256\n              dup2\n              dup4\n              mstore\n              dup1\n              swap6\n              pop\n              pop\n              pop\n              pop\n              pop\n              pop\n              0x00\n              swap2\n              pop\n              swap1\n              pop\n              sload\n              dup2\n              jump\t// out\n                /* \"contracts/SimpleStorage.sol\":778:800  People[] public people */\n            tag_28:\n              0x01\n              dup2\n              dup2\n              sload\n              dup2\n              lt\n              tag_42\n              jumpi\n              0x00\n              dup1\n              revert\n            tag_42:\n              swap1\n              0x00\n              mstore\n              keccak256(0x00, 0x20)\n              swap1\n              0x02\n              mul\n              add\n              0x00\n              swap2\n              pop\n              swap1\n              pop\n              dup1\n              0x00\n              add\n              sload\n              swap1\n              dup1\n              0x01\n              add\n              dup1\n              sload\n              tag_44\n              swap1\n              tag_45\n              jump\t// in\n            tag_44:\n              dup1\n              0x1f\n              add\n              0x20\n              dup1\n              swap2\n              div\n              mul\n              0x20\n              add\n              mload(0x40)\n              swap1\n              dup2\n              add\n              0x40\n              mstore\n              dup1\n              swap3\n              swap2\n              swap1\n              dup2\n              dup2\n              mstore\n              0x20\n              add\n              dup3\n              dup1\n              sload\n              tag_46\n              swap1\n              tag_45\n              jump\t// in\n            tag_46:\n              dup1\n              iszero\n              tag_47\n              jumpi\n              dup1\n              0x1f\n              lt\n              tag_48\n              jumpi\n              0x0100\n              dup1\n              dup4\n              sload\n              div\n              mul\n              dup4\n              mstore\n              swap2\n              0x20\n              add\n              swap2\n              jump(tag_47)\n            tag_48:\n              dup3\n              add\n              swap2\n              swap1\n              0x00\n              mstore\n              keccak256(0x00, 0x20)\n              swap1\n            tag_49:\n              dup2\n              sload\n              dup2\n              mstore\n              swap1\n              0x01\n              add\n              swap1\n              0x20\n              add\n              dup1\n              dup4\n              gt\n              tag_49\n              jumpi\n              dup3\n              swap1\n              sub\n              0x1f\n              and\n              dup3\n              add\n              swap2\n            tag_47:\n              pop\n              pop\n              pop\n              pop\n              pop\n              swap1\n              pop\n              dup3\n              jump\t// out\n                /* \"contracts/SimpleStorage.sol\":568:653  function pureFunction(uint256 _number) public pure {... */\n            tag_33:\n                /* \"contracts/SimpleStorage.sol\":639:646  _number */\n              dup1\n                /* \"contracts/SimpleStorage.sol\":629:636  _number */\n              dup2\n                /* \"contracts/SimpleStorage.sol\":629:646  _number + _number */\n              tag_51\n              swap2\n              swap1\n              tag_52\n              jump\t// in\n            tag_51:\n              pop\n                /* \"contracts/SimpleStorage.sol\":568:653  function pureFunction(uint256 _number) public pure {... */\n              pop\n              jump\t// out\n                /* \"#utility.yul\":7:84   */\n            tag_53:\n                /* \"#utility.yul\":44:51   */\n              0x00\n                /* \"#utility.yul\":73:78   */\n              dup2\n                /* \"#utility.yul\":62:78   */\n              swap1\n              pop\n                /* \"#utility.yul\":7:84   */\n              swap2\n              swap1\n              pop\n              jump\t// out\n                /* \"#utility.yul\":90:208   */\n            tag_54:\n                /* \"#utility.yul\":177:201   */\n              tag_96\n                /* \"#utility.yul\":195:200   */\n              dup2\n                /* \"#utility.yul\":177:201   */\n              tag_53\n              jump\t// in\n            tag_96:\n                /* \"#utility.yul\":172:175   */\n              dup3\n                /* \"#utility.yul\":165:202   */\n              mstore\n                /* \"#utility.yul\":90:208   */\n              pop\n              pop\n              jump\t// out\n                /* \"#utility.yul\":214:436   */\n            tag_12:\n                /* \"#utility.yul\":307:311   */\n              0x00\n                /* \"#utility.yul\":345:347   */\n              0x20\n                /* \"#utility.yul\":334:343   */\n              dup3\n                /* \"#utility.yul\":330:348   */\n              add\n                /* \"#utility.yul\":322:348   */\n              swap1\n              pop\n                /* \"#utility.yul\":358:429   */\n              tag_98\n                /* \"#utility.yul\":426:427   */\n              0x00\n                /* \"#utility.yul\":415:424   */\n              dup4\n                /* \"#utility.yul\":411:428   */\n              add\n                /* \"#utility.yul\":402:408   */\n              dup5\n                /* \"#utility.yul\":358:429   */\n              tag_54\n              jump\t// in\n            tag_98:\n                /* \"#utility.yul\":214:436   */\n              swap3\n              swap2\n              pop\n              pop\n              jump\t// out\n                /* \"#utility.yul\":442:517   */\n            tag_55:\n                /* \"#utility.yul\":475:481   */\n              0x00\n                /* \"#utility.yul\":508:510   */\n              0x40\n                /* \"#utility.yul\":502:511   */\n              mload\n                /* \"#utility.yul\":492:511   */\n              swap1\n              pop\n                /* \"#utility.yul\":442:517   */\n              swap1\n              jump\t// out\n                /* \"#utility.yul\":523:640   */\n            tag_56:\n                /* \"#utility.yul\":632:633   */\n              0x00\n                /* \"#utility.yul\":629:630   */\n              dup1\n                /* \"#utility.yul\":622:634   */\n              revert\n                /* \"#utility.yul\":646:763   */\n            tag_57:\n                /* \"#utility.yul\":755:756   */\n              0x00\n                /* \"#utility.yul\":752:753   */\n              dup1\n                /* \"#utility.yul\":745:757   */\n              revert\n                /* \"#utility.yul\":769:891   */\n            tag_58:\n                /* \"#utility.yul\":842:866   */\n              tag_103\n                /* \"#utility.yul\":860:865   */\n              dup2\n                /* \"#utility.yul\":842:866   */\n              tag_53\n              jump\t// in\n            tag_103:\n                /* \"#utility.yul\":835:840   */\n              dup2\n                /* \"#utility.yul\":832:867   */\n              eq\n                /* \"#utility.yul\":822:885   */\n              tag_104\n              jumpi\n                /* \"#utility.yul\":881:882   */\n              0x00\n                /* \"#utility.yul\":878:879   */\n              dup1\n                /* \"#utility.yul\":871:883   */\n              revert\n                /* \"#utility.yul\":822:885   */\n            tag_104:\n                /* \"#utility.yul\":769:891   */\n              pop\n              jump\t// out\n                /* \"#utility.yul\":897:1036   */\n            tag_59:\n                /* \"#utility.yul\":943:948   */\n              0x00\n                /* \"#utility.yul\":981:987   */\n              dup2\n                /* \"#utility.yul\":968:988   */\n              calldataload\n                /* \"#utility.yul\":959:988   */\n              swap1\n              pop\n                /* \"#utility.yul\":997:1030   */\n              tag_106\n                /* \"#utility.yul\":1024:1029   */\n              dup2\n                /* \"#utility.yul\":997:1030   */\n              tag_58\n              jump\t// in\n            tag_106:\n                /* \"#utility.yul\":897:1036   */\n              swap3\n              swap2\n              pop\n              pop\n              jump\t// out\n                /* \"#utility.yul\":1042:1371   */\n            tag_15:\n                /* \"#utility.yul\":1101:1107   */\n              0x00\n                /* \"#utility.yul\":1150:1152   */\n              0x20\n                /* \"#utility.yul\":1138:1147   */\n              dup3\n                /* \"#utility.yul\":1129:1136   */\n              dup5\n                /* \"#utility.yul\":1125:1148   */\n              sub\n                /* \"#utility.yul\":1121:1153   */\n              slt\n                /* \"#utility.yul\":1118:1237   */\n              iszero\n              tag_108\n              jumpi\n                /* \"#utility.yul\":1156:1235   */\n              tag_109\n              tag_56\n              jump\t// in\n            tag_109:\n                /* \"#utility.yul\":1118:1237   */\n            tag_108:\n                /* \"#utility.yul\":1276:1277   */\n              0x00\n                /* \"#utility.yul\":1301:1354   */\n              tag_110\n                /* \"#utility.yul\":1346:1353   */\n              dup5\n                /* \"#utility.yul\":1337:1343   */\n              dup3\n                /* \"#utility.yul\":1326:1335   */\n              dup6\n                /* \"#utility.yul\":1322:1344   */\n              add\n                /* \"#utility.yul\":1301:1354   */\n              tag_59\n              jump\t// in\n            tag_110:\n                /* \"#utility.yul\":1291:1354   */\n              swap2\n              pop\n                /* \"#utility.yul\":1247:1364   */\n              pop\n                /* \"#utility.yul\":1042:1371   */\n              swap3\n              swap2\n              pop\n              pop\n              jump\t// out\n                /* \"#utility.yul\":1377:1494   */\n            tag_60:\n                /* \"#utility.yul\":1486:1487   */\n              0x00\n                /* \"#utility.yul\":1483:1484   */\n              dup1\n                /* \"#utility.yul\":1476:1488   */\n              revert\n                /* \"#utility.yul\":1500:1617   */\n            tag_61:\n                /* \"#utility.yul\":1609:1610   */\n              0x00\n                /* \"#utility.yul\":1606:1607   */\n              dup1\n                /* \"#utility.yul\":1599:1611   */\n              revert\n                /* \"#utility.yul\":1623:1725   */\n            tag_62:\n                /* \"#utility.yul\":1664:1670   */\n              0x00\n                /* \"#utility.yul\":1715:1717   */\n              0x1f\n                /* \"#utility.yul\":1711:1718   */\n              not\n                /* \"#utility.yul\":1706:1708   */\n              0x1f\n                /* \"#utility.yul\":1699:1704   */\n              dup4\n                /* \"#utility.yul\":1695:1709   */\n              add\n                /* \"#utility.yul\":1691:1719   */\n              and\n                /* \"#utility.yul\":1681:1719   */\n              swap1\n              pop\n                /* \"#utility.yul\":1623:1725   */\n              swap2\n              swap1\n              pop\n              jump\t// out\n                /* \"#utility.yul\":1731:1911   */\n            tag_63:\n                /* \"#utility.yul\":1779:1856   */\n              0x4e487b7100000000000000000000000000000000000000000000000000000000\n                /* \"#utility.yul\":1776:1777   */\n              0x00\n                /* \"#utility.yul\":1769:1857   */\n              mstore\n                /* \"#utility.yul\":1876:1880   */\n              0x41\n                /* \"#utility.yul\":1873:1874   */\n              0x04\n                /* \"#utility.yul\":1866:1881   */\n              mstore\n                /* \"#utility.yul\":1900:1904   */\n              0x24\n                /* \"#utility.yul\":1897:1898   */\n              0x00\n                /* \"#utility.yul\":1890:1905   */\n              revert\n                /* \"#utility.yul\":1917:2198   */\n            tag_64:\n                /* \"#utility.yul\":2000:2027   */\n              tag_116\n                /* \"#utility.yul\":2022:2026   */\n              dup3\n                /* \"#utility.yul\":2000:2027   */\n              tag_62\n              jump\t// in\n            tag_116:\n                /* \"#utility.yul\":1992:1998   */\n              dup2\n                /* \"#utility.yul\":1988:2028   */\n              add\n                /* \"#utility.yul\":2130:2136   */\n              dup2\n                /* \"#utility.yul\":2118:2128   */\n              dup2\n                /* \"#utility.yul\":2115:2137   */\n              lt\n                /* \"#utility.yul\":2094:2112   */\n              0xffffffffffffffff\n                /* \"#utility.yul\":2082:2092   */\n              dup3\n                /* \"#utility.yul\":2079:2113   */\n              gt\n                /* \"#utility.yul\":2076:2138   */\n              or\n                /* \"#utility.yul\":2073:2161   */\n              iszero\n              tag_117\n              jumpi\n                /* \"#utility.yul\":2141:2159   */\n              tag_118\n              tag_63\n              jump\t// in\n            tag_118:\n                /* \"#utility.yul\":2073:2161   */\n            tag_117:\n                /* \"#utility.yul\":2181:2191   */\n              dup1\n                /* \"#utility.yul\":2177:2179   */\n              0x40\n                /* \"#utility.yul\":2170:2192   */\n              mstore\n                /* \"#utility.yul\":1960:2198   */\n              pop\n                /* \"#utility.yul\":1917:2198   */\n              pop\n              pop\n              jump\t// out\n                /* \"#utility.yul\":2204:2333   */\n            tag_65:\n                /* \"#utility.yul\":2238:2244   */\n              0x00\n                /* \"#utility.yul\":2265:2285   */\n              tag_120\n              tag_55\n              jump\t// in\n            tag_120:\n                /* \"#utility.yul\":2255:2285   */\n              swap1\n              pop\n                /* \"#utility.yul\":2294:2327   */\n              tag_121\n                /* \"#utility.yul\":2322:2326   */\n              dup3\n                /* \"#utility.yul\":2314:2320   */\n              dup3\n                /* \"#utility.yul\":2294:2327   */\n              tag_64\n              jump\t// in\n            tag_121:\n                /* \"#utility.yul\":2204:2333   */\n              swap2\n              swap1\n              pop\n              jump\t// out\n                /* \"#utility.yul\":2339:2647   */\n            tag_66:\n                /* \"#utility.yul\":2401:2405   */\n              0x00\n                /* \"#utility.yul\":2491:2509   */\n              0xffffffffffffffff\n                /* \"#utility.yul\":2483:2489   */\n              dup3\n                /* \"#utility.yul\":2480:2510   */\n              gt\n                /* \"#utility.yul\":2477:2533   */\n              iszero\n              tag_123\n              jumpi\n                /* \"#utility.yul\":2513:2531   */\n              tag_124\n              tag_63\n              jump\t// in\n            tag_124:\n                /* \"#utility.yul\":2477:2533   */\n            tag_123:\n                /* \"#utility.yul\":2551:2580   */\n              tag_125\n                /* \"#utility.yul\":2573:2579   */\n              dup3\n                /* \"#utility.yul\":2551:2580   */\n              tag_62\n              jump\t// in\n            tag_125:\n                /* \"#utility.yul\":2543:2580   */\n              swap1\n              pop\n                /* \"#utility.yul\":2635:2639   */\n              0x20\n                /* \"#utility.yul\":2629:2633   */\n              dup2\n                /* \"#utility.yul\":2625:2640   */\n              add\n                /* \"#utility.yul\":2617:2640   */\n              swap1\n              pop\n                /* \"#utility.yul\":2339:2647   */\n              swap2\n              swap1\n              pop\n              jump\t// out\n                /* \"#utility.yul\":2653:2799   */\n            tag_67:\n                /* \"#utility.yul\":2750:2756   */\n              dup3\n                /* \"#utility.yul\":2745:2748   */\n              dup2\n                /* \"#utility.yul\":2740:2743   */\n              dup4\n                /* \"#utility.yul\":2727:2757   */\n              calldatacopy\n                /* \"#utility.yul\":2791:2792   */\n              0x00\n                /* \"#utility.yul\":2782:2788   */\n              dup4\n                /* \"#utility.yul\":2777:2780   */\n              dup4\n                /* \"#utility.yul\":2773:2789   */\n              add\n                /* \"#utility.yul\":2766:2793   */\n              mstore\n                /* \"#utility.yul\":2653:2799   */\n              pop\n              pop\n              pop\n              jump\t// out\n                /* \"#utility.yul\":2805:3230   */\n            tag_68:\n                /* \"#utility.yul\":2883:2888   */\n              0x00\n                /* \"#utility.yul\":2908:2974   */\n              tag_128\n                /* \"#utility.yul\":2924:2973   */\n              tag_129\n                /* \"#utility.yul\":2966:2972   */\n              dup5\n                /* \"#utility.yul\":2924:2973   */\n              tag_66\n              jump\t// in\n            tag_129:\n                /* \"#utility.yul\":2908:2974   */\n              tag_65\n              jump\t// in\n            tag_128:\n                /* \"#utility.yul\":2899:2974   */\n              swap1\n              pop\n                /* \"#utility.yul\":2997:3003   */\n              dup3\n                /* \"#utility.yul\":2990:2995   */\n              dup2\n                /* \"#utility.yul\":2983:3004   */\n              mstore\n                /* \"#utility.yul\":3035:3039   */\n              0x20\n                /* \"#utility.yul\":3028:3033   */\n              dup2\n                /* \"#utility.yul\":3024:3040   */\n              add\n                /* \"#utility.yul\":3073:3076   */\n              dup5\n                /* \"#utility.yul\":3064:3070   */\n              dup5\n                /* \"#utility.yul\":3059:3062   */\n              dup5\n                /* \"#utility.yul\":3055:3071   */\n              add\n                /* \"#utility.yul\":3052:3077   */\n              gt\n                /* \"#utility.yul\":3049:3161   */\n              iszero\n              tag_130\n              jumpi\n                /* \"#utility.yul\":3080:3159   */\n              tag_131\n              tag_61\n              jump\t// in\n            tag_131:\n                /* \"#utility.yul\":3049:3161   */\n            tag_130:\n                /* \"#utility.yul\":3170:3224   */\n              tag_132\n                /* \"#utility.yul\":3217:3223   */\n              dup5\n                /* \"#utility.yul\":3212:3215   */\n              dup3\n                /* \"#utility.yul\":3207:3210   */\n              dup6\n                /* \"#utility.yul\":3170:3224   */\n              tag_67\n              jump\t// in\n            tag_132:\n                /* \"#utility.yul\":2889:3230   */\n              pop\n                /* \"#utility.yul\":2805:3230   */\n              swap4\n              swap3\n              pop\n              pop\n              pop\n              jump\t// out\n                /* \"#utility.yul\":3250:3590   */\n            tag_69:\n                /* \"#utility.yul\":3306:3311   */\n              0x00\n                /* \"#utility.yul\":3355:3358   */\n              dup3\n                /* \"#utility.yul\":3348:3352   */\n              0x1f\n                /* \"#utility.yul\":3340:3346   */\n              dup4\n                /* \"#utility.yul\":3336:3353   */\n              add\n                /* \"#utility.yul\":3332:3359   */\n              slt\n                /* \"#utility.yul\":3322:3444   */\n              tag_134\n              jumpi\n                /* \"#utility.yul\":3363:3442   */\n              tag_135\n              tag_60\n              jump\t// in\n            tag_135:\n                /* \"#utility.yul\":3322:3444   */\n            tag_134:\n                /* \"#utility.yul\":3480:3486   */\n              dup2\n                /* \"#utility.yul\":3467:3487   */\n              calldataload\n                /* \"#utility.yul\":3505:3584   */\n              tag_136\n                /* \"#utility.yul\":3580:3583   */\n              dup5\n                /* \"#utility.yul\":3572:3578   */\n              dup3\n                /* \"#utility.yul\":3565:3569   */\n              0x20\n                /* \"#utility.yul\":3557:3563   */\n              dup7\n                /* \"#utility.yul\":3553:3570   */\n              add\n                /* \"#utility.yul\":3505:3584   */\n              tag_68\n              jump\t// in\n            tag_136:\n                /* \"#utility.yul\":3496:3584   */\n              swap2\n              pop\n                /* \"#utility.yul\":3312:3590   */\n              pop\n                /* \"#utility.yul\":3250:3590   */\n              swap3\n              swap2\n              pop\n              pop\n              jump\t// out\n                /* \"#utility.yul\":3596:4250   */\n            tag_19:\n                /* \"#utility.yul\":3674:3680   */\n              0x00\n                /* \"#utility.yul\":3682:3688   */\n              dup1\n                /* \"#utility.yul\":3731:3733   */\n              0x40\n                /* \"#utility.yul\":3719:3728   */\n              dup4\n                /* \"#utility.yul\":3710:3717   */\n              dup6\n                /* \"#utility.yul\":3706:3729   */\n              sub\n                /* \"#utility.yul\":3702:3734   */\n              slt\n                /* \"#utility.yul\":3699:3818   */\n              iszero\n              tag_138\n              jumpi\n                /* \"#utility.yul\":3737:3816   */\n              tag_139\n              tag_56\n              jump\t// in\n            tag_139:\n                /* \"#utility.yul\":3699:3818   */\n            tag_138:\n                /* \"#utility.yul\":3885:3886   */\n              0x00\n                /* \"#utility.yul\":3874:3883   */\n              dup4\n                /* \"#utility.yul\":3870:3887   */\n              add\n                /* \"#utility.yul\":3857:3888   */\n              calldataload\n                /* \"#utility.yul\":3915:3933   */\n              0xffffffffffffffff\n                /* \"#utility.yul\":3907:3913   */\n              dup2\n                /* \"#utility.yul\":3904:3934   */\n              gt\n                /* \"#utility.yul\":3901:4018   */\n              iszero\n              tag_140\n              jumpi\n                /* \"#utility.yul\":3937:4016   */\n              tag_141\n              tag_57\n              jump\t// in\n            tag_141:\n                /* \"#utility.yul\":3901:4018   */\n            tag_140:\n                /* \"#utility.yul\":4042:4105   */\n              tag_142\n                /* \"#utility.yul\":4097:4104   */\n              dup6\n                /* \"#utility.yul\":4088:4094   */\n              dup3\n                /* \"#utility.yul\":4077:4086   */\n              dup7\n                /* \"#utility.yul\":4073:4095   */\n              add\n                /* \"#utility.yul\":4042:4105   */\n              tag_69\n              jump\t// in\n            tag_142:\n                /* \"#utility.yul\":4032:4105   */\n              swap3\n              pop\n                /* \"#utility.yul\":3828:4115   */\n              pop\n                /* \"#utility.yul\":4154:4156   */\n              0x20\n                /* \"#utility.yul\":4180:4233   */\n              tag_143\n                /* \"#utility.yul\":4225:4232   */\n              dup6\n                /* \"#utility.yul\":4216:4222   */\n              dup3\n                /* \"#utility.yul\":4205:4214   */\n              dup7\n                /* \"#utility.yul\":4201:4223   */\n              add\n                /* \"#utility.yul\":4180:4233   */\n              tag_59\n              jump\t// in\n            tag_143:\n                /* \"#utility.yul\":4170:4233   */\n              swap2\n              pop\n                /* \"#utility.yul\":4125:4243   */\n              pop\n                /* \"#utility.yul\":3596:4250   */\n              swap3\n              pop\n              swap3\n              swap1\n              pop\n              jump\t// out\n                /* \"#utility.yul\":4256:4765   */\n            tag_23:\n                /* \"#utility.yul\":4325:4331   */\n              0x00\n                /* \"#utility.yul\":4374:4376   */\n              0x20\n                /* \"#utility.yul\":4362:4371   */\n              dup3\n                /* \"#utility.yul\":4353:4360   */\n              dup5\n                /* \"#utility.yul\":4349:4372   */\n              sub\n                /* \"#utility.yul\":4345:4377   */\n              slt\n                /* \"#utility.yul\":4342:4461   */\n              iszero\n              tag_145\n              jumpi\n                /* \"#utility.yul\":4380:4459   */\n              tag_146\n              tag_56\n              jump\t// in\n            tag_146:\n                /* \"#utility.yul\":4342:4461   */\n            tag_145:\n                /* \"#utility.yul\":4528:4529   */\n              0x00\n                /* \"#utility.yul\":4517:4526   */\n              dup3\n                /* \"#utility.yul\":4513:4530   */\n              add\n                /* \"#utility.yul\":4500:4531   */\n              calldataload\n                /* \"#utility.yul\":4558:4576   */\n              0xffffffffffffffff\n                /* \"#utility.yul\":4550:4556   */\n              dup2\n                /* \"#utility.yul\":4547:4577   */\n              gt\n                /* \"#utility.yul\":4544:4661   */\n              iszero\n              tag_147\n              jumpi\n                /* \"#utility.yul\":4580:4659   */\n              tag_148\n              tag_57\n              jump\t// in\n            tag_148:\n                /* \"#utility.yul\":4544:4661   */\n            tag_147:\n                /* \"#utility.yul\":4685:4748   */\n              tag_149\n                /* \"#utility.yul\":4740:4747   */\n              dup5\n                /* \"#utility.yul\":4731:4737   */\n              dup3\n                /* \"#utility.yul\":4720:4729   */\n              dup6\n                /* \"#utility.yul\":4716:4738   */\n              add\n                /* \"#utility.yul\":4685:4748   */\n              tag_69\n              jump\t// in\n            tag_149:\n                /* \"#utility.yul\":4675:4748   */\n              swap2\n              pop\n                /* \"#utility.yul\":4471:4758   */\n              pop\n                /* \"#utility.yul\":4256:4765   */\n              swap3\n              swap2\n              pop\n              pop\n              jump\t// out\n                /* \"#utility.yul\":4771:4870   */\n            tag_70:\n                /* \"#utility.yul\":4823:4829   */\n              0x00\n                /* \"#utility.yul\":4857:4862   */\n              dup2\n                /* \"#utility.yul\":4851:4863   */\n              mload\n                /* \"#utility.yul\":4841:4863   */\n              swap1\n              pop\n                /* \"#utility.yul\":4771:4870   */\n              swap2\n              swap1\n              pop\n              jump\t// out\n                /* \"#utility.yul\":4876:5045   */\n            tag_71:\n                /* \"#utility.yul\":4960:4971   */\n              0x00\n                /* \"#utility.yul\":4994:5000   */\n              dup3\n                /* \"#utility.yul\":4989:4992   */\n              dup3\n                /* \"#utility.yul\":4982:5001   */\n              mstore\n                /* \"#utility.yul\":5034:5038   */\n              0x20\n                /* \"#utility.yul\":5029:5032   */\n              dup3\n                /* \"#utility.yul\":5025:5039   */\n              add\n                /* \"#utility.yul\":5010:5039   */\n              swap1\n              pop\n                /* \"#utility.yul\":4876:5045   */\n              swap3\n              swap2\n              pop\n              pop\n              jump\t// out\n                /* \"#utility.yul\":5051:5297   */\n            tag_72:\n                /* \"#utility.yul\":5132:5133   */\n              0x00\n                /* \"#utility.yul\":5142:5255   */\n            tag_153:\n                /* \"#utility.yul\":5156:5162   */\n              dup4\n                /* \"#utility.yul\":5153:5154   */\n              dup2\n                /* \"#utility.yul\":5150:5163   */\n              lt\n                /* \"#utility.yul\":5142:5255   */\n              iszero\n              tag_155\n              jumpi\n                /* \"#utility.yul\":5241:5242   */\n              dup1\n                /* \"#utility.yul\":5236:5239   */\n              dup3\n                /* \"#utility.yul\":5232:5243   */\n              add\n                /* \"#utility.yul\":5226:5244   */\n              mload\n                /* \"#utility.yul\":5222:5223   */\n              dup2\n                /* \"#utility.yul\":5217:5220   */\n              dup5\n                /* \"#utility.yul\":5213:5224   */\n              add\n                /* \"#utility.yul\":5206:5245   */\n              mstore\n                /* \"#utility.yul\":5178:5180   */\n              0x20\n                /* \"#utility.yul\":5175:5176   */\n              dup2\n                /* \"#utility.yul\":5171:5181   */\n              add\n                /* \"#utility.yul\":5166:5181   */\n              swap1\n              pop\n                /* \"#utility.yul\":5142:5255   */\n              jump(tag_153)\n            tag_155:\n                /* \"#utility.yul\":5289:5290   */\n              0x00\n                /* \"#utility.yul\":5280:5286   */\n              dup5\n                /* \"#utility.yul\":5275:5278   */\n              dup5\n                /* \"#utility.yul\":5271:5287   */\n              add\n                /* \"#utility.yul\":5264:5291   */\n              mstore\n                /* \"#utility.yul\":5113:5297   */\n              pop\n                /* \"#utility.yul\":5051:5297   */\n              pop\n              pop\n              pop\n              jump\t// out\n                /* \"#utility.yul\":5303:5680   */\n            tag_73:\n                /* \"#utility.yul\":5391:5394   */\n              0x00\n                /* \"#utility.yul\":5419:5458   */\n              tag_157\n                /* \"#utility.yul\":5452:5457   */\n              dup3\n                /* \"#utility.yul\":5419:5458   */\n              tag_70\n              jump\t// in\n            tag_157:\n                /* \"#utility.yul\":5474:5545   */\n              tag_158\n                /* \"#utility.yul\":5538:5544   */\n              dup2\n                /* \"#utility.yul\":5533:5536   */\n              dup6\n                /* \"#utility.yul\":5474:5545   */\n              tag_71\n              jump\t// in\n            tag_158:\n                /* \"#utility.yul\":5467:5545   */\n              swap4\n              pop\n                /* \"#utility.yul\":5554:5619   */\n              tag_159\n                /* \"#utility.yul\":5612:5618   */\n              dup2\n                /* \"#utility.yul\":5607:5610   */\n              dup6\n                /* \"#utility.yul\":5600:5604   */\n              0x20\n                /* \"#utility.yul\":5593:5598   */\n              dup7\n                /* \"#utility.yul\":5589:5605   */\n              add\n                /* \"#utility.yul\":5554:5619   */\n              tag_72\n              jump\t// in\n            tag_159:\n                /* \"#utility.yul\":5644:5673   */\n              tag_160\n                /* \"#utility.yul\":5666:5672   */\n              dup2\n                /* \"#utility.yul\":5644:5673   */\n              tag_62\n              jump\t// in\n            tag_160:\n                /* \"#utility.yul\":5639:5642   */\n              dup5\n                /* \"#utility.yul\":5635:5674   */\n              add\n                /* \"#utility.yul\":5628:5674   */\n              swap2\n              pop\n                /* \"#utility.yul\":5395:5680   */\n              pop\n                /* \"#utility.yul\":5303:5680   */\n              swap3\n              swap2\n              pop\n              pop\n              jump\t// out\n                /* \"#utility.yul\":5686:6109   */\n            tag_30:\n                /* \"#utility.yul\":5827:5831   */\n              0x00\n                /* \"#utility.yul\":5865:5867   */\n              0x40\n                /* \"#utility.yul\":5854:5863   */\n              dup3\n                /* \"#utility.yul\":5850:5868   */\n              add\n                /* \"#utility.yul\":5842:5868   */\n              swap1\n              pop\n                /* \"#utility.yul\":5878:5949   */\n              tag_162\n                /* \"#utility.yul\":5946:5947   */\n              0x00\n                /* \"#utility.yul\":5935:5944   */\n              dup4\n                /* \"#utility.yul\":5931:5948   */\n              add\n                /* \"#utility.yul\":5922:5928   */\n              dup6\n                /* \"#utility.yul\":5878:5949   */\n              tag_54\n              jump\t// in\n            tag_162:\n                /* \"#utility.yul\":5996:6005   */\n              dup2\n                /* \"#utility.yul\":5990:5994   */\n              dup2\n                /* \"#utility.yul\":5986:6006   */\n              sub\n                /* \"#utility.yul\":5981:5983   */\n              0x20\n                /* \"#utility.yul\":5970:5979   */\n              dup4\n                /* \"#utility.yul\":5966:5984   */\n              add\n                /* \"#utility.yul\":5959:6007   */\n              mstore\n                /* \"#utility.yul\":6024:6102   */\n              tag_163\n                /* \"#utility.yul\":6097:6101   */\n              dup2\n                /* \"#utility.yul\":6088:6094   */\n              dup5\n                /* \"#utility.yul\":6024:6102   */\n              tag_73\n              jump\t// in\n            tag_163:\n                /* \"#utility.yul\":6016:6102   */\n              swap1\n              pop\n                /* \"#utility.yul\":5686:6109   */\n              swap4\n              swap3\n              pop\n              pop\n              pop\n              jump\t// out\n                /* \"#utility.yul\":6115:6295   */\n            tag_74:\n                /* \"#utility.yul\":6163:6240   */\n              0x4e487b7100000000000000000000000000000000000000000000000000000000\n                /* \"#utility.yul\":6160:6161   */\n              0x00\n                /* \"#utility.yul\":6153:6241   */\n              mstore\n                /* \"#utility.yul\":6260:6264   */\n              0x22\n                /* \"#utility.yul\":6257:6258   */\n              0x04\n                /* \"#utility.yul\":6250:6265   */\n              mstore\n                /* \"#utility.yul\":6284:6288   */\n              0x24\n                /* \"#utility.yul\":6281:6282   */\n              0x00\n                /* \"#utility.yul\":6274:6289   */\n              revert\n                /* \"#utility.yul\":6301:6621   */\n            tag_45:\n                /* \"#utility.yul\":6345:6351   */\n              0x00\n                /* \"#utility.yul\":6382:6383   */\n              0x02\n                /* \"#utility.yul\":6376:6380   */\n              dup3\n                /* \"#utility.yul\":6372:6384   */\n              div\n                /* \"#utility.yul\":6362:6384   */\n              swap1\n              pop\n                /* \"#utility.yul\":6429:6430   */\n              0x01\n                /* \"#utility.yul\":6423:6427   */\n              dup3\n                /* \"#utility.yul\":6419:6431   */\n              and\n                /* \"#utility.yul\":6450:6468   */\n              dup1\n                /* \"#utility.yul\":6440:6521   */\n              tag_166\n              jumpi\n                /* \"#utility.yul\":6506:6510   */\n              0x7f\n                /* \"#utility.yul\":6498:6504   */\n              dup3\n                /* \"#utility.yul\":6494:6511   */\n              and\n                /* \"#utility.yul\":6484:6511   */\n              swap2\n              pop\n                /* \"#utility.yul\":6440:6521   */\n            tag_166:\n                /* \"#utility.yul\":6568:6570   */\n              0x20\n                /* \"#utility.yul\":6560:6566   */\n              dup3\n                /* \"#utility.yul\":6557:6571   */\n              lt\n                /* \"#utility.yul\":6537:6555   */\n              dup2\n                /* \"#utility.yul\":6534:6572   */\n              sub\n                /* \"#utility.yul\":6531:6615   */\n              tag_167\n              jumpi\n                /* \"#utility.yul\":6587:6605   */\n              tag_168\n              tag_74\n              jump\t// in\n            tag_168:\n                /* \"#utility.yul\":6531:6615   */\n            tag_167:\n                /* \"#utility.yul\":6352:6621   */\n              pop\n                /* \"#utility.yul\":6301:6621   */\n              swap2\n              swap1\n              pop\n              jump\t// out\n                /* \"#utility.yul\":6627:6768   */\n            tag_75:\n                /* \"#utility.yul\":6676:6680   */\n              0x00\n                /* \"#utility.yul\":6699:6702   */\n              dup2\n                /* \"#utility.yul\":6691:6702   */\n              swap1\n              pop\n                /* \"#utility.yul\":6722:6725   */\n              dup2\n                /* \"#utility.yul\":6719:6720   */\n              0x00\n                /* \"#utility.yul\":6712:6726   */\n              mstore\n                /* \"#utility.yul\":6756:6760   */\n              0x20\n                /* \"#utility.yul\":6753:6754   */\n              0x00\n                /* \"#utility.yul\":6743:6761   */\n              keccak256\n                /* \"#utility.yul\":6735:6761   */\n              swap1\n              pop\n                /* \"#utility.yul\":6627:6768   */\n              swap2\n              swap1\n              pop\n              jump\t// out\n                /* \"#utility.yul\":6774:6867   */\n            tag_76:\n                /* \"#utility.yul\":6811:6817   */\n              0x00\n                /* \"#utility.yul\":6858:6860   */\n              0x20\n                /* \"#utility.yul\":6853:6855   */\n              0x1f\n                /* \"#utility.yul\":6846:6851   */\n              dup4\n                /* \"#utility.yul\":6842:6856   */\n              add\n                /* \"#utility.yul\":6838:6861   */\n              div\n                /* \"#utility.yul\":6828:6861   */\n              swap1\n              pop\n                /* \"#utility.yul\":6774:6867   */\n              swap2\n              swap1\n              pop\n              jump\t// out\n                /* \"#utility.yul\":6873:6980   */\n            tag_77:\n                /* \"#utility.yul\":6917:6925   */\n              0x00\n                /* \"#utility.yul\":6967:6972   */\n              dup3\n                /* \"#utility.yul\":6961:6965   */\n              dup3\n                /* \"#utility.yul\":6957:6973   */\n              shl\n                /* \"#utility.yul\":6936:6973   */\n              swap1\n              pop\n                /* \"#utility.yul\":6873:6980   */\n              swap3\n              swap2\n              pop\n              pop\n              jump\t// out\n                /* \"#utility.yul\":6986:7379   */\n            tag_78:\n                /* \"#utility.yul\":7055:7061   */\n              0x00\n                /* \"#utility.yul\":7105:7106   */\n              0x08\n                /* \"#utility.yul\":7093:7103   */\n              dup4\n                /* \"#utility.yul\":7089:7107   */\n              mul\n                /* \"#utility.yul\":7128:7225   */\n              tag_173\n                /* \"#utility.yul\":7158:7224   */\n              0xffffffffffffffffffffffffffffffffffffffffffffffffffffffffffffffff\n                /* \"#utility.yul\":7147:7156   */\n              dup3\n                /* \"#utility.yul\":7128:7225   */\n              tag_77\n              jump\t// in\n            tag_173:\n                /* \"#utility.yul\":7246:7285   */\n              tag_174\n                /* \"#utility.yul\":7276:7284   */\n              dup7\n                /* \"#utility.yul\":7265:7274   */\n              dup4\n                /* \"#utility.yul\":7246:7285   */\n              tag_77\n              jump\t// in\n            tag_174:\n                /* \"#utility.yul\":7234:7285   */\n              swap6\n              pop\n                /* \"#utility.yul\":7318:7322   */\n              dup1\n                /* \"#utility.yul\":7314:7323   */\n              not\n                /* \"#utility.yul\":7307:7312   */\n              dup5\n                /* \"#utility.yul\":7303:7324   */\n              and\n                /* \"#utility.yul\":7294:7324   */\n              swap4\n              pop\n                /* \"#utility.yul\":7367:7371   */\n              dup1\n                /* \"#utility.yul\":7357:7365   */\n              dup7\n                /* \"#utility.yul\":7353:7372   */\n              and\n                /* \"#utility.yul\":7346:7351   */\n              dup5\n                /* \"#utility.yul\":7343:7373   */\n              or\n                /* \"#utility.yul\":7333:7373   */\n              swap3\n              pop\n                /* \"#utility.yul\":7062:7379   */\n              pop\n              pop\n                /* \"#utility.yul\":6986:7379   */\n              swap4\n              swap3\n              pop\n              pop\n              pop\n              jump\t// out\n                /* \"#utility.yul\":7385:7445   */\n            tag_79:\n                /* \"#utility.yul\":7413:7416   */\n              0x00\n                /* \"#utility.yul\":7434:7439   */\n              dup2\n                /* \"#utility.yul\":7427:7439   */\n              swap1\n              pop\n                /* \"#utility.yul\":7385:7445   */\n              swap2\n              swap1\n              pop\n              jump\t// out\n                /* \"#utility.yul\":7451:7593   */\n            tag_80:\n                /* \"#utility.yul\":7501:7510   */\n              0x00\n                /* \"#utility.yul\":7534:7587   */\n              tag_177\n                /* \"#utility.yul\":7552:7586   */\n              tag_178\n                /* \"#utility.yul\":7561:7585   */\n              tag_179\n                /* \"#utility.yul\":7579:7584   */\n              dup5\n                /* \"#utility.yul\":7561:7585   */\n              tag_53\n              jump\t// in\n            tag_179:\n                /* \"#utility.yul\":7552:7586   */\n              tag_79\n              jump\t// in\n            tag_178:\n                /* \"#utility.yul\":7534:7587   */\n              tag_53\n              jump\t// in\n            tag_177:\n                /* \"#utility.yul\":7521:7587   */\n              swap1\n              pop\n                /* \"#utility.yul\":7451:7593   */\n              swap2\n              swap1\n              pop\n              jump\t// out\n                /* \"#utility.yul\":7599:7674   */\n            tag_81:\n                /* \"#utility.yul\":7642:7645   */\n              0x00\n                /* \"#utility.yul\":7663:7668   */\n              dup2\n                /* \"#utility.yul\":7656:7668   */\n              swap1\n              pop\n                /* \"#utility.yul\":7599:7674   */\n              swap2\n              swap1\n              pop\n              jump\t// out\n                /* \"#utility.yul\":7680:7949   */\n            tag_82:\n                /* \"#utility.yul\":7790:7829   */\n              tag_182\n                /* \"#utility.yul\":7821:7828   */\n              dup4\n                /* \"#utility.yul\":7790:7829   */\n              tag_80\n              jump\t// in\n            tag_182:\n                /* \"#utility.yul\":7851:7942   */\n              tag_183\n                /* \"#utility.yul\":7900:7941   */\n              tag_184\n                /* \"#utility.yul\":7924:7940   */\n              dup3\n                /* \"#utility.yul\":7900:7941   */\n              tag_81\n              jump\t// in\n            tag_184:\n                /* \"#utility.yul\":7892:7898   */\n              dup5\n                /* \"#utility.yul\":7885:7889   */\n              dup5\n                /* \"#utility.yul\":7879:7890   */\n              sload\n                /* \"#utility.yul\":7851:7942   */\n              tag_78\n              jump\t// in\n            tag_183:\n                /* \"#utility.yul\":7845:7849   */\n              dup3\n                /* \"#utility.yul\":7838:7943   */\n              sstore\n                /* \"#utility.yul\":7756:7949   */\n              pop\n                /* \"#utility.yul\":7680:7949   */\n              pop\n              pop\n              pop\n              jump\t// out\n                /* \"#utility.yul\":7955:8028   */\n            tag_83:\n                /* \"#utility.yul\":8000:8003   */\n              0x00\n                /* \"#utility.yul\":7955:8028   */\n              swap1\n              jump\t// out\n                /* \"#utility.yul\":8034:8223   */\n            tag_84:\n                /* \"#utility.yul\":8111:8143   */\n              tag_187\n              tag_83\n              jump\t// in\n            tag_187:\n                /* \"#utility.yul\":8152:8217   */\n              tag_188\n                /* \"#utility.yul\":8210:8216   */\n              dup2\n                /* \"#utility.yul\":8202:8208   */\n              dup5\n                /* \"#utility.yul\":8196:8200   */\n              dup5\n                /* \"#utility.yul\":8152:8217   */\n              tag_82\n              jump\t// in\n            tag_188:\n                /* \"#utility.yul\":8087:8223   */\n              pop\n                /* \"#utility.yul\":8034:8223   */\n              pop\n              pop\n              jump\t// out\n                /* \"#utility.yul\":8229:8415   */\n            tag_85:\n                /* \"#utility.yul\":8289:8409   */\n            tag_190:\n                /* \"#utility.yul\":8306:8309   */\n              dup2\n                /* \"#utility.yul\":8299:8304   */\n              dup2\n                /* \"#utility.yul\":8296:8310   */\n              lt\n                /* \"#utility.yul\":8289:8409   */\n              iszero\n              tag_192\n              jumpi\n                /* \"#utility.yul\":8360:8399   */\n              tag_193\n                /* \"#utility.yul\":8397:8398   */\n              0x00\n                /* \"#utility.yul\":8390:8395   */\n              dup3\n                /* \"#utility.yul\":8360:8399   */\n              tag_84\n              jump\t// in\n            tag_193:\n                /* \"#utility.yul\":8333:8334   */\n              0x01\n                /* \"#utility.yul\":8326:8331   */\n              dup2\n                /* \"#utility.yul\":8322:8335   */\n              add\n                /* \"#utility.yul\":8313:8335   */\n              swap1\n              pop\n                /* \"#utility.yul\":8289:8409   */\n              jump(tag_190)\n            tag_192:\n                /* \"#utility.yul\":8229:8415   */\n              pop\n              pop\n              jump\t// out\n                /* \"#utility.yul\":8421:8964   */\n            tag_86:\n                /* \"#utility.yul\":8522:8524   */\n              0x1f\n                /* \"#utility.yul\":8517:8520   */\n              dup3\n                /* \"#utility.yul\":8514:8525   */\n              gt\n                /* \"#utility.yul\":8511:8957   */\n              iszero\n              tag_195\n              jumpi\n                /* \"#utility.yul\":8556:8594   */\n              tag_196\n                /* \"#utility.yul\":8588:8593   */\n              dup2\n                /* \"#utility.yul\":8556:8594   */\n              tag_75\n              jump\t// in\n            tag_196:\n                /* \"#utility.yul\":8640:8669   */\n              tag_197\n                /* \"#utility.yul\":8658:8668   */\n              dup5\n                /* \"#utility.yul\":8640:8669   */\n              tag_76\n              jump\t// in\n            tag_197:\n                /* \"#utility.yul\":8630:8638   */\n              dup2\n                /* \"#utility.yul\":8626:8670   */\n              add\n                /* \"#utility.yul\":8823:8825   */\n              0x20\n                /* \"#utility.yul\":8811:8821   */\n              dup6\n                /* \"#utility.yul\":8808:8826   */\n              lt\n                /* \"#utility.yul\":8805:8854   */\n              iszero\n              tag_198\n              jumpi\n                /* \"#utility.yul\":8844:8852   */\n              dup2\n                /* \"#utility.yul\":8829:8852   */\n              swap1\n              pop\n                /* \"#utility.yul\":8805:8854   */\n            tag_198:\n                /* \"#utility.yul\":8867:8947   */\n              tag_199\n                /* \"#utility.yul\":8923:8945   */\n              tag_200\n                /* \"#utility.yul\":8941:8944   */\n              dup6\n                /* \"#utility.yul\":8923:8945   */\n              tag_76\n              jump\t// in\n            tag_200:\n                /* \"#utility.yul\":8913:8921   */\n              dup4\n                /* \"#utility.yul\":8909:8946   */\n              add\n                /* \"#utility.yul\":8896:8907   */\n              dup3\n                /* \"#utility.yul\":8867:8947   */\n              tag_85\n              jump\t// in\n            tag_199:\n                /* \"#utility.yul\":8526:8957   */\n              pop\n              pop\n                /* \"#utility.yul\":8511:8957   */\n            tag_195:\n                /* \"#utility.yul\":8421:8964   */\n              pop\n              pop\n              pop\n              jump\t// out\n                /* \"#utility.yul\":8970:9087   */\n            tag_87:\n                /* \"#utility.yul\":9024:9032   */\n              0x00\n                /* \"#utility.yul\":9074:9079   */\n              dup3\n                /* \"#utility.yul\":9068:9072   */\n              dup3\n                /* \"#utility.yul\":9064:9080   */\n              shr\n                /* \"#utility.yul\":9043:9080   */\n              swap1\n              pop\n                /* \"#utility.yul\":8970:9087   */\n              swap3\n              swap2\n              pop\n              pop\n              jump\t// out\n                /* \"#utility.yul\":9093:9262   */\n            tag_88:\n                /* \"#utility.yul\":9137:9143   */\n              0x00\n                /* \"#utility.yul\":9170:9221   */\n              tag_203\n                /* \"#utility.yul\":9218:9219   */\n              0x00\n                /* \"#utility.yul\":9214:9220   */\n              not\n                /* \"#utility.yul\":9206:9211   */\n              dup5\n                /* \"#utility.yul\":9203:9204   */\n              0x08\n                /* \"#utility.yul\":9199:9212   */\n              mul\n                /* \"#utility.yul\":9170:9221   */\n              tag_87\n              jump\t// in\n            tag_203:\n                /* \"#utility.yul\":9166:9222   */\n              not\n                /* \"#utility.yul\":9251:9255   */\n              dup1\n                /* \"#utility.yul\":9245:9249   */\n              dup4\n                /* \"#utility.yul\":9241:9256   */\n              and\n                /* \"#utility.yul\":9231:9256   */\n              swap2\n              pop\n                /* \"#utility.yul\":9144:9262   */\n              pop\n                /* \"#utility.yul\":9093:9262   */\n              swap3\n              swap2\n              pop\n              pop\n              jump\t// out\n                /* \"#utility.yul\":9267:9562   */\n            tag_89:\n                /* \"#utility.yul\":9343:9347   */\n              0x00\n                /* \"#utility.yul\":9489:9518   */\n              tag_205\n                /* \"#utility.yul\":9514:9517   */\n              dup4\n                /* \"#utility.yul\":9508:9512   */\n              dup4\n                /* \"#utility.yul\":9489:9518   */\n              tag_88\n              jump\t// in\n            tag_205:\n                /* \"#utility.yul\":9481:9518   */\n              swap2\n              pop\n                /* \"#utility.yul\":9551:9554   */\n              dup3\n                /* \"#utility.yul\":9548:9549   */\n              0x02\n                /* \"#utility.yul\":9544:9555   */\n              mul\n                /* \"#utility.yul\":9538:9542   */\n              dup3\n                /* \"#utility.yul\":9535:9556   */\n              or\n                /* \"#utility.yul\":9527:9556   */\n              swap1\n              pop\n                /* \"#utility.yul\":9267:9562   */\n              swap3\n              swap2\n              pop\n              pop\n              jump\t// out\n                /* \"#utility.yul\":9567:10962   */\n            tag_39:\n                /* \"#utility.yul\":9684:9721   */\n              tag_207\n                /* \"#utility.yul\":9717:9720   */\n              dup3\n                /* \"#utility.yul\":9684:9721   */\n              tag_70\n              jump\t// in\n            tag_207:\n                /* \"#utility.yul\":9786:9804   */\n              0xffffffffffffffff\n                /* \"#utility.yul\":9778:9784   */\n              dup2\n                /* \"#utility.yul\":9775:9805   */\n              gt\n                /* \"#utility.yul\":9772:9828   */\n              iszero\n              tag_208\n              jumpi\n                /* \"#utility.yul\":9808:9826   */\n              tag_209\n              tag_63\n              jump\t// in\n            tag_209:\n                /* \"#utility.yul\":9772:9828   */\n            tag_208:\n                /* \"#utility.yul\":9852:9890   */\n              tag_210\n                /* \"#utility.yul\":9884:9888   */\n              dup3\n                /* \"#utility.yul\":9878:9889   */\n              sload\n                /* \"#utility.yul\":9852:9890   */\n              tag_45\n              jump\t// in\n            tag_210:\n                /* \"#utility.yul\":9937:10004   */\n              tag_211\n                /* \"#utility.yul\":9997:10003   */\n              dup3\n                /* \"#utility.yul\":9989:9995   */\n              dup3\n                /* \"#utility.yul\":9983:9987   */\n              dup6\n                /* \"#utility.yul\":9937:10004   */\n              tag_86\n              jump\t// in\n            tag_211:\n                /* \"#utility.yul\":10031:10032   */\n              0x00\n                /* \"#utility.yul\":10055:10059   */\n              0x20\n                /* \"#utility.yul\":10042:10059   */\n              swap1\n              pop\n                /* \"#utility.yul\":10087:10089   */\n              0x1f\n                /* \"#utility.yul\":10079:10085   */\n              dup4\n                /* \"#utility.yul\":10076:10090   */\n              gt\n                /* \"#utility.yul\":10104:10105   */\n              0x01\n                /* \"#utility.yul\":10099:10717   */\n              dup2\n              eq\n              tag_213\n              jumpi\n                /* \"#utility.yul\":10761:10762   */\n              0x00\n                /* \"#utility.yul\":10778:10784   */\n              dup5\n                /* \"#utility.yul\":10775:10852   */\n              iszero\n              tag_214\n              jumpi\n                /* \"#utility.yul\":10827:10836   */\n              dup3\n                /* \"#utility.yul\":10822:10825   */\n              dup8\n                /* \"#utility.yul\":10818:10837   */\n              add\n                /* \"#utility.yul\":10812:10838   */\n              mload\n                /* \"#utility.yul\":10803:10838   */\n              swap1\n              pop\n                /* \"#utility.yul\":10775:10852   */\n            tag_214:\n                /* \"#utility.yul\":10878:10945   */\n              tag_215\n                /* \"#utility.yul\":10938:10944   */\n              dup6\n                /* \"#utility.yul\":10931:10936   */\n              dup3\n                /* \"#utility.yul\":10878:10945   */\n              tag_89\n              jump\t// in\n            tag_215:\n                /* \"#utility.yul\":10872:10876   */\n              dup7\n                /* \"#utility.yul\":10865:10946   */\n              sstore\n                /* \"#utility.yul\":10734:10956   */\n              pop\n                /* \"#utility.yul\":10069:10956   */\n              jump(tag_212)\n                /* \"#utility.yul\":10099:10717   */\n            tag_213:\n                /* \"#utility.yul\":10151:10155   */\n              0x1f\n                /* \"#utility.yul\":10147:10156   */\n              not\n                /* \"#utility.yul\":10139:10145   */\n              dup5\n                /* \"#utility.yul\":10135:10157   */\n              and\n                /* \"#utility.yul\":10185:10222   */\n              tag_216\n                /* \"#utility.yul\":10217:10221   */\n              dup7\n                /* \"#utility.yul\":10185:10222   */\n              tag_75\n              jump\t// in\n            tag_216:\n                /* \"#utility.yul\":10244:10245   */\n              0x00\n                /* \"#utility.yul\":10258:10466   */\n            tag_217:\n                /* \"#utility.yul\":10272:10279   */\n              dup3\n                /* \"#utility.yul\":10269:10270   */\n              dup2\n                /* \"#utility.yul\":10266:10280   */\n              lt\n                /* \"#utility.yul\":10258:10466   */\n              iszero\n              tag_219\n              jumpi\n                /* \"#utility.yul\":10351:10360   */\n              dup5\n                /* \"#utility.yul\":10346:10349   */\n              dup10\n                /* \"#utility.yul\":10342:10361   */\n              add\n                /* \"#utility.yul\":10336:10362   */\n              mload\n                /* \"#utility.yul\":10328:10334   */\n              dup3\n                /* \"#utility.yul\":10321:10363   */\n              sstore\n                /* \"#utility.yul\":10402:10403   */\n              0x01\n                /* \"#utility.yul\":10394:10400   */\n              dup3\n                /* \"#utility.yul\":10390:10404   */\n              add\n                /* \"#utility.yul\":10380:10404   */\n              swap2\n              pop\n                /* \"#utility.yul\":10449:10451   */\n              0x20\n                /* \"#utility.yul\":10438:10447   */\n              dup6\n                /* \"#utility.yul\":10434:10452   */\n              add\n                /* \"#utility.yul\":10421:10452   */\n              swap5\n              pop\n                /* \"#utility.yul\":10295:10299   */\n              0x20\n                /* \"#utility.yul\":10292:10293   */\n              dup2\n                /* \"#utility.yul\":10288:10300   */\n              add\n                /* \"#utility.yul\":10283:10300   */\n              swap1\n              pop\n                /* \"#utility.yul\":10258:10466   */\n              jump(tag_217)\n            tag_219:\n                /* \"#utility.yul\":10494:10500   */\n              dup7\n                /* \"#utility.yul\":10485:10492   */\n              dup4\n                /* \"#utility.yul\":10482:10501   */\n              lt\n                /* \"#utility.yul\":10479:10658   */\n              iszero\n              tag_220\n              jumpi\n                /* \"#utility.yul\":10552:10561   */\n              dup5\n                /* \"#utility.yul\":10547:10550   */\n              dup10\n                /* \"#utility.yul\":10543:10562   */\n              add\n                /* \"#utility.yul\":10537:10563   */\n              mload\n                /* \"#utility.yul\":10595:10643   */\n              tag_221\n                /* \"#utility.yul\":10637:10641   */\n              0x1f\n                /* \"#utility.yul\":10629:10635   */\n              dup10\n                /* \"#utility.yul\":10625:10642   */\n              and\n                /* \"#utility.yul\":10614:10623   */\n              dup3\n                /* \"#utility.yul\":10595:10643   */\n              tag_88\n              jump\t// in\n            tag_221:\n                /* \"#utility.yul\":10587:10593   */\n              dup4\n                /* \"#utility.yul\":10580:10644   */\n              sstore\n                /* \"#utility.yul\":10502:10658   */\n              pop\n                /* \"#utility.yul\":10479:10658   */\n            tag_220:\n                /* \"#utility.yul\":10704:10705   */\n              0x01\n                /* \"#utility.yul\":10700:10701   */\n              0x02\n                /* \"#utility.yul\":10692:10698   */\n              dup9\n                /* \"#utility.yul\":10688:10702   */\n              mul\n                /* \"#utility.yul\":10684:10706   */\n              add\n                /* \"#utility.yul\":10678:10682   */\n              dup9\n                /* \"#utility.yul\":10671:10707   */\n              sstore\n                /* \"#utility.yul\":10106:10717   */\n              pop\n              pop\n              pop\n                /* \"#utility.yul\":10069:10956   */\n            tag_212:\n              pop\n                /* \"#utility.yul\":9659:10962   */\n              pop\n              pop\n              pop\n                /* \"#utility.yul\":9567:10962   */\n              pop\n              pop\n              jump\t// out\n                /* \"#utility.yul\":10968:11116   */\n            tag_90:\n                /* \"#utility.yul\":11070:11081   */\n              0x00\n                /* \"#utility.yul\":11107:11110   */\n              dup2\n                /* \"#utility.yul\":11092:11110   */\n              swap1\n              pop\n                /* \"#utility.yul\":10968:11116   */\n              swap3\n              swap2\n              pop\n              pop\n              jump\t// out\n                /* \"#utility.yul\":11122:11512   */\n            tag_91:\n                /* \"#utility.yul\":11228:11231   */\n              0x00\n                /* \"#utility.yul\":11256:11295   */\n              tag_224\n                /* \"#utility.yul\":11289:11294   */\n              dup3\n                /* \"#utility.yul\":11256:11295   */\n              tag_70\n              jump\t// in\n            tag_224:\n                /* \"#utility.yul\":11311:11400   */\n              tag_225\n                /* \"#utility.yul\":11393:11399   */\n              dup2\n                /* \"#utility.yul\":11388:11391   */\n              dup6\n                /* \"#utility.yul\":11311:11400   */\n              tag_90\n              jump\t// in\n            tag_225:\n                /* \"#utility.yul\":11304:11400   */\n              swap4\n              pop\n                /* \"#utility.yul\":11409:11474   */\n              tag_226\n                /* \"#utility.yul\":11467:11473   */\n              dup2\n                /* \"#utility.yul\":11462:11465   */\n              dup6\n                /* \"#utility.yul\":11455:11459   */\n              0x20\n                /* \"#utility.yul\":11448:11453   */\n              dup7\n                /* \"#utility.yul\":11444:11460   */\n              add\n                /* \"#utility.yul\":11409:11474   */\n              tag_72\n              jump\t// in\n            tag_226:\n                /* \"#utility.yul\":11499:11505   */\n              dup1\n                /* \"#utility.yul\":11494:11497   */\n              dup5\n                /* \"#utility.yul\":11490:11506   */\n              add\n                /* \"#utility.yul\":11483:11506   */\n              swap2\n              pop\n                /* \"#utility.yul\":11232:11512   */\n              pop\n                /* \"#utility.yul\":11122:11512   */\n              swap3\n              swap2\n              pop\n              pop\n              jump\t// out\n                /* \"#utility.yul\":11518:11793   */\n            tag_41:\n                /* \"#utility.yul\":11650:11653   */\n              0x00\n                /* \"#utility.yul\":11672:11767   */\n              tag_228\n                /* \"#utility.yul\":11763:11766   */\n              dup3\n                /* \"#utility.yul\":11754:11760   */\n              dup5\n                /* \"#utility.yul\":11672:11767   */\n              tag_91\n              jump\t// in\n            tag_228:\n                /* \"#utility.yul\":11665:11767   */\n              swap2\n              pop\n                /* \"#utility.yul\":11784:11787   */\n              dup2\n                /* \"#utility.yul\":11777:11787   */\n              swap1\n              pop\n                /* \"#utility.yul\":11518:11793   */\n              swap3\n              swap2\n              pop\n              pop\n              jump\t// out\n                /* \"#utility.yul\":11799:11979   */\n            tag_92:\n                /* \"#utility.yul\":11847:11924   */\n              0x4e487b7100000000000000000000000000000000000000000000000000000000\n                /* \"#utility.yul\":11844:11845   */\n              0x00\n                /* \"#utility.yul\":11837:11925   */\n              mstore\n                /* \"#utility.yul\":11944:11948   */\n              0x11\n                /* \"#utility.yul\":11941:11942   */\n              0x04\n                /* \"#utility.yul\":11934:11949   */\n              mstore\n                /* \"#utility.yul\":11968:11972   */\n              0x24\n                /* \"#utility.yul\":11965:11966   */\n              0x00\n                /* \"#utility.yul\":11958:11973   */\n              revert\n                /* \"#utility.yul\":11985:12176   */\n            tag_52:\n                /* \"#utility.yul\":12025:12028   */\n              0x00\n                /* \"#utility.yul\":12044:12064   */\n              tag_231\n                /* \"#utility.yul\":12062:12063   */\n              dup3\n                /* \"#utility.yul\":12044:12064   */\n              tag_53\n              jump\t// in\n            tag_231:\n                /* \"#utility.yul\":12039:12064   */\n              swap2\n              pop\n                /* \"#utility.yul\":12078:12098   */\n              tag_232\n                /* \"#utility.yul\":12096:12097   */\n              dup4\n                /* \"#utility.yul\":12078:12098   */\n              tag_53\n              jump\t// in\n            tag_232:\n                /* \"#utility.yul\":12073:12098   */\n              swap3\n              pop\n                /* \"#utility.yul\":12121:12122   */\n              dup3\n                /* \"#utility.yul\":12118:12119   */\n              dup3\n                /* \"#utility.yul\":12114:12123   */\n              add\n                /* \"#utility.yul\":12107:12123   */\n              swap1\n              pop\n                /* \"#utility.yul\":12142:12145   */\n              dup1\n                /* \"#utility.yul\":12139:12140   */\n              dup3\n                /* \"#utility.yul\":12136:12146   */\n              gt\n                /* \"#utility.yul\":12133:12169   */\n              iszero\n              tag_233\n              jumpi\n                /* \"#utility.yul\":12149:12167   */\n              tag_234\n              tag_92\n              jump\t// in\n            tag_234:\n                /* \"#utility.yul\":12133:12169   */\n            tag_233:\n                /* \"#utility.yul\":11985:12176   */\n              swap3\n              swap2\n              pop\n              pop\n              jump\t// out\n\n            auxdata: 0xa2646970667358221220faae7f7b9323be6618b1559025cf6026e47bb717c13fd1f51fecb0af9aa7297564736f6c63430008120033\n        }\n    }\n\n    auxdata: 0xa2646970667358221220df0235280736855ebdfb38d30ba006ae6409cb82384aead616b5cd82b062c65c64736f6c63430008120033\n}\n",
				"bytecode": {
					"linkReferences": {},
					"object": "6080604052600760005534801561001557600080fd5b50611814806100256000396000f3fe608060405234801561001057600080fd5b506004361061009e5760003560e01c80636f760f41116100665780636f760f41146101335780638bab8dd51461014f5780639e7a13ad1461017f578063b9c03b9a146101b0578063c5f19c20146101cc5761009e565b80631563700f146100a35780631dda6541146100bf5780632e64cec1146100c95780636057361d146100e757806364591bf114610103575b600080fd5b6100bd60048036038101906100b8919061061e565b6101fc565b005b6100c76102a9565b005b6100d161033c565b6040516100de919061066d565b60405180910390f35b61010160048036038101906100fc9190610688565b610345565b005b61011d60048036038101906101189190610688565b61034f565b60405161012a9190610734565b60405180910390f35b61014d60048036038101906101489190610895565b61038e565b005b610169600480360381019061016491906108f1565b610417565b604051610176919061066d565b60405180910390f35b61019960048036038101906101949190610688565b610445565b6040516101a79291906109b9565b60405180910390f35b6101ca60048036038101906101c59190610688565b610501565b005b6101e660048036038101906101e19190610688565b610511565b6040516101f3919061066d565b60405180910390f35b600382815481106102105761020f6109e9565b5b9060005260206000200160009054906101000a900473ffffffffffffffffffffffffffffffffffffffff1673ffffffffffffffffffffffffffffffffffffffff16636057361d826040518263ffffffff1660e01b8152600401610273919061066d565b600060405180830381600087803b15801561028d57600080fd5b505af11580156102a1573d6000803e3d6000fd5b505050505050565b60006040516102b7906105c7565b604051809103906000f0801580156102d3573d6000803e3d6000fd5b5090506003819080600181540180825580915050600190039060005260206000200160009091909190916101000a81548173ffffffffffffffffffffffffffffffffffffffff021916908373ffffffffffffffffffffffffffffffffffffffff16021790555050565b60008054905090565b8060008190555050565b6003818154811061035f57600080fd5b906000526020600020016000915054906101000a900473ffffffffffffffffffffffffffffffffffffffff1681565b600160405180604001604052808381526020018481525090806001815401808255809150506001900390600052602060002090600202016000909190919091506000820151816000015560208201518160010190816103ed9190610c1a565b505050806002836040516104019190610d28565b9081526020016040518091039020819055505050565b6002818051602081018201805184825260208301602085012081835280955050505050506000915090505481565b6001818154811061045557600080fd5b906000526020600020906002020160009150905080600001549080600101805461047e90610a47565b80601f01602080910402602001604051908101604052809291908181526020018280546104aa90610a47565b80156104f75780601f106104cc576101008083540402835291602001916104f7565b820191906000526020600020905b8154815290600101906020018083116104da57829003601f168201915b5050505050905082565b808161050d9190610d6e565b5050565b600060038281548110610527576105266109e9565b5b9060005260206000200160009054906101000a900473ffffffffffffffffffffffffffffffffffffffff1673ffffffffffffffffffffffffffffffffffffffff16632e64cec16040518163ffffffff1660e01b8152600401602060405180830381865afa15801561059c573d6000803e3d6000fd5b505050506040513d601f19601f820116820180604052508101906105c09190610db7565b9050919050565b6109fa80610de583390190565b6000604051905090565b600080fd5b600080fd5b6000819050919050565b6105fb816105e8565b811461060657600080fd5b50565b600081359050610618816105f2565b92915050565b60008060408385031215610635576106346105de565b5b600061064385828601610609565b925050602061065485828601610609565b9150509250929050565b610667816105e8565b82525050565b6000602082019050610682600083018461065e565b92915050565b60006020828403121561069e5761069d6105de565b5b60006106ac84828501610609565b91505092915050565b600073ffffffffffffffffffffffffffffffffffffffff82169050919050565b6000819050919050565b60006106fa6106f56106f0846106b5565b6106d5565b6106b5565b9050919050565b600061070c826106df565b9050919050565b600061071e82610701565b9050919050565b61072e81610713565b82525050565b60006020820190506107496000830184610725565b92915050565b600080fd5b600080fd5b6000601f19601f8301169050919050565b7f4e487b7100000000000000000000000000000000000000000000000000000000600052604160045260246000fd5b6107a282610759565b810181811067ffffffffffffffff821117156107c1576107c061076a565b5b80604052505050565b60006107d46105d4565b90506107e08282610799565b919050565b600067ffffffffffffffff821115610800576107ff61076a565b5b61080982610759565b9050602081019050919050565b82818337600083830152505050565b6000610838610833846107e5565b6107ca565b90508281526020810184848401111561085457610853610754565b5b61085f848285610816565b509392505050565b600082601f83011261087c5761087b61074f565b5b813561088c848260208601610825565b91505092915050565b600080604083850312156108ac576108ab6105de565b5b600083013567ffffffffffffffff8111156108ca576108c96105e3565b5b6108d685828601610867565b92505060206108e785828601610609565b9150509250929050565b600060208284031215610907576109066105de565b5b600082013567ffffffffffffffff811115610925576109246105e3565b5b61093184828501610867565b91505092915050565b600081519050919050565b600082825260208201905092915050565b60005b83811015610974578082015181840152602081019050610959565b60008484015250505050565b600061098b8261093a565b6109958185610945565b93506109a5818560208601610956565b6109ae81610759565b840191505092915050565b60006040820190506109ce600083018561065e565b81810360208301526109e08184610980565b90509392505050565b7f4e487b7100000000000000000000000000000000000000000000000000000000600052603260045260246000fd5b7f4e487b7100000000000000000000000000000000000000000000000000000000600052602260045260246000fd5b60006002820490506001821680610a5f57607f821691505b602082108103610a7257610a71610a18565b5b50919050565b60008190508160005260206000209050919050565b60006020601f8301049050919050565b600082821b905092915050565b600060088302610ada7fffffffffffffffffffffffffffffffffffffffffffffffffffffffffffffffff82610a9d565b610ae48683610a9d565b95508019841693508086168417925050509392505050565b6000610b17610b12610b0d846105e8565b6106d5565b6105e8565b9050919050565b6000819050919050565b610b3183610afc565b610b45610b3d82610b1e565b848454610aaa565b825550505050565b600090565b610b5a610b4d565b610b65818484610b28565b505050565b5b81811015610b8957610b7e600082610b52565b600181019050610b6b565b5050565b601f821115610bce57610b9f81610a78565b610ba884610a8d565b81016020851015610bb7578190505b610bcb610bc385610a8d565b830182610b6a565b50505b505050565b600082821c905092915050565b6000610bf160001984600802610bd3565b1980831691505092915050565b6000610c0a8383610be0565b9150826002028217905092915050565b610c238261093a565b67ffffffffffffffff811115610c3c57610c3b61076a565b5b610c468254610a47565b610c51828285610b8d565b600060209050601f831160018114610c845760008415610c72578287015190505b610c7c8582610bfe565b865550610ce4565b601f198416610c9286610a78565b60005b82811015610cba57848901518255600182019150602085019450602081019050610c95565b86831015610cd75784890151610cd3601f891682610be0565b8355505b6001600288020188555050505b505050505050565b600081905092915050565b6000610d028261093a565b610d0c8185610cec565b9350610d1c818560208601610956565b80840191505092915050565b6000610d348284610cf7565b915081905092915050565b7f4e487b7100000000000000000000000000000000000000000000000000000000600052601160045260246000fd5b6000610d79826105e8565b9150610d84836105e8565b9250828201905080821115610d9c57610d9b610d3f565b5b92915050565b600081519050610db1816105f2565b92915050565b600060208284031215610dcd57610dcc6105de565b5b6000610ddb84828501610da2565b9150509291505056fe6080604052600760005534801561001557600080fd5b506109d5806100256000396000f3fe608060405234801561001057600080fd5b50600436106100625760003560e01c80632e64cec1146100675780636057361d146100855780636f760f41146100a15780638bab8dd5146100bd5780639e7a13ad146100ed578063b9c03b9a1461011e575b600080fd5b61006f61013a565b60405161007c91906102e9565b60405180910390f35b61009f600480360381019061009a9190610344565b610143565b005b6100bb60048036038101906100b691906104b7565b61014d565b005b6100d760048036038101906100d29190610513565b6101d6565b6040516100e491906102e9565b60405180910390f35b61010760048036038101906101029190610344565b610204565b6040516101159291906105db565b60405180910390f35b61013860048036038101906101339190610344565b6102c0565b005b60008054905090565b8060008190555050565b600160405180604001604052808381526020018481525090806001815401808255809150506001900390600052602060002090600202016000909190919091506000820151816000015560208201518160010190816101ac9190610817565b505050806002836040516101c09190610925565b9081526020016040518091039020819055505050565b6002818051602081018201805184825260208301602085012081835280955050505050506000915090505481565b6001818154811061021457600080fd5b906000526020600020906002020160009150905080600001549080600101805461023d9061063a565b80601f01602080910402602001604051908101604052809291908181526020018280546102699061063a565b80156102b65780601f1061028b576101008083540402835291602001916102b6565b820191906000526020600020905b81548152906001019060200180831161029957829003601f168201915b5050505050905082565b80816102cc919061096b565b5050565b6000819050919050565b6102e3816102d0565b82525050565b60006020820190506102fe60008301846102da565b92915050565b6000604051905090565b600080fd5b600080fd5b610321816102d0565b811461032c57600080fd5b50565b60008135905061033e81610318565b92915050565b60006020828403121561035a5761035961030e565b5b60006103688482850161032f565b91505092915050565b600080fd5b600080fd5b6000601f19601f8301169050919050565b7f4e487b7100000000000000000000000000000000000000000000000000000000600052604160045260246000fd5b6103c48261037b565b810181811067ffffffffffffffff821117156103e3576103e261038c565b5b80604052505050565b60006103f6610304565b905061040282826103bb565b919050565b600067ffffffffffffffff8211156104225761042161038c565b5b61042b8261037b565b9050602081019050919050565b82818337600083830152505050565b600061045a61045584610407565b6103ec565b90508281526020810184848401111561047657610475610376565b5b610481848285610438565b509392505050565b600082601f83011261049e5761049d610371565b5b81356104ae848260208601610447565b91505092915050565b600080604083850312156104ce576104cd61030e565b5b600083013567ffffffffffffffff8111156104ec576104eb610313565b5b6104f885828601610489565b92505060206105098582860161032f565b9150509250929050565b6000602082840312156105295761052861030e565b5b600082013567ffffffffffffffff81111561054757610546610313565b5b61055384828501610489565b91505092915050565b600081519050919050565b600082825260208201905092915050565b60005b8381101561059657808201518184015260208101905061057b565b60008484015250505050565b60006105ad8261055c565b6105b78185610567565b93506105c7818560208601610578565b6105d08161037b565b840191505092915050565b60006040820190506105f060008301856102da565b818103602083015261060281846105a2565b90509392505050565b7f4e487b7100000000000000000000000000000000000000000000000000000000600052602260045260246000fd5b6000600282049050600182168061065257607f821691505b6020821081036106655761066461060b565b5b50919050565b60008190508160005260206000209050919050565b60006020601f8301049050919050565b600082821b905092915050565b6000600883026106cd7fffffffffffffffffffffffffffffffffffffffffffffffffffffffffffffffff82610690565b6106d78683610690565b95508019841693508086168417925050509392505050565b6000819050919050565b600061071461070f61070a846102d0565b6106ef565b6102d0565b9050919050565b6000819050919050565b61072e836106f9565b61074261073a8261071b565b84845461069d565b825550505050565b600090565b61075761074a565b610762818484610725565b505050565b5b818110156107865761077b60008261074f565b600181019050610768565b5050565b601f8211156107cb5761079c8161066b565b6107a584610680565b810160208510156107b4578190505b6107c86107c085610680565b830182610767565b50505b505050565b600082821c905092915050565b60006107ee600019846008026107d0565b1980831691505092915050565b600061080783836107dd565b9150826002028217905092915050565b6108208261055c565b67ffffffffffffffff8111156108395761083861038c565b5b610843825461063a565b61084e82828561078a565b600060209050601f831160018114610881576000841561086f578287015190505b61087985826107fb565b8655506108e1565b601f19841661088f8661066b565b60005b828110156108b757848901518255600182019150602085019450602081019050610892565b868310156108d457848901516108d0601f8916826107dd565b8355505b6001600288020188555050505b505050505050565b600081905092915050565b60006108ff8261055c565b61090981856108e9565b9350610919818560208601610578565b80840191505092915050565b600061093182846108f4565b915081905092915050565b7f4e487b7100000000000000000000000000000000000000000000000000000000600052601160045260246000fd5b6000610976826102d0565b9150610981836102d0565b92508282019050808211156109995761099861093c565b5b9291505056fea2646970667358221220faae7f7b9323be6618b1559025cf6026e47bb717c13fd1f51fecb0af9aa7297564736f6c63430008120033a2646970667358221220df0235280736855ebdfb38d30ba006ae6409cb82384aead616b5cd82b062c65c64736f6c63430008120033",
					"opcodes": "PUSH1 0x80 PUSH1 0x40 MSTORE PUSH1 0x7 PUSH1 0x0 SSTORE CALLVALUE DUP1 ISZERO PUSH2 0x15 JUMPI PUSH1 0x0 DUP1 REVERT JUMPDEST POP PUSH2 0x1814 DUP1 PUSH2 0x25 PUSH1 0x0 CODECOPY PUSH1 0x0 RETURN INVALID PUSH1 0x80 PUSH1 0x40 MSTORE CALLVALUE DUP1 ISZERO PUSH2 0x10 JUMPI PUSH1 0x0 DUP1 REVERT JUMPDEST POP PUSH1 0x4 CALLDATASIZE LT PUSH2 0x9E JUMPI PUSH1 0x0 CALLDATALOAD PUSH1 0xE0 SHR DUP1 PUSH4 0x6F760F41 GT PUSH2 0x66 JUMPI DUP1 PUSH4 0x6F760F41 EQ PUSH2 0x133 JUMPI DUP1 PUSH4 0x8BAB8DD5 EQ PUSH2 0x14F JUMPI DUP1 PUSH4 0x9E7A13AD EQ PUSH2 0x17F JUMPI DUP1 PUSH4 0xB9C03B9A EQ PUSH2 0x1B0 JUMPI DUP1 PUSH4 0xC5F19C20 EQ PUSH2 0x1CC JUMPI PUSH2 0x9E JUMP JUMPDEST DUP1 PUSH4 0x1563700F EQ PUSH2 0xA3 JUMPI DUP1 PUSH4 0x1DDA6541 EQ PUSH2 0xBF JUMPI DUP1 PUSH4 0x2E64CEC1 EQ PUSH2 0xC9 JUMPI DUP1 PUSH4 0x6057361D EQ PUSH2 0xE7 JUMPI DUP1 PUSH4 0x64591BF1 EQ PUSH2 0x103 JUMPI JUMPDEST PUSH1 0x0 DUP1 REVERT JUMPDEST PUSH2 0xBD PUSH1 0x4 DUP1 CALLDATASIZE SUB DUP2 ADD SWAP1 PUSH2 0xB8 SWAP2 SWAP1 PUSH2 0x61E JUMP JUMPDEST PUSH2 0x1FC JUMP JUMPDEST STOP JUMPDEST PUSH2 0xC7 PUSH2 0x2A9 JUMP JUMPDEST STOP JUMPDEST PUSH2 0xD1 PUSH2 0x33C JUMP JUMPDEST PUSH1 0x40 MLOAD PUSH2 0xDE SWAP2 SWAP1 PUSH2 0x66D JUMP JUMPDEST PUSH1 0x40 MLOAD DUP1 SWAP2 SUB SWAP1 RETURN JUMPDEST PUSH2 0x101 PUSH1 0x4 DUP1 CALLDATASIZE SUB DUP2 ADD SWAP1 PUSH2 0xFC SWAP2 SWAP1 PUSH2 0x688 JUMP JUMPDEST PUSH2 0x345 JUMP JUMPDEST STOP JUMPDEST PUSH2 0x11D PUSH1 0x4 DUP1 CALLDATASIZE SUB DUP2 ADD SWAP1 PUSH2 0x118 SWAP2 SWAP1 PUSH2 0x688 JUMP JUMPDEST PUSH2 0x34F JUMP JUMPDEST PUSH1 0x40 MLOAD PUSH2 0x12A SWAP2 SWAP1 PUSH2 0x734 JUMP JUMPDEST PUSH1 0x40 MLOAD DUP1 SWAP2 SUB SWAP1 RETURN JUMPDEST PUSH2 0x14D PUSH1 0x4 DUP1 CALLDATASIZE SUB DUP2 ADD SWAP1 PUSH2 0x148 SWAP2 SWAP1 PUSH2 0x895 JUMP JUMPDEST PUSH2 0x38E JUMP JUMPDEST STOP JUMPDEST PUSH2 0x169 PUSH1 0x4 DUP1 CALLDATASIZE SUB DUP2 ADD SWAP1 PUSH2 0x164 SWAP2 SWAP1 PUSH2 0x8F1 JUMP JUMPDEST PUSH2 0x417 JUMP JUMPDEST PUSH1 0x40 MLOAD PUSH2 0x176 SWAP2 SWAP1 PUSH2 0x66D JUMP JUMPDEST PUSH1 0x40 MLOAD DUP1 SWAP2 SUB SWAP1 RETURN JUMPDEST PUSH2 0x199 PUSH1 0x4 DUP1 CALLDATASIZE SUB DUP2 ADD SWAP1 PUSH2 0x194 SWAP2 SWAP1 PUSH2 0x688 JUMP JUMPDEST PUSH2 0x445 JUMP JUMPDEST PUSH1 0x40 MLOAD PUSH2 0x1A7 SWAP3 SWAP2 SWAP1 PUSH2 0x9B9 JUMP JUMPDEST PUSH1 0x40 MLOAD DUP1 SWAP2 SUB SWAP1 RETURN JUMPDEST PUSH2 0x1CA PUSH1 0x4 DUP1 CALLDATASIZE SUB DUP2 ADD SWAP1 PUSH2 0x1C5 SWAP2 SWAP1 PUSH2 0x688 JUMP JUMPDEST PUSH2 0x501 JUMP JUMPDEST STOP JUMPDEST PUSH2 0x1E6 PUSH1 0x4 DUP1 CALLDATASIZE SUB DUP2 ADD SWAP1 PUSH2 0x1E1 SWAP2 SWAP1 PUSH2 0x688 JUMP JUMPDEST PUSH2 0x511 JUMP JUMPDEST PUSH1 0x40 MLOAD PUSH2 0x1F3 SWAP2 SWAP1 PUSH2 0x66D JUMP JUMPDEST PUSH1 0x40 MLOAD DUP1 SWAP2 SUB SWAP1 RETURN JUMPDEST PUSH1 0x3 DUP3 DUP2 SLOAD DUP2 LT PUSH2 0x210 JUMPI PUSH2 0x20F PUSH2 0x9E9 JUMP JUMPDEST JUMPDEST SWAP1 PUSH1 0x0 MSTORE PUSH1 0x20 PUSH1 0x0 KECCAK256 ADD PUSH1 0x0 SWAP1 SLOAD SWAP1 PUSH2 0x100 EXP SWAP1 DIV PUSH20 0xFFFFFFFFFFFFFFFFFFFFFFFFFFFFFFFFFFFFFFFF AND PUSH20 0xFFFFFFFFFFFFFFFFFFFFFFFFFFFFFFFFFFFFFFFF AND PUSH4 0x6057361D DUP3 PUSH1 0x40 MLOAD DUP3 PUSH4 0xFFFFFFFF AND PUSH1 0xE0 SHL DUP2 MSTORE PUSH1 0x4 ADD PUSH2 0x273 SWAP2 SWAP1 PUSH2 0x66D JUMP JUMPDEST PUSH1 0x0 PUSH1 0x40 MLOAD DUP1 DUP4 SUB DUP2 PUSH1 0x0 DUP8 DUP1 EXTCODESIZE ISZERO DUP1 ISZERO PUSH2 0x28D JUMPI PUSH1 0x0 DUP1 REVERT JUMPDEST POP GAS CALL ISZERO DUP1 ISZERO PUSH2 0x2A1 JUMPI RETURNDATASIZE PUSH1 0x0 DUP1 RETURNDATACOPY RETURNDATASIZE PUSH1 0x0 REVERT JUMPDEST POP POP POP POP POP POP JUMP JUMPDEST PUSH1 0x0 PUSH1 0x40 MLOAD PUSH2 0x2B7 SWAP1 PUSH2 0x5C7 JUMP JUMPDEST PUSH1 0x40 MLOAD DUP1 SWAP2 SUB SWAP1 PUSH1 0x0 CREATE DUP1 ISZERO DUP1 ISZERO PUSH2 0x2D3 JUMPI RETURNDATASIZE PUSH1 0x0 DUP1 RETURNDATACOPY RETURNDATASIZE PUSH1 0x0 REVERT JUMPDEST POP SWAP1 POP PUSH1 0x3 DUP2 SWAP1 DUP1 PUSH1 0x1 DUP2 SLOAD ADD DUP1 DUP3 SSTORE DUP1 SWAP2 POP POP PUSH1 0x1 SWAP1 SUB SWAP1 PUSH1 0x0 MSTORE PUSH1 0x20 PUSH1 0x0 KECCAK256 ADD PUSH1 0x0 SWAP1 SWAP2 SWAP1 SWAP2 SWAP1 SWAP2 PUSH2 0x100 EXP DUP2 SLOAD DUP2 PUSH20 0xFFFFFFFFFFFFFFFFFFFFFFFFFFFFFFFFFFFFFFFF MUL NOT AND SWAP1 DUP4 PUSH20 0xFFFFFFFFFFFFFFFFFFFFFFFFFFFFFFFFFFFFFFFF AND MUL OR SWAP1 SSTORE POP POP JUMP JUMPDEST PUSH1 0x0 DUP1 SLOAD SWAP1 POP SWAP1 JUMP JUMPDEST DUP1 PUSH1 0x0 DUP2 SWAP1 SSTORE POP POP JUMP JUMPDEST PUSH1 0x3 DUP2 DUP2 SLOAD DUP2 LT PUSH2 0x35F JUMPI PUSH1 0x0 DUP1 REVERT JUMPDEST SWAP1 PUSH1 0x0 MSTORE PUSH1 0x20 PUSH1 0x0 KECCAK256 ADD PUSH1 0x0 SWAP2 POP SLOAD SWAP1 PUSH2 0x100 EXP SWAP1 DIV PUSH20 0xFFFFFFFFFFFFFFFFFFFFFFFFFFFFFFFFFFFFFFFF AND DUP2 JUMP JUMPDEST PUSH1 0x1 PUSH1 0x40 MLOAD DUP1 PUSH1 0x40 ADD PUSH1 0x40 MSTORE DUP1 DUP4 DUP2 MSTORE PUSH1 0x20 ADD DUP5 DUP2 MSTORE POP SWAP1 DUP1 PUSH1 0x1 DUP2 SLOAD ADD DUP1 DUP3 SSTORE DUP1 SWAP2 POP POP PUSH1 0x1 SWAP1 SUB SWAP1 PUSH1 0x0 MSTORE PUSH1 0x20 PUSH1 0x0 KECCAK256 SWAP1 PUSH1 0x2 MUL ADD PUSH1 0x0 SWAP1 SWAP2 SWAP1 SWAP2 SWAP1 SWAP2 POP PUSH1 0x0 DUP3 ADD MLOAD DUP2 PUSH1 0x0 ADD SSTORE PUSH1 0x20 DUP3 ADD MLOAD DUP2 PUSH1 0x1 ADD SWAP1 DUP2 PUSH2 0x3ED SWAP2 SWAP1 PUSH2 0xC1A JUMP JUMPDEST POP POP POP DUP1 PUSH1 0x2 DUP4 PUSH1 0x40 MLOAD PUSH2 0x401 SWAP2 SWAP1 PUSH2 0xD28 JUMP JUMPDEST SWAP1 DUP2 MSTORE PUSH1 0x20 ADD PUSH1 0x40 MLOAD DUP1 SWAP2 SUB SWAP1 KECCAK256 DUP2 SWAP1 SSTORE POP POP POP JUMP JUMPDEST PUSH1 0x2 DUP2 DUP1 MLOAD PUSH1 0x20 DUP2 ADD DUP3 ADD DUP1 MLOAD DUP5 DUP3 MSTORE PUSH1 0x20 DUP4 ADD PUSH1 0x20 DUP6 ADD KECCAK256 DUP2 DUP4 MSTORE DUP1 SWAP6 POP POP POP POP POP POP PUSH1 0x0 SWAP2 POP SWAP1 POP SLOAD DUP2 JUMP JUMPDEST PUSH1 0x1 DUP2 DUP2 SLOAD DUP2 LT PUSH2 0x455 JUMPI PUSH1 0x0 DUP1 REVERT JUMPDEST SWAP1 PUSH1 0x0 MSTORE PUSH1 0x20 PUSH1 0x0 KECCAK256 SWAP1 PUSH1 0x2 MUL ADD PUSH1 0x0 SWAP2 POP SWAP1 POP DUP1 PUSH1 0x0 ADD SLOAD SWAP1 DUP1 PUSH1 0x1 ADD DUP1 SLOAD PUSH2 0x47E SWAP1 PUSH2 0xA47 JUMP JUMPDEST DUP1 PUSH1 0x1F ADD PUSH1 0x20 DUP1 SWAP2 DIV MUL PUSH1 0x20 ADD PUSH1 0x40 MLOAD SWAP1 DUP2 ADD PUSH1 0x40 MSTORE DUP1 SWAP3 SWAP2 SWAP1 DUP2 DUP2 MSTORE PUSH1 0x20 ADD DUP3 DUP1 SLOAD PUSH2 0x4AA SWAP1 PUSH2 0xA47 JUMP JUMPDEST DUP1 ISZERO PUSH2 0x4F7 JUMPI DUP1 PUSH1 0x1F LT PUSH2 0x4CC JUMPI PUSH2 0x100 DUP1 DUP4 SLOAD DIV MUL DUP4 MSTORE SWAP2 PUSH1 0x20 ADD SWAP2 PUSH2 0x4F7 JUMP JUMPDEST DUP3 ADD SWAP2 SWAP1 PUSH1 0x0 MSTORE PUSH1 0x20 PUSH1 0x0 KECCAK256 SWAP1 JUMPDEST DUP2 SLOAD DUP2 MSTORE SWAP1 PUSH1 0x1 ADD SWAP1 PUSH1 0x20 ADD DUP1 DUP4 GT PUSH2 0x4DA JUMPI DUP3 SWAP1 SUB PUSH1 0x1F AND DUP3 ADD SWAP2 JUMPDEST POP POP POP POP POP SWAP1 POP DUP3 JUMP JUMPDEST DUP1 DUP2 PUSH2 0x50D SWAP2 SWAP1 PUSH2 0xD6E JUMP JUMPDEST POP POP JUMP JUMPDEST PUSH1 0x0 PUSH1 0x3 DUP3 DUP2 SLOAD DUP2 LT PUSH2 0x527 JUMPI PUSH2 0x526 PUSH2 0x9E9 JUMP JUMPDEST JUMPDEST SWAP1 PUSH1 0x0 MSTORE PUSH1 0x20 PUSH1 0x0 KECCAK256 ADD PUSH1 0x0 SWAP1 SLOAD SWAP1 PUSH2 0x100 EXP SWAP1 DIV PUSH20 0xFFFFFFFFFFFFFFFFFFFFFFFFFFFFFFFFFFFFFFFF AND PUSH20 0xFFFFFFFFFFFFFFFFFFFFFFFFFFFFFFFFFFFFFFFF AND PUSH4 0x2E64CEC1 PUSH1 0x40 MLOAD DUP2 PUSH4 0xFFFFFFFF AND PUSH1 0xE0 SHL DUP2 MSTORE PUSH1 0x4 ADD PUSH1 0x20 PUSH1 0x40 MLOAD DUP1 DUP4 SUB DUP2 DUP7 GAS STATICCALL ISZERO DUP1 ISZERO PUSH2 0x59C JUMPI RETURNDATASIZE PUSH1 0x0 DUP1 RETURNDATACOPY RETURNDATASIZE PUSH1 0x0 REVERT JUMPDEST POP POP POP POP PUSH1 0x40 MLOAD RETURNDATASIZE PUSH1 0x1F NOT PUSH1 0x1F DUP3 ADD AND DUP3 ADD DUP1 PUSH1 0x40 MSTORE POP DUP2 ADD SWAP1 PUSH2 0x5C0 SWAP2 SWAP1 PUSH2 0xDB7 JUMP JUMPDEST SWAP1 POP SWAP2 SWAP1 POP JUMP JUMPDEST PUSH2 0x9FA DUP1 PUSH2 0xDE5 DUP4 CODECOPY ADD SWAP1 JUMP JUMPDEST PUSH1 0x0 PUSH1 0x40 MLOAD SWAP1 POP SWAP1 JUMP JUMPDEST PUSH1 0x0 DUP1 REVERT JUMPDEST PUSH1 0x0 DUP1 REVERT JUMPDEST PUSH1 0x0 DUP2 SWAP1 POP SWAP2 SWAP1 POP JUMP JUMPDEST PUSH2 0x5FB DUP2 PUSH2 0x5E8 JUMP JUMPDEST DUP2 EQ PUSH2 0x606 JUMPI PUSH1 0x0 DUP1 REVERT JUMPDEST POP JUMP JUMPDEST PUSH1 0x0 DUP2 CALLDATALOAD SWAP1 POP PUSH2 0x618 DUP2 PUSH2 0x5F2 JUMP JUMPDEST SWAP3 SWAP2 POP POP JUMP JUMPDEST PUSH1 0x0 DUP1 PUSH1 0x40 DUP4 DUP6 SUB SLT ISZERO PUSH2 0x635 JUMPI PUSH2 0x634 PUSH2 0x5DE JUMP JUMPDEST JUMPDEST PUSH1 0x0 PUSH2 0x643 DUP6 DUP3 DUP7 ADD PUSH2 0x609 JUMP JUMPDEST SWAP3 POP POP PUSH1 0x20 PUSH2 0x654 DUP6 DUP3 DUP7 ADD PUSH2 0x609 JUMP JUMPDEST SWAP2 POP POP SWAP3 POP SWAP3 SWAP1 POP JUMP JUMPDEST PUSH2 0x667 DUP2 PUSH2 0x5E8 JUMP JUMPDEST DUP3 MSTORE POP POP JUMP JUMPDEST PUSH1 0x0 PUSH1 0x20 DUP3 ADD SWAP1 POP PUSH2 0x682 PUSH1 0x0 DUP4 ADD DUP5 PUSH2 0x65E JUMP JUMPDEST SWAP3 SWAP2 POP POP JUMP JUMPDEST PUSH1 0x0 PUSH1 0x20 DUP3 DUP5 SUB SLT ISZERO PUSH2 0x69E JUMPI PUSH2 0x69D PUSH2 0x5DE JUMP JUMPDEST JUMPDEST PUSH1 0x0 PUSH2 0x6AC DUP5 DUP3 DUP6 ADD PUSH2 0x609 JUMP JUMPDEST SWAP2 POP POP SWAP3 SWAP2 POP POP JUMP JUMPDEST PUSH1 0x0 PUSH20 0xFFFFFFFFFFFFFFFFFFFFFFFFFFFFFFFFFFFFFFFF DUP3 AND SWAP1 POP SWAP2 SWAP1 POP JUMP JUMPDEST PUSH1 0x0 DUP2 SWAP1 POP SWAP2 SWAP1 POP JUMP JUMPDEST PUSH1 0x0 PUSH2 0x6FA PUSH2 0x6F5 PUSH2 0x6F0 DUP5 PUSH2 0x6B5 JUMP JUMPDEST PUSH2 0x6D5 JUMP JUMPDEST PUSH2 0x6B5 JUMP JUMPDEST SWAP1 POP SWAP2 SWAP1 POP JUMP JUMPDEST PUSH1 0x0 PUSH2 0x70C DUP3 PUSH2 0x6DF JUMP JUMPDEST SWAP1 POP SWAP2 SWAP1 POP JUMP JUMPDEST PUSH1 0x0 PUSH2 0x71E DUP3 PUSH2 0x701 JUMP JUMPDEST SWAP1 POP SWAP2 SWAP1 POP JUMP JUMPDEST PUSH2 0x72E DUP2 PUSH2 0x713 JUMP JUMPDEST DUP3 MSTORE POP POP JUMP JUMPDEST PUSH1 0x0 PUSH1 0x20 DUP3 ADD SWAP1 POP PUSH2 0x749 PUSH1 0x0 DUP4 ADD DUP5 PUSH2 0x725 JUMP JUMPDEST SWAP3 SWAP2 POP POP JUMP JUMPDEST PUSH1 0x0 DUP1 REVERT JUMPDEST PUSH1 0x0 DUP1 REVERT JUMPDEST PUSH1 0x0 PUSH1 0x1F NOT PUSH1 0x1F DUP4 ADD AND SWAP1 POP SWAP2 SWAP1 POP JUMP JUMPDEST PUSH32 0x4E487B7100000000000000000000000000000000000000000000000000000000 PUSH1 0x0 MSTORE PUSH1 0x41 PUSH1 0x4 MSTORE PUSH1 0x24 PUSH1 0x0 REVERT JUMPDEST PUSH2 0x7A2 DUP3 PUSH2 0x759 JUMP JUMPDEST DUP2 ADD DUP2 DUP2 LT PUSH8 0xFFFFFFFFFFFFFFFF DUP3 GT OR ISZERO PUSH2 0x7C1 JUMPI PUSH2 0x7C0 PUSH2 0x76A JUMP JUMPDEST JUMPDEST DUP1 PUSH1 0x40 MSTORE POP POP POP JUMP JUMPDEST PUSH1 0x0 PUSH2 0x7D4 PUSH2 0x5D4 JUMP JUMPDEST SWAP1 POP PUSH2 0x7E0 DUP3 DUP3 PUSH2 0x799 JUMP JUMPDEST SWAP2 SWAP1 POP JUMP JUMPDEST PUSH1 0x0 PUSH8 0xFFFFFFFFFFFFFFFF DUP3 GT ISZERO PUSH2 0x800 JUMPI PUSH2 0x7FF PUSH2 0x76A JUMP JUMPDEST JUMPDEST PUSH2 0x809 DUP3 PUSH2 0x759 JUMP JUMPDEST SWAP1 POP PUSH1 0x20 DUP2 ADD SWAP1 POP SWAP2 SWAP1 POP JUMP JUMPDEST DUP3 DUP2 DUP4 CALLDATACOPY PUSH1 0x0 DUP4 DUP4 ADD MSTORE POP POP POP JUMP JUMPDEST PUSH1 0x0 PUSH2 0x838 PUSH2 0x833 DUP5 PUSH2 0x7E5 JUMP JUMPDEST PUSH2 0x7CA JUMP JUMPDEST SWAP1 POP DUP3 DUP2 MSTORE PUSH1 0x20 DUP2 ADD DUP5 DUP5 DUP5 ADD GT ISZERO PUSH2 0x854 JUMPI PUSH2 0x853 PUSH2 0x754 JUMP JUMPDEST JUMPDEST PUSH2 0x85F DUP5 DUP3 DUP6 PUSH2 0x816 JUMP JUMPDEST POP SWAP4 SWAP3 POP POP POP JUMP JUMPDEST PUSH1 0x0 DUP3 PUSH1 0x1F DUP4 ADD SLT PUSH2 0x87C JUMPI PUSH2 0x87B PUSH2 0x74F JUMP JUMPDEST JUMPDEST DUP2 CALLDATALOAD PUSH2 0x88C DUP5 DUP3 PUSH1 0x20 DUP7 ADD PUSH2 0x825 JUMP JUMPDEST SWAP2 POP POP SWAP3 SWAP2 POP POP JUMP JUMPDEST PUSH1 0x0 DUP1 PUSH1 0x40 DUP4 DUP6 SUB SLT ISZERO PUSH2 0x8AC JUMPI PUSH2 0x8AB PUSH2 0x5DE JUMP JUMPDEST JUMPDEST PUSH1 0x0 DUP4 ADD CALLDATALOAD PUSH8 0xFFFFFFFFFFFFFFFF DUP2 GT ISZERO PUSH2 0x8CA JUMPI PUSH2 0x8C9 PUSH2 0x5E3 JUMP JUMPDEST JUMPDEST PUSH2 0x8D6 DUP6 DUP3 DUP7 ADD PUSH2 0x867 JUMP JUMPDEST SWAP3 POP POP PUSH1 0x20 PUSH2 0x8E7 DUP6 DUP3 DUP7 ADD PUSH2 0x609 JUMP JUMPDEST SWAP2 POP POP SWAP3 POP SWAP3 SWAP1 POP JUMP JUMPDEST PUSH1 0x0 PUSH1 0x20 DUP3 DUP5 SUB SLT ISZERO PUSH2 0x907 JUMPI PUSH2 0x906 PUSH2 0x5DE JUMP JUMPDEST JUMPDEST PUSH1 0x0 DUP3 ADD CALLDATALOAD PUSH8 0xFFFFFFFFFFFFFFFF DUP2 GT ISZERO PUSH2 0x925 JUMPI PUSH2 0x924 PUSH2 0x5E3 JUMP JUMPDEST JUMPDEST PUSH2 0x931 DUP5 DUP3 DUP6 ADD PUSH2 0x867 JUMP JUMPDEST SWAP2 POP POP SWAP3 SWAP2 POP POP JUMP JUMPDEST PUSH1 0x0 DUP2 MLOAD SWAP1 POP SWAP2 SWAP1 POP JUMP JUMPDEST PUSH1 0x0 DUP3 DUP3 MSTORE PUSH1 0x20 DUP3 ADD SWAP1 POP SWAP3 SWAP2 POP POP JUMP JUMPDEST PUSH1 0x0 JUMPDEST DUP4 DUP2 LT ISZERO PUSH2 0x974 JUMPI DUP1 DUP3 ADD MLOAD DUP2 DUP5 ADD MSTORE PUSH1 0x20 DUP2 ADD SWAP1 POP PUSH2 0x959 JUMP JUMPDEST PUSH1 0x0 DUP5 DUP5 ADD MSTORE POP POP POP POP JUMP JUMPDEST PUSH1 0x0 PUSH2 0x98B DUP3 PUSH2 0x93A JUMP JUMPDEST PUSH2 0x995 DUP2 DUP6 PUSH2 0x945 JUMP JUMPDEST SWAP4 POP PUSH2 0x9A5 DUP2 DUP6 PUSH1 0x20 DUP7 ADD PUSH2 0x956 JUMP JUMPDEST PUSH2 0x9AE DUP2 PUSH2 0x759 JUMP JUMPDEST DUP5 ADD SWAP2 POP POP SWAP3 SWAP2 POP POP JUMP JUMPDEST PUSH1 0x0 PUSH1 0x40 DUP3 ADD SWAP1 POP PUSH2 0x9CE PUSH1 0x0 DUP4 ADD DUP6 PUSH2 0x65E JUMP JUMPDEST DUP2 DUP2 SUB PUSH1 0x20 DUP4 ADD MSTORE PUSH2 0x9E0 DUP2 DUP5 PUSH2 0x980 JUMP JUMPDEST SWAP1 POP SWAP4 SWAP3 POP POP POP JUMP JUMPDEST PUSH32 0x4E487B7100000000000000000000000000000000000000000000000000000000 PUSH1 0x0 MSTORE PUSH1 0x32 PUSH1 0x4 MSTORE PUSH1 0x24 PUSH1 0x0 REVERT JUMPDEST PUSH32 0x4E487B7100000000000000000000000000000000000000000000000000000000 PUSH1 0x0 MSTORE PUSH1 0x22 PUSH1 0x4 MSTORE PUSH1 0x24 PUSH1 0x0 REVERT JUMPDEST PUSH1 0x0 PUSH1 0x2 DUP3 DIV SWAP1 POP PUSH1 0x1 DUP3 AND DUP1 PUSH2 0xA5F JUMPI PUSH1 0x7F DUP3 AND SWAP2 POP JUMPDEST PUSH1 0x20 DUP3 LT DUP2 SUB PUSH2 0xA72 JUMPI PUSH2 0xA71 PUSH2 0xA18 JUMP JUMPDEST JUMPDEST POP SWAP2 SWAP1 POP JUMP JUMPDEST PUSH1 0x0 DUP2 SWAP1 POP DUP2 PUSH1 0x0 MSTORE PUSH1 0x20 PUSH1 0x0 KECCAK256 SWAP1 POP SWAP2 SWAP1 POP JUMP JUMPDEST PUSH1 0x0 PUSH1 0x20 PUSH1 0x1F DUP4 ADD DIV SWAP1 POP SWAP2 SWAP1 POP JUMP JUMPDEST PUSH1 0x0 DUP3 DUP3 SHL SWAP1 POP SWAP3 SWAP2 POP POP JUMP JUMPDEST PUSH1 0x0 PUSH1 0x8 DUP4 MUL PUSH2 0xADA PUSH32 0xFFFFFFFFFFFFFFFFFFFFFFFFFFFFFFFFFFFFFFFFFFFFFFFFFFFFFFFFFFFFFFFF DUP3 PUSH2 0xA9D JUMP JUMPDEST PUSH2 0xAE4 DUP7 DUP4 PUSH2 0xA9D JUMP JUMPDEST SWAP6 POP DUP1 NOT DUP5 AND SWAP4 POP DUP1 DUP7 AND DUP5 OR SWAP3 POP POP POP SWAP4 SWAP3 POP POP POP JUMP JUMPDEST PUSH1 0x0 PUSH2 0xB17 PUSH2 0xB12 PUSH2 0xB0D DUP5 PUSH2 0x5E8 JUMP JUMPDEST PUSH2 0x6D5 JUMP JUMPDEST PUSH2 0x5E8 JUMP JUMPDEST SWAP1 POP SWAP2 SWAP1 POP JUMP JUMPDEST PUSH1 0x0 DUP2 SWAP1 POP SWAP2 SWAP1 POP JUMP JUMPDEST PUSH2 0xB31 DUP4 PUSH2 0xAFC JUMP JUMPDEST PUSH2 0xB45 PUSH2 0xB3D DUP3 PUSH2 0xB1E JUMP JUMPDEST DUP5 DUP5 SLOAD PUSH2 0xAAA JUMP JUMPDEST DUP3 SSTORE POP POP POP POP JUMP JUMPDEST PUSH1 0x0 SWAP1 JUMP JUMPDEST PUSH2 0xB5A PUSH2 0xB4D JUMP JUMPDEST PUSH2 0xB65 DUP2 DUP5 DUP5 PUSH2 0xB28 JUMP JUMPDEST POP POP POP JUMP JUMPDEST JUMPDEST DUP2 DUP2 LT ISZERO PUSH2 0xB89 JUMPI PUSH2 0xB7E PUSH1 0x0 DUP3 PUSH2 0xB52 JUMP JUMPDEST PUSH1 0x1 DUP2 ADD SWAP1 POP PUSH2 0xB6B JUMP JUMPDEST POP POP JUMP JUMPDEST PUSH1 0x1F DUP3 GT ISZERO PUSH2 0xBCE JUMPI PUSH2 0xB9F DUP2 PUSH2 0xA78 JUMP JUMPDEST PUSH2 0xBA8 DUP5 PUSH2 0xA8D JUMP JUMPDEST DUP2 ADD PUSH1 0x20 DUP6 LT ISZERO PUSH2 0xBB7 JUMPI DUP2 SWAP1 POP JUMPDEST PUSH2 0xBCB PUSH2 0xBC3 DUP6 PUSH2 0xA8D JUMP JUMPDEST DUP4 ADD DUP3 PUSH2 0xB6A JUMP JUMPDEST POP POP JUMPDEST POP POP POP JUMP JUMPDEST PUSH1 0x0 DUP3 DUP3 SHR SWAP1 POP SWAP3 SWAP2 POP POP JUMP JUMPDEST PUSH1 0x0 PUSH2 0xBF1 PUSH1 0x0 NOT DUP5 PUSH1 0x8 MUL PUSH2 0xBD3 JUMP JUMPDEST NOT DUP1 DUP4 AND SWAP2 POP POP SWAP3 SWAP2 POP POP JUMP JUMPDEST PUSH1 0x0 PUSH2 0xC0A DUP4 DUP4 PUSH2 0xBE0 JUMP JUMPDEST SWAP2 POP DUP3 PUSH1 0x2 MUL DUP3 OR SWAP1 POP SWAP3 SWAP2 POP POP JUMP JUMPDEST PUSH2 0xC23 DUP3 PUSH2 0x93A JUMP JUMPDEST PUSH8 0xFFFFFFFFFFFFFFFF DUP2 GT ISZERO PUSH2 0xC3C JUMPI PUSH2 0xC3B PUSH2 0x76A JUMP JUMPDEST JUMPDEST PUSH2 0xC46 DUP3 SLOAD PUSH2 0xA47 JUMP JUMPDEST PUSH2 0xC51 DUP3 DUP3 DUP6 PUSH2 0xB8D JUMP JUMPDEST PUSH1 0x0 PUSH1 0x20 SWAP1 POP PUSH1 0x1F DUP4 GT PUSH1 0x1 DUP2 EQ PUSH2 0xC84 JUMPI PUSH1 0x0 DUP5 ISZERO PUSH2 0xC72 JUMPI DUP3 DUP8 ADD MLOAD SWAP1 POP JUMPDEST PUSH2 0xC7C DUP6 DUP3 PUSH2 0xBFE JUMP JUMPDEST DUP7 SSTORE POP PUSH2 0xCE4 JUMP JUMPDEST PUSH1 0x1F NOT DUP5 AND PUSH2 0xC92 DUP7 PUSH2 0xA78 JUMP JUMPDEST PUSH1 0x0 JUMPDEST DUP3 DUP2 LT ISZERO PUSH2 0xCBA JUMPI DUP5 DUP10 ADD MLOAD DUP3 SSTORE PUSH1 0x1 DUP3 ADD SWAP2 POP PUSH1 0x20 DUP6 ADD SWAP5 POP PUSH1 0x20 DUP2 ADD SWAP1 POP PUSH2 0xC95 JUMP JUMPDEST DUP7 DUP4 LT ISZERO PUSH2 0xCD7 JUMPI DUP5 DUP10 ADD MLOAD PUSH2 0xCD3 PUSH1 0x1F DUP10 AND DUP3 PUSH2 0xBE0 JUMP JUMPDEST DUP4 SSTORE POP JUMPDEST PUSH1 0x1 PUSH1 0x2 DUP9 MUL ADD DUP9 SSTORE POP POP POP JUMPDEST POP POP POP POP POP POP JUMP JUMPDEST PUSH1 0x0 DUP2 SWAP1 POP SWAP3 SWAP2 POP POP JUMP JUMPDEST PUSH1 0x0 PUSH2 0xD02 DUP3 PUSH2 0x93A JUMP JUMPDEST PUSH2 0xD0C DUP2 DUP6 PUSH2 0xCEC JUMP JUMPDEST SWAP4 POP PUSH2 0xD1C DUP2 DUP6 PUSH1 0x20 DUP7 ADD PUSH2 0x956 JUMP JUMPDEST DUP1 DUP5 ADD SWAP2 POP POP SWAP3 SWAP2 POP POP JUMP JUMPDEST PUSH1 0x0 PUSH2 0xD34 DUP3 DUP5 PUSH2 0xCF7 JUMP JUMPDEST SWAP2 POP DUP2 SWAP1 POP SWAP3 SWAP2 POP POP JUMP JUMPDEST PUSH32 0x4E487B7100000000000000000000000000000000000000000000000000000000 PUSH1 0x0 MSTORE PUSH1 0x11 PUSH1 0x4 MSTORE PUSH1 0x24 PUSH1 0x0 REVERT JUMPDEST PUSH1 0x0 PUSH2 0xD79 DUP3 PUSH2 0x5E8 JUMP JUMPDEST SWAP2 POP PUSH2 0xD84 DUP4 PUSH2 0x5E8 JUMP JUMPDEST SWAP3 POP DUP3 DUP3 ADD SWAP1 POP DUP1 DUP3 GT ISZERO PUSH2 0xD9C JUMPI PUSH2 0xD9B PUSH2 0xD3F JUMP JUMPDEST JUMPDEST SWAP3 SWAP2 POP POP JUMP JUMPDEST PUSH1 0x0 DUP2 MLOAD SWAP1 POP PUSH2 0xDB1 DUP2 PUSH2 0x5F2 JUMP JUMPDEST SWAP3 SWAP2 POP POP JUMP JUMPDEST PUSH1 0x0 PUSH1 0x20 DUP3 DUP5 SUB SLT ISZERO PUSH2 0xDCD JUMPI PUSH2 0xDCC PUSH2 0x5DE JUMP JUMPDEST JUMPDEST PUSH1 0x0 PUSH2 0xDDB DUP5 DUP3 DUP6 ADD PUSH2 0xDA2 JUMP JUMPDEST SWAP2 POP POP SWAP3 SWAP2 POP POP JUMP INVALID PUSH1 0x80 PUSH1 0x40 MSTORE PUSH1 0x7 PUSH1 0x0 SSTORE CALLVALUE DUP1 ISZERO PUSH2 0x15 JUMPI PUSH1 0x0 DUP1 REVERT JUMPDEST POP PUSH2 0x9D5 DUP1 PUSH2 0x25 PUSH1 0x0 CODECOPY PUSH1 0x0 RETURN INVALID PUSH1 0x80 PUSH1 0x40 MSTORE CALLVALUE DUP1 ISZERO PUSH2 0x10 JUMPI PUSH1 0x0 DUP1 REVERT JUMPDEST POP PUSH1 0x4 CALLDATASIZE LT PUSH2 0x62 JUMPI PUSH1 0x0 CALLDATALOAD PUSH1 0xE0 SHR DUP1 PUSH4 0x2E64CEC1 EQ PUSH2 0x67 JUMPI DUP1 PUSH4 0x6057361D EQ PUSH2 0x85 JUMPI DUP1 PUSH4 0x6F760F41 EQ PUSH2 0xA1 JUMPI DUP1 PUSH4 0x8BAB8DD5 EQ PUSH2 0xBD JUMPI DUP1 PUSH4 0x9E7A13AD EQ PUSH2 0xED JUMPI DUP1 PUSH4 0xB9C03B9A EQ PUSH2 0x11E JUMPI JUMPDEST PUSH1 0x0 DUP1 REVERT JUMPDEST PUSH2 0x6F PUSH2 0x13A JUMP JUMPDEST PUSH1 0x40 MLOAD PUSH2 0x7C SWAP2 SWAP1 PUSH2 0x2E9 JUMP JUMPDEST PUSH1 0x40 MLOAD DUP1 SWAP2 SUB SWAP1 RETURN JUMPDEST PUSH2 0x9F PUSH1 0x4 DUP1 CALLDATASIZE SUB DUP2 ADD SWAP1 PUSH2 0x9A SWAP2 SWAP1 PUSH2 0x344 JUMP JUMPDEST PUSH2 0x143 JUMP JUMPDEST STOP JUMPDEST PUSH2 0xBB PUSH1 0x4 DUP1 CALLDATASIZE SUB DUP2 ADD SWAP1 PUSH2 0xB6 SWAP2 SWAP1 PUSH2 0x4B7 JUMP JUMPDEST PUSH2 0x14D JUMP JUMPDEST STOP JUMPDEST PUSH2 0xD7 PUSH1 0x4 DUP1 CALLDATASIZE SUB DUP2 ADD SWAP1 PUSH2 0xD2 SWAP2 SWAP1 PUSH2 0x513 JUMP JUMPDEST PUSH2 0x1D6 JUMP JUMPDEST PUSH1 0x40 MLOAD PUSH2 0xE4 SWAP2 SWAP1 PUSH2 0x2E9 JUMP JUMPDEST PUSH1 0x40 MLOAD DUP1 SWAP2 SUB SWAP1 RETURN JUMPDEST PUSH2 0x107 PUSH1 0x4 DUP1 CALLDATASIZE SUB DUP2 ADD SWAP1 PUSH2 0x102 SWAP2 SWAP1 PUSH2 0x344 JUMP JUMPDEST PUSH2 0x204 JUMP JUMPDEST PUSH1 0x40 MLOAD PUSH2 0x115 SWAP3 SWAP2 SWAP1 PUSH2 0x5DB JUMP JUMPDEST PUSH1 0x40 MLOAD DUP1 SWAP2 SUB SWAP1 RETURN JUMPDEST PUSH2 0x138 PUSH1 0x4 DUP1 CALLDATASIZE SUB DUP2 ADD SWAP1 PUSH2 0x133 SWAP2 SWAP1 PUSH2 0x344 JUMP JUMPDEST PUSH2 0x2C0 JUMP JUMPDEST STOP JUMPDEST PUSH1 0x0 DUP1 SLOAD SWAP1 POP SWAP1 JUMP JUMPDEST DUP1 PUSH1 0x0 DUP2 SWAP1 SSTORE POP POP JUMP JUMPDEST PUSH1 0x1 PUSH1 0x40 MLOAD DUP1 PUSH1 0x40 ADD PUSH1 0x40 MSTORE DUP1 DUP4 DUP2 MSTORE PUSH1 0x20 ADD DUP5 DUP2 MSTORE POP SWAP1 DUP1 PUSH1 0x1 DUP2 SLOAD ADD DUP1 DUP3 SSTORE DUP1 SWAP2 POP POP PUSH1 0x1 SWAP1 SUB SWAP1 PUSH1 0x0 MSTORE PUSH1 0x20 PUSH1 0x0 KECCAK256 SWAP1 PUSH1 0x2 MUL ADD PUSH1 0x0 SWAP1 SWAP2 SWAP1 SWAP2 SWAP1 SWAP2 POP PUSH1 0x0 DUP3 ADD MLOAD DUP2 PUSH1 0x0 ADD SSTORE PUSH1 0x20 DUP3 ADD MLOAD DUP2 PUSH1 0x1 ADD SWAP1 DUP2 PUSH2 0x1AC SWAP2 SWAP1 PUSH2 0x817 JUMP JUMPDEST POP POP POP DUP1 PUSH1 0x2 DUP4 PUSH1 0x40 MLOAD PUSH2 0x1C0 SWAP2 SWAP1 PUSH2 0x925 JUMP JUMPDEST SWAP1 DUP2 MSTORE PUSH1 0x20 ADD PUSH1 0x40 MLOAD DUP1 SWAP2 SUB SWAP1 KECCAK256 DUP2 SWAP1 SSTORE POP POP POP JUMP JUMPDEST PUSH1 0x2 DUP2 DUP1 MLOAD PUSH1 0x20 DUP2 ADD DUP3 ADD DUP1 MLOAD DUP5 DUP3 MSTORE PUSH1 0x20 DUP4 ADD PUSH1 0x20 DUP6 ADD KECCAK256 DUP2 DUP4 MSTORE DUP1 SWAP6 POP POP POP POP POP POP PUSH1 0x0 SWAP2 POP SWAP1 POP SLOAD DUP2 JUMP JUMPDEST PUSH1 0x1 DUP2 DUP2 SLOAD DUP2 LT PUSH2 0x214 JUMPI PUSH1 0x0 DUP1 REVERT JUMPDEST SWAP1 PUSH1 0x0 MSTORE PUSH1 0x20 PUSH1 0x0 KECCAK256 SWAP1 PUSH1 0x2 MUL ADD PUSH1 0x0 SWAP2 POP SWAP1 POP DUP1 PUSH1 0x0 ADD SLOAD SWAP1 DUP1 PUSH1 0x1 ADD DUP1 SLOAD PUSH2 0x23D SWAP1 PUSH2 0x63A JUMP JUMPDEST DUP1 PUSH1 0x1F ADD PUSH1 0x20 DUP1 SWAP2 DIV MUL PUSH1 0x20 ADD PUSH1 0x40 MLOAD SWAP1 DUP2 ADD PUSH1 0x40 MSTORE DUP1 SWAP3 SWAP2 SWAP1 DUP2 DUP2 MSTORE PUSH1 0x20 ADD DUP3 DUP1 SLOAD PUSH2 0x269 SWAP1 PUSH2 0x63A JUMP JUMPDEST DUP1 ISZERO PUSH2 0x2B6 JUMPI DUP1 PUSH1 0x1F LT PUSH2 0x28B JUMPI PUSH2 0x100 DUP1 DUP4 SLOAD DIV MUL DUP4 MSTORE SWAP2 PUSH1 0x20 ADD SWAP2 PUSH2 0x2B6 JUMP JUMPDEST DUP3 ADD SWAP2 SWAP1 PUSH1 0x0 MSTORE PUSH1 0x20 PUSH1 0x0 KECCAK256 SWAP1 JUMPDEST DUP2 SLOAD DUP2 MSTORE SWAP1 PUSH1 0x1 ADD SWAP1 PUSH1 0x20 ADD DUP1 DUP4 GT PUSH2 0x299 JUMPI DUP3 SWAP1 SUB PUSH1 0x1F AND DUP3 ADD SWAP2 JUMPDEST POP POP POP POP POP SWAP1 POP DUP3 JUMP JUMPDEST DUP1 DUP2 PUSH2 0x2CC SWAP2 SWAP1 PUSH2 0x96B JUMP JUMPDEST POP POP JUMP JUMPDEST PUSH1 0x0 DUP2 SWAP1 POP SWAP2 SWAP1 POP JUMP JUMPDEST PUSH2 0x2E3 DUP2 PUSH2 0x2D0 JUMP JUMPDEST DUP3 MSTORE POP POP JUMP JUMPDEST PUSH1 0x0 PUSH1 0x20 DUP3 ADD SWAP1 POP PUSH2 0x2FE PUSH1 0x0 DUP4 ADD DUP5 PUSH2 0x2DA JUMP JUMPDEST SWAP3 SWAP2 POP POP JUMP JUMPDEST PUSH1 0x0 PUSH1 0x40 MLOAD SWAP1 POP SWAP1 JUMP JUMPDEST PUSH1 0x0 DUP1 REVERT JUMPDEST PUSH1 0x0 DUP1 REVERT JUMPDEST PUSH2 0x321 DUP2 PUSH2 0x2D0 JUMP JUMPDEST DUP2 EQ PUSH2 0x32C JUMPI PUSH1 0x0 DUP1 REVERT JUMPDEST POP JUMP JUMPDEST PUSH1 0x0 DUP2 CALLDATALOAD SWAP1 POP PUSH2 0x33E DUP2 PUSH2 0x318 JUMP JUMPDEST SWAP3 SWAP2 POP POP JUMP JUMPDEST PUSH1 0x0 PUSH1 0x20 DUP3 DUP5 SUB SLT ISZERO PUSH2 0x35A JUMPI PUSH2 0x359 PUSH2 0x30E JUMP JUMPDEST JUMPDEST PUSH1 0x0 PUSH2 0x368 DUP5 DUP3 DUP6 ADD PUSH2 0x32F JUMP JUMPDEST SWAP2 POP POP SWAP3 SWAP2 POP POP JUMP JUMPDEST PUSH1 0x0 DUP1 REVERT JUMPDEST PUSH1 0x0 DUP1 REVERT JUMPDEST PUSH1 0x0 PUSH1 0x1F NOT PUSH1 0x1F DUP4 ADD AND SWAP1 POP SWAP2 SWAP1 POP JUMP JUMPDEST PUSH32 0x4E487B7100000000000000000000000000000000000000000000000000000000 PUSH1 0x0 MSTORE PUSH1 0x41 PUSH1 0x4 MSTORE PUSH1 0x24 PUSH1 0x0 REVERT JUMPDEST PUSH2 0x3C4 DUP3 PUSH2 0x37B JUMP JUMPDEST DUP2 ADD DUP2 DUP2 LT PUSH8 0xFFFFFFFFFFFFFFFF DUP3 GT OR ISZERO PUSH2 0x3E3 JUMPI PUSH2 0x3E2 PUSH2 0x38C JUMP JUMPDEST JUMPDEST DUP1 PUSH1 0x40 MSTORE POP POP POP JUMP JUMPDEST PUSH1 0x0 PUSH2 0x3F6 PUSH2 0x304 JUMP JUMPDEST SWAP1 POP PUSH2 0x402 DUP3 DUP3 PUSH2 0x3BB JUMP JUMPDEST SWAP2 SWAP1 POP JUMP JUMPDEST PUSH1 0x0 PUSH8 0xFFFFFFFFFFFFFFFF DUP3 GT ISZERO PUSH2 0x422 JUMPI PUSH2 0x421 PUSH2 0x38C JUMP JUMPDEST JUMPDEST PUSH2 0x42B DUP3 PUSH2 0x37B JUMP JUMPDEST SWAP1 POP PUSH1 0x20 DUP2 ADD SWAP1 POP SWAP2 SWAP1 POP JUMP JUMPDEST DUP3 DUP2 DUP4 CALLDATACOPY PUSH1 0x0 DUP4 DUP4 ADD MSTORE POP POP POP JUMP JUMPDEST PUSH1 0x0 PUSH2 0x45A PUSH2 0x455 DUP5 PUSH2 0x407 JUMP JUMPDEST PUSH2 0x3EC JUMP JUMPDEST SWAP1 POP DUP3 DUP2 MSTORE PUSH1 0x20 DUP2 ADD DUP5 DUP5 DUP5 ADD GT ISZERO PUSH2 0x476 JUMPI PUSH2 0x475 PUSH2 0x376 JUMP JUMPDEST JUMPDEST PUSH2 0x481 DUP5 DUP3 DUP6 PUSH2 0x438 JUMP JUMPDEST POP SWAP4 SWAP3 POP POP POP JUMP JUMPDEST PUSH1 0x0 DUP3 PUSH1 0x1F DUP4 ADD SLT PUSH2 0x49E JUMPI PUSH2 0x49D PUSH2 0x371 JUMP JUMPDEST JUMPDEST DUP2 CALLDATALOAD PUSH2 0x4AE DUP5 DUP3 PUSH1 0x20 DUP7 ADD PUSH2 0x447 JUMP JUMPDEST SWAP2 POP POP SWAP3 SWAP2 POP POP JUMP JUMPDEST PUSH1 0x0 DUP1 PUSH1 0x40 DUP4 DUP6 SUB SLT ISZERO PUSH2 0x4CE JUMPI PUSH2 0x4CD PUSH2 0x30E JUMP JUMPDEST JUMPDEST PUSH1 0x0 DUP4 ADD CALLDATALOAD PUSH8 0xFFFFFFFFFFFFFFFF DUP2 GT ISZERO PUSH2 0x4EC JUMPI PUSH2 0x4EB PUSH2 0x313 JUMP JUMPDEST JUMPDEST PUSH2 0x4F8 DUP6 DUP3 DUP7 ADD PUSH2 0x489 JUMP JUMPDEST SWAP3 POP POP PUSH1 0x20 PUSH2 0x509 DUP6 DUP3 DUP7 ADD PUSH2 0x32F JUMP JUMPDEST SWAP2 POP POP SWAP3 POP SWAP3 SWAP1 POP JUMP JUMPDEST PUSH1 0x0 PUSH1 0x20 DUP3 DUP5 SUB SLT ISZERO PUSH2 0x529 JUMPI PUSH2 0x528 PUSH2 0x30E JUMP JUMPDEST JUMPDEST PUSH1 0x0 DUP3 ADD CALLDATALOAD PUSH8 0xFFFFFFFFFFFFFFFF DUP2 GT ISZERO PUSH2 0x547 JUMPI PUSH2 0x546 PUSH2 0x313 JUMP JUMPDEST JUMPDEST PUSH2 0x553 DUP5 DUP3 DUP6 ADD PUSH2 0x489 JUMP JUMPDEST SWAP2 POP POP SWAP3 SWAP2 POP POP JUMP JUMPDEST PUSH1 0x0 DUP2 MLOAD SWAP1 POP SWAP2 SWAP1 POP JUMP JUMPDEST PUSH1 0x0 DUP3 DUP3 MSTORE PUSH1 0x20 DUP3 ADD SWAP1 POP SWAP3 SWAP2 POP POP JUMP JUMPDEST PUSH1 0x0 JUMPDEST DUP4 DUP2 LT ISZERO PUSH2 0x596 JUMPI DUP1 DUP3 ADD MLOAD DUP2 DUP5 ADD MSTORE PUSH1 0x20 DUP2 ADD SWAP1 POP PUSH2 0x57B JUMP JUMPDEST PUSH1 0x0 DUP5 DUP5 ADD MSTORE POP POP POP POP JUMP JUMPDEST PUSH1 0x0 PUSH2 0x5AD DUP3 PUSH2 0x55C JUMP JUMPDEST PUSH2 0x5B7 DUP2 DUP6 PUSH2 0x567 JUMP JUMPDEST SWAP4 POP PUSH2 0x5C7 DUP2 DUP6 PUSH1 0x20 DUP7 ADD PUSH2 0x578 JUMP JUMPDEST PUSH2 0x5D0 DUP2 PUSH2 0x37B JUMP JUMPDEST DUP5 ADD SWAP2 POP POP SWAP3 SWAP2 POP POP JUMP JUMPDEST PUSH1 0x0 PUSH1 0x40 DUP3 ADD SWAP1 POP PUSH2 0x5F0 PUSH1 0x0 DUP4 ADD DUP6 PUSH2 0x2DA JUMP JUMPDEST DUP2 DUP2 SUB PUSH1 0x20 DUP4 ADD MSTORE PUSH2 0x602 DUP2 DUP5 PUSH2 0x5A2 JUMP JUMPDEST SWAP1 POP SWAP4 SWAP3 POP POP POP JUMP JUMPDEST PUSH32 0x4E487B7100000000000000000000000000000000000000000000000000000000 PUSH1 0x0 MSTORE PUSH1 0x22 PUSH1 0x4 MSTORE PUSH1 0x24 PUSH1 0x0 REVERT JUMPDEST PUSH1 0x0 PUSH1 0x2 DUP3 DIV SWAP1 POP PUSH1 0x1 DUP3 AND DUP1 PUSH2 0x652 JUMPI PUSH1 0x7F DUP3 AND SWAP2 POP JUMPDEST PUSH1 0x20 DUP3 LT DUP2 SUB PUSH2 0x665 JUMPI PUSH2 0x664 PUSH2 0x60B JUMP JUMPDEST JUMPDEST POP SWAP2 SWAP1 POP JUMP JUMPDEST PUSH1 0x0 DUP2 SWAP1 POP DUP2 PUSH1 0x0 MSTORE PUSH1 0x20 PUSH1 0x0 KECCAK256 SWAP1 POP SWAP2 SWAP1 POP JUMP JUMPDEST PUSH1 0x0 PUSH1 0x20 PUSH1 0x1F DUP4 ADD DIV SWAP1 POP SWAP2 SWAP1 POP JUMP JUMPDEST PUSH1 0x0 DUP3 DUP3 SHL SWAP1 POP SWAP3 SWAP2 POP POP JUMP JUMPDEST PUSH1 0x0 PUSH1 0x8 DUP4 MUL PUSH2 0x6CD PUSH32 0xFFFFFFFFFFFFFFFFFFFFFFFFFFFFFFFFFFFFFFFFFFFFFFFFFFFFFFFFFFFFFFFF DUP3 PUSH2 0x690 JUMP JUMPDEST PUSH2 0x6D7 DUP7 DUP4 PUSH2 0x690 JUMP JUMPDEST SWAP6 POP DUP1 NOT DUP5 AND SWAP4 POP DUP1 DUP7 AND DUP5 OR SWAP3 POP POP POP SWAP4 SWAP3 POP POP POP JUMP JUMPDEST PUSH1 0x0 DUP2 SWAP1 POP SWAP2 SWAP1 POP JUMP JUMPDEST PUSH1 0x0 PUSH2 0x714 PUSH2 0x70F PUSH2 0x70A DUP5 PUSH2 0x2D0 JUMP JUMPDEST PUSH2 0x6EF JUMP JUMPDEST PUSH2 0x2D0 JUMP JUMPDEST SWAP1 POP SWAP2 SWAP1 POP JUMP JUMPDEST PUSH1 0x0 DUP2 SWAP1 POP SWAP2 SWAP1 POP JUMP JUMPDEST PUSH2 0x72E DUP4 PUSH2 0x6F9 JUMP JUMPDEST PUSH2 0x742 PUSH2 0x73A DUP3 PUSH2 0x71B JUMP JUMPDEST DUP5 DUP5 SLOAD PUSH2 0x69D JUMP JUMPDEST DUP3 SSTORE POP POP POP POP JUMP JUMPDEST PUSH1 0x0 SWAP1 JUMP JUMPDEST PUSH2 0x757 PUSH2 0x74A JUMP JUMPDEST PUSH2 0x762 DUP2 DUP5 DUP5 PUSH2 0x725 JUMP JUMPDEST POP POP POP JUMP JUMPDEST JUMPDEST DUP2 DUP2 LT ISZERO PUSH2 0x786 JUMPI PUSH2 0x77B PUSH1 0x0 DUP3 PUSH2 0x74F JUMP JUMPDEST PUSH1 0x1 DUP2 ADD SWAP1 POP PUSH2 0x768 JUMP JUMPDEST POP POP JUMP JUMPDEST PUSH1 0x1F DUP3 GT ISZERO PUSH2 0x7CB JUMPI PUSH2 0x79C DUP2 PUSH2 0x66B JUMP JUMPDEST PUSH2 0x7A5 DUP5 PUSH2 0x680 JUMP JUMPDEST DUP2 ADD PUSH1 0x20 DUP6 LT ISZERO PUSH2 0x7B4 JUMPI DUP2 SWAP1 POP JUMPDEST PUSH2 0x7C8 PUSH2 0x7C0 DUP6 PUSH2 0x680 JUMP JUMPDEST DUP4 ADD DUP3 PUSH2 0x767 JUMP JUMPDEST POP POP JUMPDEST POP POP POP JUMP JUMPDEST PUSH1 0x0 DUP3 DUP3 SHR SWAP1 POP SWAP3 SWAP2 POP POP JUMP JUMPDEST PUSH1 0x0 PUSH2 0x7EE PUSH1 0x0 NOT DUP5 PUSH1 0x8 MUL PUSH2 0x7D0 JUMP JUMPDEST NOT DUP1 DUP4 AND SWAP2 POP POP SWAP3 SWAP2 POP POP JUMP JUMPDEST PUSH1 0x0 PUSH2 0x807 DUP4 DUP4 PUSH2 0x7DD JUMP JUMPDEST SWAP2 POP DUP3 PUSH1 0x2 MUL DUP3 OR SWAP1 POP SWAP3 SWAP2 POP POP JUMP JUMPDEST PUSH2 0x820 DUP3 PUSH2 0x55C JUMP JUMPDEST PUSH8 0xFFFFFFFFFFFFFFFF DUP2 GT ISZERO PUSH2 0x839 JUMPI PUSH2 0x838 PUSH2 0x38C JUMP JUMPDEST JUMPDEST PUSH2 0x843 DUP3 SLOAD PUSH2 0x63A JUMP JUMPDEST PUSH2 0x84E DUP3 DUP3 DUP6 PUSH2 0x78A JUMP JUMPDEST PUSH1 0x0 PUSH1 0x20 SWAP1 POP PUSH1 0x1F DUP4 GT PUSH1 0x1 DUP2 EQ PUSH2 0x881 JUMPI PUSH1 0x0 DUP5 ISZERO PUSH2 0x86F JUMPI DUP3 DUP8 ADD MLOAD SWAP1 POP JUMPDEST PUSH2 0x879 DUP6 DUP3 PUSH2 0x7FB JUMP JUMPDEST DUP7 SSTORE POP PUSH2 0x8E1 JUMP JUMPDEST PUSH1 0x1F NOT DUP5 AND PUSH2 0x88F DUP7 PUSH2 0x66B JUMP JUMPDEST PUSH1 0x0 JUMPDEST DUP3 DUP2 LT ISZERO PUSH2 0x8B7 JUMPI DUP5 DUP10 ADD MLOAD DUP3 SSTORE PUSH1 0x1 DUP3 ADD SWAP2 POP PUSH1 0x20 DUP6 ADD SWAP5 POP PUSH1 0x20 DUP2 ADD SWAP1 POP PUSH2 0x892 JUMP JUMPDEST DUP7 DUP4 LT ISZERO PUSH2 0x8D4 JUMPI DUP5 DUP10 ADD MLOAD PUSH2 0x8D0 PUSH1 0x1F DUP10 AND DUP3 PUSH2 0x7DD JUMP JUMPDEST DUP4 SSTORE POP JUMPDEST PUSH1 0x1 PUSH1 0x2 DUP9 MUL ADD DUP9 SSTORE POP POP POP JUMPDEST POP POP POP POP POP POP JUMP JUMPDEST PUSH1 0x0 DUP2 SWAP1 POP SWAP3 SWAP2 POP POP JUMP JUMPDEST PUSH1 0x0 PUSH2 0x8FF DUP3 PUSH2 0x55C JUMP JUMPDEST PUSH2 0x909 DUP2 DUP6 PUSH2 0x8E9 JUMP JUMPDEST SWAP4 POP PUSH2 0x919 DUP2 DUP6 PUSH1 0x20 DUP7 ADD PUSH2 0x578 JUMP JUMPDEST DUP1 DUP5 ADD SWAP2 POP POP SWAP3 SWAP2 POP POP JUMP JUMPDEST PUSH1 0x0 PUSH2 0x931 DUP3 DUP5 PUSH2 0x8F4 JUMP JUMPDEST SWAP2 POP DUP2 SWAP1 POP SWAP3 SWAP2 POP POP JUMP JUMPDEST PUSH32 0x4E487B7100000000000000000000000000000000000000000000000000000000 PUSH1 0x0 MSTORE PUSH1 0x11 PUSH1 0x4 MSTORE PUSH1 0x24 PUSH1 0x0 REVERT JUMPDEST PUSH1 0x0 PUSH2 0x976 DUP3 PUSH2 0x2D0 JUMP JUMPDEST SWAP2 POP PUSH2 0x981 DUP4 PUSH2 0x2D0 JUMP JUMPDEST SWAP3 POP DUP3 DUP3 ADD SWAP1 POP DUP1 DUP3 GT ISZERO PUSH2 0x999 JUMPI PUSH2 0x998 PUSH2 0x93C JUMP JUMPDEST JUMPDEST SWAP3 SWAP2 POP POP JUMP INVALID LOG2 PUSH5 0x6970667358 0x22 SLT KECCAK256 STATICCALL 0xAE PUSH32 0x7B9323BE6618B1559025CF6026E47BB717C13FD1F51FECB0AF9AA7297564736F PUSH13 0x63430008120033A26469706673 PC 0x22 SLT KECCAK256 0xDF MUL CALLDATALOAD 0x28 SMOD CALLDATASIZE DUP6 0x5E 0xBD 0xFB CODESIZE 0xD3 SIGNEXTEND LOG0 MOD 0xAE PUSH5 0x9CB82384A 0xEA 0xD6 AND 0xB5 0xCD DUP3 0xB0 PUSH3 0xC65C64 PUSH20 0x6F6C634300081200330000000000000000000000 "
				},
				"gasEstimates": {
					"creation": {
						"codeDepositCost": "1232800",
						"executionCost": "23387",
						"totalCost": "1256187"
					},
					"external": {
						"addPerson(string,uint256)": "infinite",
						"createSimpleStorageContract()": "infinite",
						"nameToFavoriteNumber(string)": "infinite",
						"people(uint256)": "infinite",
						"pureFunction(uint256)": "infinite",
						"retrieve()": "2482",
						"sfGet(uint256)": "infinite",
						"sfStore(uint256,uint256)": "infinite",
						"simpleStorageArray(uint256)": "infinite",
						"store(uint256)": "22587"
					}
				},
				"methodIdentifiers": {
					"addPerson(string,uint256)": "6f760f41",
					"createSimpleStorageContract()": "1dda6541",
					"nameToFavoriteNumber(string)": "8bab8dd5",
					"people(uint256)": "9e7a13ad",
					"pureFunction(uint256)": "b9c03b9a",
					"retrieve()": "2e64cec1",
					"sfGet(uint256)": "c5f19c20",
					"sfStore(uint256,uint256)": "1563700f",
					"simpleStorageArray(uint256)": "64591bf1",
					"store(uint256)": "6057361d"
				}
			},
			"storageLayout": {
				"storage": [
					{
						"astId": 4,
						"contract": "contracts/StorageFactory.sol:StorageFactory",
						"label": "favoriteNumber",
						"offset": 0,
						"slot": "0",
						"type": "t_uint256"
					},
					{
						"astId": 41,
						"contract": "contracts/StorageFactory.sol:StorageFactory",
						"label": "people",
						"offset": 0,
						"slot": "1",
						"type": "t_array(t_struct(People)37_storage)dyn_storage"
					},
					{
						"astId": 45,
						"contract": "contracts/StorageFactory.sol:StorageFactory",
						"label": "nameToFavoriteNumber",
						"offset": 0,
						"slot": "2",
						"type": "t_mapping(t_string_memory_ptr,t_uint256)"
					},
					{
						"astId": 78,
						"contract": "contracts/StorageFactory.sol:StorageFactory",
						"label": "simpleStorageArray",
						"offset": 0,
						"slot": "3",
						"type": "t_array(t_contract(SimpleStorage)69)dyn_storage"
					}
				],
				"types": {
					"t_array(t_contract(SimpleStorage)69)dyn_storage": {
						"base": "t_contract(SimpleStorage)69",
						"encoding": "dynamic_array",
						"label": "contract SimpleStorage[]",
						"numberOfBytes": "32"
					},
					"t_array(t_struct(People)37_storage)dyn_storage": {
						"base": "t_struct(People)37_storage",
						"encoding": "dynamic_array",
						"label": "struct SimpleStorage.People[]",
						"numberOfBytes": "32"
					},
					"t_contract(SimpleStorage)69": {
						"encoding": "inplace",
						"label": "contract SimpleStorage",
						"numberOfBytes": "20"
					},
					"t_mapping(t_string_memory_ptr,t_uint256)": {
						"encoding": "mapping",
						"key": "t_string_memory_ptr",
						"label": "mapping(string => uint256)",
						"numberOfBytes": "32",
						"value": "t_uint256"
					},
					"t_string_memory_ptr": {
						"encoding": "bytes",
						"label": "string",
						"numberOfBytes": "32"
					},
					"t_string_storage": {
						"encoding": "bytes",
						"label": "string",
						"numberOfBytes": "32"
					},
					"t_struct(People)37_storage": {
						"encoding": "inplace",
						"label": "struct SimpleStorage.People",
						"members": [
							{
								"astId": 34,
								"contract": "contracts/StorageFactory.sol:StorageFactory",
								"label": "favoriteNumber",
								"offset": 0,
								"slot": "0",
								"type": "t_uint256"
							},
							{
								"astId": 36,
								"contract": "contracts/StorageFactory.sol:StorageFactory",
								"label": "name",
								"offset": 0,
								"slot": "1",
								"type": "t_string_storage"
							}
						],
						"numberOfBytes": "64"
					},
					"t_uint256": {
						"encoding": "inplace",
						"label": "uint256",
						"numberOfBytes": "32"
					}
				}
			},
			"userdoc": {
				"kind": "user",
				"methods": {},
				"version": 1
			}
		}
	}
}