{
	"contracts/FoundMe.sol": {
		"FoundMe": {
			"abi": [
				{
					"inputs": [
						{
							"internalType": "address",
							"name": "",
							"type": "address"
						}
					],
					"name": "adressToAmountFounded",
					"outputs": [
						{
							"internalType": "uint256",
							"name": "",
							"type": "uint256"
						}
					],
					"stateMutability": "view",
					"type": "function"
				},
				{
					"inputs": [],
					"name": "found",
					"outputs": [],
					"stateMutability": "payable",
					"type": "function"
				},
				{
					"inputs": [
						{
							"internalType": "uint256",
							"name": "ethAmount",
							"type": "uint256"
						}
					],
					"name": "getConversionRate",
					"outputs": [
						{
							"internalType": "uint256",
							"name": "",
							"type": "uint256"
						}
					],
					"stateMutability": "view",
					"type": "function"
				},
				{
					"inputs": [],
					"name": "getPrice",
					"outputs": [
						{
							"internalType": "uint256",
							"name": "",
							"type": "uint256"
						}
					],
					"stateMutability": "view",
					"type": "function"
				},
				{
					"inputs": [],
					"name": "getVersion",
					"outputs": [
						{
							"internalType": "uint256",
							"name": "",
							"type": "uint256"
						}
					],
					"stateMutability": "view",
					"type": "function"
				}
			],
			"devdoc": {
				"kind": "dev",
				"methods": {},
				"version": 1
			},
			"evm": {
				"assembly": "    /* \"contracts/FoundMe.sol\":134:1120  contract FoundMe {... */\n  mstore(0x40, 0x80)\n  callvalue\n  dup1\n  iszero\n  tag_1\n  jumpi\n  0x00\n  dup1\n  revert\ntag_1:\n  pop\n  dataSize(sub_0)\n  dup1\n  dataOffset(sub_0)\n  0x00\n  codecopy\n  0x00\n  return\nstop\n\nsub_0: assembly {\n        /* \"contracts/FoundMe.sol\":134:1120  contract FoundMe {... */\n      mstore(0x40, 0x80)\n      jumpi(tag_1, lt(calldatasize, 0x04))\n      shr(0xe0, calldataload(0x00))\n      dup1\n      0x0d8e6e2c\n      eq\n      tag_2\n      jumpi\n      dup1\n      0x3d750b28\n      eq\n      tag_3\n      jumpi\n      dup1\n      0x6e5b6b28\n      eq\n      tag_4\n      jumpi\n      dup1\n      0x98d5fdca\n      eq\n      tag_5\n      jumpi\n      dup1\n      0xa42d06ac\n      eq\n      tag_6\n      jumpi\n    tag_1:\n      0x00\n      dup1\n      revert\n        /* \"contracts/FoundMe.sol\":349:576  function getVersion() public view returns (uint256) {... */\n    tag_2:\n      callvalue\n      dup1\n      iszero\n      tag_7\n      jumpi\n      0x00\n      dup1\n      revert\n    tag_7:\n      pop\n      tag_8\n      tag_9\n      jump\t// in\n    tag_8:\n      mload(0x40)\n      tag_10\n      swap2\n      swap1\n      tag_11\n      jump\t// in\n    tag_10:\n      mload(0x40)\n      dup1\n      swap2\n      sub\n      swap1\n      return\n        /* \"contracts/FoundMe.sol\":220:343  function found() public payable {... */\n    tag_3:\n      tag_12\n      tag_13\n      jump\t// in\n    tag_12:\n      stop\n        /* \"contracts/FoundMe.sol\":886:1118  function getConversionRate(uint256 ethAmount) public view returns(uint256) {... */\n    tag_4:\n      callvalue\n      dup1\n      iszero\n      tag_14\n      jumpi\n      0x00\n      dup1\n      revert\n    tag_14:\n      pop\n      tag_15\n      0x04\n      dup1\n      calldatasize\n      sub\n      dup2\n      add\n      swap1\n      tag_16\n      swap2\n      swap1\n      tag_17\n      jump\t// in\n    tag_16:\n      tag_18\n      jump\t// in\n    tag_15:\n      mload(0x40)\n      tag_19\n      swap2\n      swap1\n      tag_11\n      jump\t// in\n    tag_19:\n      mload(0x40)\n      dup1\n      swap2\n      sub\n      swap1\n      return\n        /* \"contracts/FoundMe.sol\":582:880  function getPrice() public view returns (uint256) {... */\n    tag_5:\n      callvalue\n      dup1\n      iszero\n      tag_20\n      jumpi\n      0x00\n      dup1\n      revert\n    tag_20:\n      pop\n      tag_21\n      tag_22\n      jump\t// in\n    tag_21:\n      mload(0x40)\n      tag_23\n      swap2\n      swap1\n      tag_11\n      jump\t// in\n    tag_23:\n      mload(0x40)\n      dup1\n      swap2\n      sub\n      swap1\n      return\n        /* \"contracts/FoundMe.sol\":157:213  mapping(address => uint256) public adressToAmountFounded */\n    tag_6:\n      callvalue\n      dup1\n      iszero\n      tag_24\n      jumpi\n      0x00\n      dup1\n      revert\n    tag_24:\n      pop\n      tag_25\n      0x04\n      dup1\n      calldatasize\n      sub\n      dup2\n      add\n      swap1\n      tag_26\n      swap2\n      swap1\n      tag_27\n      jump\t// in\n    tag_26:\n      tag_28\n      jump\t// in\n    tag_25:\n      mload(0x40)\n      tag_29\n      swap2\n      swap1\n      tag_11\n      jump\t// in\n    tag_29:\n      mload(0x40)\n      dup1\n      swap2\n      sub\n      swap1\n      return\n        /* \"contracts/FoundMe.sol\":349:576  function getVersion() public view returns (uint256) {... */\n    tag_9:\n        /* \"contracts/FoundMe.sol\":392:399  uint256 */\n      0x00\n        /* \"contracts/FoundMe.sol\":411:442  AggregatorV3Interface priceFeed */\n      dup1\n        /* \"contracts/FoundMe.sol\":480:522  0x694AA1769357215DE4FAC081bf1f309aDC325306 */\n      0x694aa1769357215de4fac081bf1f309adc325306\n        /* \"contracts/FoundMe.sol\":411:532  AggregatorV3Interface priceFeed = AggregatorV3Interface(... */\n      swap1\n      pop\n        /* \"contracts/FoundMe.sol\":550:559  priceFeed */\n      dup1\n        /* \"contracts/FoundMe.sol\":550:567  priceFeed.version */\n      0xffffffffffffffffffffffffffffffffffffffff\n      and\n      0x54fd4d50\n        /* \"contracts/FoundMe.sol\":550:569  priceFeed.version() */\n      mload(0x40)\n      dup2\n      0xffffffff\n      and\n      0xe0\n      shl\n      dup2\n      mstore\n      0x04\n      add\n      0x20\n      mload(0x40)\n      dup1\n      dup4\n      sub\n      dup2\n      dup7\n      gas\n      staticcall\n      iszero\n      dup1\n      iszero\n      tag_32\n      jumpi\n      returndatasize\n      0x00\n      dup1\n      returndatacopy\n      revert(0x00, returndatasize)\n    tag_32:\n      pop\n      pop\n      pop\n      pop\n      mload(0x40)\n      returndatasize\n      not(0x1f)\n      0x1f\n      dup3\n      add\n      and\n      dup3\n      add\n      dup1\n      0x40\n      mstore\n      pop\n      dup2\n      add\n      swap1\n      tag_33\n      swap2\n      swap1\n      tag_34\n      jump\t// in\n    tag_33:\n        /* \"contracts/FoundMe.sol\":543:569  return priceFeed.version() */\n      swap2\n      pop\n      pop\n        /* \"contracts/FoundMe.sol\":349:576  function getVersion() public view returns (uint256) {... */\n      swap1\n      jump\t// out\n        /* \"contracts/FoundMe.sol\":220:343  function found() public payable {... */\n    tag_13:\n        /* \"contracts/FoundMe.sol\":327:336  msg.value */\n      callvalue\n        /* \"contracts/FoundMe.sol\":290:311  adressToAmountFounded */\n      0x00\n        /* \"contracts/FoundMe.sol\":290:323  adressToAmountFounded[msg.sender] */\n      dup1\n        /* \"contracts/FoundMe.sol\":312:322  msg.sender */\n      caller\n        /* \"contracts/FoundMe.sol\":290:323  adressToAmountFounded[msg.sender] */\n      0xffffffffffffffffffffffffffffffffffffffff\n      and\n      0xffffffffffffffffffffffffffffffffffffffff\n      and\n      dup2\n      mstore\n      0x20\n      add\n      swap1\n      dup2\n      mstore\n      0x20\n      add\n      0x00\n      keccak256\n      0x00\n        /* \"contracts/FoundMe.sol\":290:336  adressToAmountFounded[msg.sender] += msg.value */\n      dup3\n      dup3\n      sload\n      tag_36\n      swap2\n      swap1\n      tag_37\n      jump\t// in\n    tag_36:\n      swap3\n      pop\n      pop\n      dup2\n      swap1\n      sstore\n      pop\n        /* \"contracts/FoundMe.sol\":220:343  function found() public payable {... */\n      jump\t// out\n        /* \"contracts/FoundMe.sol\":886:1118  function getConversionRate(uint256 ethAmount) public view returns(uint256) {... */\n    tag_18:\n        /* \"contracts/FoundMe.sol\":952:959  uint256 */\n      0x00\n        /* \"contracts/FoundMe.sol\":971:987  uint256 ethPrice */\n      dup1\n        /* \"contracts/FoundMe.sol\":990:1000  getPrice() */\n      tag_39\n        /* \"contracts/FoundMe.sol\":990:998  getPrice */\n      tag_22\n        /* \"contracts/FoundMe.sol\":990:1000  getPrice() */\n      jump\t// in\n    tag_39:\n        /* \"contracts/FoundMe.sol\":971:1000  uint256 ethPrice = getPrice() */\n      swap1\n      pop\n        /* \"contracts/FoundMe.sol\":1010:1032  uint256 ethAmountInUsd */\n      0x00\n        /* \"contracts/FoundMe.sol\":1060:1079  1000000000000000000 */\n      0x0de0b6b3a7640000\n        /* \"contracts/FoundMe.sol\":1047:1056  ethAmount */\n      dup5\n        /* \"contracts/FoundMe.sol\":1036:1044  ethPrice */\n      dup4\n        /* \"contracts/FoundMe.sol\":1036:1056  ethPrice * ethAmount */\n      tag_40\n      swap2\n      swap1\n      tag_41\n      jump\t// in\n    tag_40:\n        /* \"contracts/FoundMe.sol\":1035:1079  (ethPrice * ethAmount) / 1000000000000000000 */\n      tag_42\n      swap2\n      swap1\n      tag_43\n      jump\t// in\n    tag_42:\n        /* \"contracts/FoundMe.sol\":1010:1079  uint256 ethAmountInUsd = (ethPrice * ethAmount) / 1000000000000000000 */\n      swap1\n      pop\n        /* \"contracts/FoundMe.sol\":1097:1111  ethAmountInUsd */\n      dup1\n        /* \"contracts/FoundMe.sol\":1090:1111  return ethAmountInUsd */\n      swap3\n      pop\n      pop\n      pop\n        /* \"contracts/FoundMe.sol\":886:1118  function getConversionRate(uint256 ethAmount) public view returns(uint256) {... */\n      swap2\n      swap1\n      pop\n      jump\t// out\n        /* \"contracts/FoundMe.sol\":582:880  function getPrice() public view returns (uint256) {... */\n    tag_22:\n        /* \"contracts/FoundMe.sol\":623:630  uint256 */\n      0x00\n        /* \"contracts/FoundMe.sol\":642:673  AggregatorV3Interface priceFeed */\n      dup1\n        /* \"contracts/FoundMe.sol\":711:753  0x694AA1769357215DE4FAC081bf1f309aDC325306 */\n      0x694aa1769357215de4fac081bf1f309adc325306\n        /* \"contracts/FoundMe.sol\":642:763  AggregatorV3Interface priceFeed = AggregatorV3Interface(... */\n      swap1\n      pop\n        /* \"contracts/FoundMe.sol\":777:790  int256 answer */\n      0x00\n        /* \"contracts/FoundMe.sol\":800:809  priceFeed */\n      dup2\n        /* \"contracts/FoundMe.sol\":800:825  priceFeed.latestRoundData */\n      0xffffffffffffffffffffffffffffffffffffffff\n      and\n      0xfeaf968c\n        /* \"contracts/FoundMe.sol\":800:827  priceFeed.latestRoundData() */\n      mload(0x40)\n      dup2\n      0xffffffff\n      and\n      0xe0\n      shl\n      dup2\n      mstore\n      0x04\n      add\n      0xa0\n      mload(0x40)\n      dup1\n      dup4\n      sub\n      dup2\n      dup7\n      gas\n      staticcall\n      iszero\n      dup1\n      iszero\n      tag_46\n      jumpi\n      returndatasize\n      0x00\n      dup1\n      returndatacopy\n      revert(0x00, returndatasize)\n    tag_46:\n      pop\n      pop\n      pop\n      pop\n      mload(0x40)\n      returndatasize\n      not(0x1f)\n      0x1f\n      dup3\n      add\n      and\n      dup3\n      add\n      dup1\n      0x40\n      mstore\n      pop\n      dup2\n      add\n      swap1\n      tag_47\n      swap2\n      swap1\n      tag_48\n      jump\t// in\n    tag_47:\n        /* \"contracts/FoundMe.sol\":774:827  (, int256 answer, , , ) = priceFeed.latestRoundData() */\n      pop\n      pop\n      pop\n      swap2\n      pop\n      pop\n        /* \"contracts/FoundMe.sol\":861:872  10000000000 */\n      0x02540be400\n        /* \"contracts/FoundMe.sol\":852:858  answer */\n      dup2\n        /* \"contracts/FoundMe.sol\":852:872  answer * 10000000000 */\n      tag_49\n      swap2\n      swap1\n      tag_50\n      jump\t// in\n    tag_49:\n        /* \"contracts/FoundMe.sol\":837:873  return uint256(answer * 10000000000) */\n      swap3\n      pop\n      pop\n      pop\n        /* \"contracts/FoundMe.sol\":582:880  function getPrice() public view returns (uint256) {... */\n      swap1\n      jump\t// out\n        /* \"contracts/FoundMe.sol\":157:213  mapping(address => uint256) public adressToAmountFounded */\n    tag_28:\n      mstore(0x20, 0x00)\n      dup1\n      0x00\n      mstore\n      keccak256(0x00, 0x40)\n      0x00\n      swap2\n      pop\n      swap1\n      pop\n      sload\n      dup2\n      jump\t// out\n        /* \"#utility.yul\":7:84   */\n    tag_51:\n        /* \"#utility.yul\":44:51   */\n      0x00\n        /* \"#utility.yul\":73:78   */\n      dup2\n        /* \"#utility.yul\":62:78   */\n      swap1\n      pop\n        /* \"#utility.yul\":7:84   */\n      swap2\n      swap1\n      pop\n      jump\t// out\n        /* \"#utility.yul\":90:208   */\n    tag_52:\n        /* \"#utility.yul\":177:201   */\n      tag_74\n        /* \"#utility.yul\":195:200   */\n      dup2\n        /* \"#utility.yul\":177:201   */\n      tag_51\n      jump\t// in\n    tag_74:\n        /* \"#utility.yul\":172:175   */\n      dup3\n        /* \"#utility.yul\":165:202   */\n      mstore\n        /* \"#utility.yul\":90:208   */\n      pop\n      pop\n      jump\t// out\n        /* \"#utility.yul\":214:436   */\n    tag_11:\n        /* \"#utility.yul\":307:311   */\n      0x00\n        /* \"#utility.yul\":345:347   */\n      0x20\n        /* \"#utility.yul\":334:343   */\n      dup3\n        /* \"#utility.yul\":330:348   */\n      add\n        /* \"#utility.yul\":322:348   */\n      swap1\n      pop\n        /* \"#utility.yul\":358:429   */\n      tag_76\n        /* \"#utility.yul\":426:427   */\n      0x00\n        /* \"#utility.yul\":415:424   */\n      dup4\n        /* \"#utility.yul\":411:428   */\n      add\n        /* \"#utility.yul\":402:408   */\n      dup5\n        /* \"#utility.yul\":358:429   */\n      tag_52\n      jump\t// in\n    tag_76:\n        /* \"#utility.yul\":214:436   */\n      swap3\n      swap2\n      pop\n      pop\n      jump\t// out\n        /* \"#utility.yul\":523:640   */\n    tag_54:\n        /* \"#utility.yul\":632:633   */\n      0x00\n        /* \"#utility.yul\":629:630   */\n      dup1\n        /* \"#utility.yul\":622:634   */\n      revert\n        /* \"#utility.yul\":769:891   */\n    tag_56:\n        /* \"#utility.yul\":842:866   */\n      tag_81\n        /* \"#utility.yul\":860:865   */\n      dup2\n        /* \"#utility.yul\":842:866   */\n      tag_51\n      jump\t// in\n    tag_81:\n        /* \"#utility.yul\":835:840   */\n      dup2\n        /* \"#utility.yul\":832:867   */\n      eq\n        /* \"#utility.yul\":822:885   */\n      tag_82\n      jumpi\n        /* \"#utility.yul\":881:882   */\n      0x00\n        /* \"#utility.yul\":878:879   */\n      dup1\n        /* \"#utility.yul\":871:883   */\n      revert\n        /* \"#utility.yul\":822:885   */\n    tag_82:\n        /* \"#utility.yul\":769:891   */\n      pop\n      jump\t// out\n        /* \"#utility.yul\":897:1036   */\n    tag_57:\n        /* \"#utility.yul\":943:948   */\n      0x00\n        /* \"#utility.yul\":981:987   */\n      dup2\n        /* \"#utility.yul\":968:988   */\n      calldataload\n        /* \"#utility.yul\":959:988   */\n      swap1\n      pop\n        /* \"#utility.yul\":997:1030   */\n      tag_84\n        /* \"#utility.yul\":1024:1029   */\n      dup2\n        /* \"#utility.yul\":997:1030   */\n      tag_56\n      jump\t// in\n    tag_84:\n        /* \"#utility.yul\":897:1036   */\n      swap3\n      swap2\n      pop\n      pop\n      jump\t// out\n        /* \"#utility.yul\":1042:1371   */\n    tag_17:\n        /* \"#utility.yul\":1101:1107   */\n      0x00\n        /* \"#utility.yul\":1150:1152   */\n      0x20\n        /* \"#utility.yul\":1138:1147   */\n      dup3\n        /* \"#utility.yul\":1129:1136   */\n      dup5\n        /* \"#utility.yul\":1125:1148   */\n      sub\n        /* \"#utility.yul\":1121:1153   */\n      slt\n        /* \"#utility.yul\":1118:1237   */\n      iszero\n      tag_86\n      jumpi\n        /* \"#utility.yul\":1156:1235   */\n      tag_87\n      tag_54\n      jump\t// in\n    tag_87:\n        /* \"#utility.yul\":1118:1237   */\n    tag_86:\n        /* \"#utility.yul\":1276:1277   */\n      0x00\n        /* \"#utility.yul\":1301:1354   */\n      tag_88\n        /* \"#utility.yul\":1346:1353   */\n      dup5\n        /* \"#utility.yul\":1337:1343   */\n      dup3\n        /* \"#utility.yul\":1326:1335   */\n      dup6\n        /* \"#utility.yul\":1322:1344   */\n      add\n        /* \"#utility.yul\":1301:1354   */\n      tag_57\n      jump\t// in\n    tag_88:\n        /* \"#utility.yul\":1291:1354   */\n      swap2\n      pop\n        /* \"#utility.yul\":1247:1364   */\n      pop\n        /* \"#utility.yul\":1042:1371   */\n      swap3\n      swap2\n      pop\n      pop\n      jump\t// out\n        /* \"#utility.yul\":1377:1503   */\n    tag_58:\n        /* \"#utility.yul\":1414:1421   */\n      0x00\n        /* \"#utility.yul\":1454:1496   */\n      0xffffffffffffffffffffffffffffffffffffffff\n        /* \"#utility.yul\":1447:1452   */\n      dup3\n        /* \"#utility.yul\":1443:1497   */\n      and\n        /* \"#utility.yul\":1432:1497   */\n      swap1\n      pop\n        /* \"#utility.yul\":1377:1503   */\n      swap2\n      swap1\n      pop\n      jump\t// out\n        /* \"#utility.yul\":1509:1605   */\n    tag_59:\n        /* \"#utility.yul\":1546:1553   */\n      0x00\n        /* \"#utility.yul\":1575:1599   */\n      tag_91\n        /* \"#utility.yul\":1593:1598   */\n      dup3\n        /* \"#utility.yul\":1575:1599   */\n      tag_58\n      jump\t// in\n    tag_91:\n        /* \"#utility.yul\":1564:1599   */\n      swap1\n      pop\n        /* \"#utility.yul\":1509:1605   */\n      swap2\n      swap1\n      pop\n      jump\t// out\n        /* \"#utility.yul\":1611:1733   */\n    tag_60:\n        /* \"#utility.yul\":1684:1708   */\n      tag_93\n        /* \"#utility.yul\":1702:1707   */\n      dup2\n        /* \"#utility.yul\":1684:1708   */\n      tag_59\n      jump\t// in\n    tag_93:\n        /* \"#utility.yul\":1677:1682   */\n      dup2\n        /* \"#utility.yul\":1674:1709   */\n      eq\n        /* \"#utility.yul\":1664:1727   */\n      tag_94\n      jumpi\n        /* \"#utility.yul\":1723:1724   */\n      0x00\n        /* \"#utility.yul\":1720:1721   */\n      dup1\n        /* \"#utility.yul\":1713:1725   */\n      revert\n        /* \"#utility.yul\":1664:1727   */\n    tag_94:\n        /* \"#utility.yul\":1611:1733   */\n      pop\n      jump\t// out\n        /* \"#utility.yul\":1739:1878   */\n    tag_61:\n        /* \"#utility.yul\":1785:1790   */\n      0x00\n        /* \"#utility.yul\":1823:1829   */\n      dup2\n        /* \"#utility.yul\":1810:1830   */\n      calldataload\n        /* \"#utility.yul\":1801:1830   */\n      swap1\n      pop\n        /* \"#utility.yul\":1839:1872   */\n      tag_96\n        /* \"#utility.yul\":1866:1871   */\n      dup2\n        /* \"#utility.yul\":1839:1872   */\n      tag_60\n      jump\t// in\n    tag_96:\n        /* \"#utility.yul\":1739:1878   */\n      swap3\n      swap2\n      pop\n      pop\n      jump\t// out\n        /* \"#utility.yul\":1884:2213   */\n    tag_27:\n        /* \"#utility.yul\":1943:1949   */\n      0x00\n        /* \"#utility.yul\":1992:1994   */\n      0x20\n        /* \"#utility.yul\":1980:1989   */\n      dup3\n        /* \"#utility.yul\":1971:1978   */\n      dup5\n        /* \"#utility.yul\":1967:1990   */\n      sub\n        /* \"#utility.yul\":1963:1995   */\n      slt\n        /* \"#utility.yul\":1960:2079   */\n      iszero\n      tag_98\n      jumpi\n        /* \"#utility.yul\":1998:2077   */\n      tag_99\n      tag_54\n      jump\t// in\n    tag_99:\n        /* \"#utility.yul\":1960:2079   */\n    tag_98:\n        /* \"#utility.yul\":2118:2119   */\n      0x00\n        /* \"#utility.yul\":2143:2196   */\n      tag_100\n        /* \"#utility.yul\":2188:2195   */\n      dup5\n        /* \"#utility.yul\":2179:2185   */\n      dup3\n        /* \"#utility.yul\":2168:2177   */\n      dup6\n        /* \"#utility.yul\":2164:2186   */\n      add\n        /* \"#utility.yul\":2143:2196   */\n      tag_61\n      jump\t// in\n    tag_100:\n        /* \"#utility.yul\":2133:2196   */\n      swap2\n      pop\n        /* \"#utility.yul\":2089:2206   */\n      pop\n        /* \"#utility.yul\":1884:2213   */\n      swap3\n      swap2\n      pop\n      pop\n      jump\t// out\n        /* \"#utility.yul\":2219:2362   */\n    tag_62:\n        /* \"#utility.yul\":2276:2281   */\n      0x00\n        /* \"#utility.yul\":2307:2313   */\n      dup2\n        /* \"#utility.yul\":2301:2314   */\n      mload\n        /* \"#utility.yul\":2292:2314   */\n      swap1\n      pop\n        /* \"#utility.yul\":2323:2356   */\n      tag_102\n        /* \"#utility.yul\":2350:2355   */\n      dup2\n        /* \"#utility.yul\":2323:2356   */\n      tag_56\n      jump\t// in\n    tag_102:\n        /* \"#utility.yul\":2219:2362   */\n      swap3\n      swap2\n      pop\n      pop\n      jump\t// out\n        /* \"#utility.yul\":2368:2719   */\n    tag_34:\n        /* \"#utility.yul\":2438:2444   */\n      0x00\n        /* \"#utility.yul\":2487:2489   */\n      0x20\n        /* \"#utility.yul\":2475:2484   */\n      dup3\n        /* \"#utility.yul\":2466:2473   */\n      dup5\n        /* \"#utility.yul\":2462:2485   */\n      sub\n        /* \"#utility.yul\":2458:2490   */\n      slt\n        /* \"#utility.yul\":2455:2574   */\n      iszero\n      tag_104\n      jumpi\n        /* \"#utility.yul\":2493:2572   */\n      tag_105\n      tag_54\n      jump\t// in\n    tag_105:\n        /* \"#utility.yul\":2455:2574   */\n    tag_104:\n        /* \"#utility.yul\":2613:2614   */\n      0x00\n        /* \"#utility.yul\":2638:2702   */\n      tag_106\n        /* \"#utility.yul\":2694:2701   */\n      dup5\n        /* \"#utility.yul\":2685:2691   */\n      dup3\n        /* \"#utility.yul\":2674:2683   */\n      dup6\n        /* \"#utility.yul\":2670:2692   */\n      add\n        /* \"#utility.yul\":2638:2702   */\n      tag_62\n      jump\t// in\n    tag_106:\n        /* \"#utility.yul\":2628:2702   */\n      swap2\n      pop\n        /* \"#utility.yul\":2584:2712   */\n      pop\n        /* \"#utility.yul\":2368:2719   */\n      swap3\n      swap2\n      pop\n      pop\n      jump\t// out\n        /* \"#utility.yul\":2725:2905   */\n    tag_63:\n        /* \"#utility.yul\":2773:2850   */\n      0x4e487b7100000000000000000000000000000000000000000000000000000000\n        /* \"#utility.yul\":2770:2771   */\n      0x00\n        /* \"#utility.yul\":2763:2851   */\n      mstore\n        /* \"#utility.yul\":2870:2874   */\n      0x11\n        /* \"#utility.yul\":2867:2868   */\n      0x04\n        /* \"#utility.yul\":2860:2875   */\n      mstore\n        /* \"#utility.yul\":2894:2898   */\n      0x24\n        /* \"#utility.yul\":2891:2892   */\n      0x00\n        /* \"#utility.yul\":2884:2899   */\n      revert\n        /* \"#utility.yul\":2911:3102   */\n    tag_37:\n        /* \"#utility.yul\":2951:2954   */\n      0x00\n        /* \"#utility.yul\":2970:2990   */\n      tag_109\n        /* \"#utility.yul\":2988:2989   */\n      dup3\n        /* \"#utility.yul\":2970:2990   */\n      tag_51\n      jump\t// in\n    tag_109:\n        /* \"#utility.yul\":2965:2990   */\n      swap2\n      pop\n        /* \"#utility.yul\":3004:3024   */\n      tag_110\n        /* \"#utility.yul\":3022:3023   */\n      dup4\n        /* \"#utility.yul\":3004:3024   */\n      tag_51\n      jump\t// in\n    tag_110:\n        /* \"#utility.yul\":2999:3024   */\n      swap3\n      pop\n        /* \"#utility.yul\":3047:3048   */\n      dup3\n        /* \"#utility.yul\":3044:3045   */\n      dup3\n        /* \"#utility.yul\":3040:3049   */\n      add\n        /* \"#utility.yul\":3033:3049   */\n      swap1\n      pop\n        /* \"#utility.yul\":3068:3071   */\n      dup1\n        /* \"#utility.yul\":3065:3066   */\n      dup3\n        /* \"#utility.yul\":3062:3072   */\n      gt\n        /* \"#utility.yul\":3059:3095   */\n      iszero\n      tag_111\n      jumpi\n        /* \"#utility.yul\":3075:3093   */\n      tag_112\n      tag_63\n      jump\t// in\n    tag_112:\n        /* \"#utility.yul\":3059:3095   */\n    tag_111:\n        /* \"#utility.yul\":2911:3102   */\n      swap3\n      swap2\n      pop\n      pop\n      jump\t// out\n        /* \"#utility.yul\":3108:3518   */\n    tag_41:\n        /* \"#utility.yul\":3148:3155   */\n      0x00\n        /* \"#utility.yul\":3171:3191   */\n      tag_114\n        /* \"#utility.yul\":3189:3190   */\n      dup3\n        /* \"#utility.yul\":3171:3191   */\n      tag_51\n      jump\t// in\n    tag_114:\n        /* \"#utility.yul\":3166:3191   */\n      swap2\n      pop\n        /* \"#utility.yul\":3205:3225   */\n      tag_115\n        /* \"#utility.yul\":3223:3224   */\n      dup4\n        /* \"#utility.yul\":3205:3225   */\n      tag_51\n      jump\t// in\n    tag_115:\n        /* \"#utility.yul\":3200:3225   */\n      swap3\n      pop\n        /* \"#utility.yul\":3260:3261   */\n      dup3\n        /* \"#utility.yul\":3257:3258   */\n      dup3\n        /* \"#utility.yul\":3253:3262   */\n      mul\n        /* \"#utility.yul\":3282:3312   */\n      tag_116\n        /* \"#utility.yul\":3300:3311   */\n      dup2\n        /* \"#utility.yul\":3282:3312   */\n      tag_51\n      jump\t// in\n    tag_116:\n        /* \"#utility.yul\":3271:3312   */\n      swap2\n      pop\n        /* \"#utility.yul\":3461:3462   */\n      dup3\n        /* \"#utility.yul\":3452:3459   */\n      dup3\n        /* \"#utility.yul\":3448:3463   */\n      div\n        /* \"#utility.yul\":3445:3446   */\n      dup5\n        /* \"#utility.yul\":3442:3464   */\n      eq\n        /* \"#utility.yul\":3422:3423   */\n      dup4\n        /* \"#utility.yul\":3415:3424   */\n      iszero\n        /* \"#utility.yul\":3395:3478   */\n      or\n        /* \"#utility.yul\":3372:3511   */\n      tag_117\n      jumpi\n        /* \"#utility.yul\":3491:3509   */\n      tag_118\n      tag_63\n      jump\t// in\n    tag_118:\n        /* \"#utility.yul\":3372:3511   */\n    tag_117:\n        /* \"#utility.yul\":3156:3518   */\n      pop\n        /* \"#utility.yul\":3108:3518   */\n      swap3\n      swap2\n      pop\n      pop\n      jump\t// out\n        /* \"#utility.yul\":3524:3704   */\n    tag_64:\n        /* \"#utility.yul\":3572:3649   */\n      0x4e487b7100000000000000000000000000000000000000000000000000000000\n        /* \"#utility.yul\":3569:3570   */\n      0x00\n        /* \"#utility.yul\":3562:3650   */\n      mstore\n        /* \"#utility.yul\":3669:3673   */\n      0x12\n        /* \"#utility.yul\":3666:3667   */\n      0x04\n        /* \"#utility.yul\":3659:3674   */\n      mstore\n        /* \"#utility.yul\":3693:3697   */\n      0x24\n        /* \"#utility.yul\":3690:3691   */\n      0x00\n        /* \"#utility.yul\":3683:3698   */\n      revert\n        /* \"#utility.yul\":3710:3895   */\n    tag_43:\n        /* \"#utility.yul\":3750:3751   */\n      0x00\n        /* \"#utility.yul\":3767:3787   */\n      tag_121\n        /* \"#utility.yul\":3785:3786   */\n      dup3\n        /* \"#utility.yul\":3767:3787   */\n      tag_51\n      jump\t// in\n    tag_121:\n        /* \"#utility.yul\":3762:3787   */\n      swap2\n      pop\n        /* \"#utility.yul\":3801:3821   */\n      tag_122\n        /* \"#utility.yul\":3819:3820   */\n      dup4\n        /* \"#utility.yul\":3801:3821   */\n      tag_51\n      jump\t// in\n    tag_122:\n        /* \"#utility.yul\":3796:3821   */\n      swap3\n      pop\n        /* \"#utility.yul\":3840:3841   */\n      dup3\n        /* \"#utility.yul\":3830:3865   */\n      tag_123\n      jumpi\n        /* \"#utility.yul\":3845:3863   */\n      tag_124\n      tag_64\n      jump\t// in\n    tag_124:\n        /* \"#utility.yul\":3830:3865   */\n    tag_123:\n        /* \"#utility.yul\":3887:3888   */\n      dup3\n        /* \"#utility.yul\":3884:3885   */\n      dup3\n        /* \"#utility.yul\":3880:3889   */\n      div\n        /* \"#utility.yul\":3875:3889   */\n      swap1\n      pop\n        /* \"#utility.yul\":3710:3895   */\n      swap3\n      swap2\n      pop\n      pop\n      jump\t// out\n        /* \"#utility.yul\":3901:4006   */\n    tag_65:\n        /* \"#utility.yul\":3937:3944   */\n      0x00\n        /* \"#utility.yul\":3977:3999   */\n      0xffffffffffffffffffff\n        /* \"#utility.yul\":3970:3975   */\n      dup3\n        /* \"#utility.yul\":3966:4000   */\n      and\n        /* \"#utility.yul\":3955:4000   */\n      swap1\n      pop\n        /* \"#utility.yul\":3901:4006   */\n      swap2\n      swap1\n      pop\n      jump\t// out\n        /* \"#utility.yul\":4012:4132   */\n    tag_66:\n        /* \"#utility.yul\":4084:4107   */\n      tag_127\n        /* \"#utility.yul\":4101:4106   */\n      dup2\n        /* \"#utility.yul\":4084:4107   */\n      tag_65\n      jump\t// in\n    tag_127:\n        /* \"#utility.yul\":4077:4082   */\n      dup2\n        /* \"#utility.yul\":4074:4108   */\n      eq\n        /* \"#utility.yul\":4064:4126   */\n      tag_128\n      jumpi\n        /* \"#utility.yul\":4122:4123   */\n      0x00\n        /* \"#utility.yul\":4119:4120   */\n      dup1\n        /* \"#utility.yul\":4112:4124   */\n      revert\n        /* \"#utility.yul\":4064:4126   */\n    tag_128:\n        /* \"#utility.yul\":4012:4132   */\n      pop\n      jump\t// out\n        /* \"#utility.yul\":4138:4279   */\n    tag_67:\n        /* \"#utility.yul\":4194:4199   */\n      0x00\n        /* \"#utility.yul\":4225:4231   */\n      dup2\n        /* \"#utility.yul\":4219:4232   */\n      mload\n        /* \"#utility.yul\":4210:4232   */\n      swap1\n      pop\n        /* \"#utility.yul\":4241:4273   */\n      tag_130\n        /* \"#utility.yul\":4267:4272   */\n      dup2\n        /* \"#utility.yul\":4241:4273   */\n      tag_66\n      jump\t// in\n    tag_130:\n        /* \"#utility.yul\":4138:4279   */\n      swap3\n      swap2\n      pop\n      pop\n      jump\t// out\n        /* \"#utility.yul\":4285:4361   */\n    tag_68:\n        /* \"#utility.yul\":4321:4328   */\n      0x00\n        /* \"#utility.yul\":4350:4355   */\n      dup2\n        /* \"#utility.yul\":4339:4355   */\n      swap1\n      pop\n        /* \"#utility.yul\":4285:4361   */\n      swap2\n      swap1\n      pop\n      jump\t// out\n        /* \"#utility.yul\":4367:4487   */\n    tag_69:\n        /* \"#utility.yul\":4439:4462   */\n      tag_133\n        /* \"#utility.yul\":4456:4461   */\n      dup2\n        /* \"#utility.yul\":4439:4462   */\n      tag_68\n      jump\t// in\n    tag_133:\n        /* \"#utility.yul\":4432:4437   */\n      dup2\n        /* \"#utility.yul\":4429:4463   */\n      eq\n        /* \"#utility.yul\":4419:4481   */\n      tag_134\n      jumpi\n        /* \"#utility.yul\":4477:4478   */\n      0x00\n        /* \"#utility.yul\":4474:4475   */\n      dup1\n        /* \"#utility.yul\":4467:4479   */\n      revert\n        /* \"#utility.yul\":4419:4481   */\n    tag_134:\n        /* \"#utility.yul\":4367:4487   */\n      pop\n      jump\t// out\n        /* \"#utility.yul\":4493:4634   */\n    tag_70:\n        /* \"#utility.yul\":4549:4554   */\n      0x00\n        /* \"#utility.yul\":4580:4586   */\n      dup2\n        /* \"#utility.yul\":4574:4587   */\n      mload\n        /* \"#utility.yul\":4565:4587   */\n      swap1\n      pop\n        /* \"#utility.yul\":4596:4628   */\n      tag_136\n        /* \"#utility.yul\":4622:4627   */\n      dup2\n        /* \"#utility.yul\":4596:4628   */\n      tag_69\n      jump\t// in\n    tag_136:\n        /* \"#utility.yul\":4493:4634   */\n      swap3\n      swap2\n      pop\n      pop\n      jump\t// out\n        /* \"#utility.yul\":4640:5611   */\n    tag_48:\n        /* \"#utility.yul\":4743:4749   */\n      0x00\n        /* \"#utility.yul\":4751:4757   */\n      dup1\n        /* \"#utility.yul\":4759:4765   */\n      0x00\n        /* \"#utility.yul\":4767:4773   */\n      dup1\n        /* \"#utility.yul\":4775:4781   */\n      0x00\n        /* \"#utility.yul\":4824:4827   */\n      0xa0\n        /* \"#utility.yul\":4812:4821   */\n      dup7\n        /* \"#utility.yul\":4803:4810   */\n      dup9\n        /* \"#utility.yul\":4799:4822   */\n      sub\n        /* \"#utility.yul\":4795:4828   */\n      slt\n        /* \"#utility.yul\":4792:4912   */\n      iszero\n      tag_138\n      jumpi\n        /* \"#utility.yul\":4831:4910   */\n      tag_139\n      tag_54\n      jump\t// in\n    tag_139:\n        /* \"#utility.yul\":4792:4912   */\n    tag_138:\n        /* \"#utility.yul\":4951:4952   */\n      0x00\n        /* \"#utility.yul\":4976:5039   */\n      tag_140\n        /* \"#utility.yul\":5031:5038   */\n      dup9\n        /* \"#utility.yul\":5022:5028   */\n      dup3\n        /* \"#utility.yul\":5011:5020   */\n      dup10\n        /* \"#utility.yul\":5007:5029   */\n      add\n        /* \"#utility.yul\":4976:5039   */\n      tag_67\n      jump\t// in\n    tag_140:\n        /* \"#utility.yul\":4966:5039   */\n      swap6\n      pop\n        /* \"#utility.yul\":4922:5049   */\n      pop\n        /* \"#utility.yul\":5088:5090   */\n      0x20\n        /* \"#utility.yul\":5114:5177   */\n      tag_141\n        /* \"#utility.yul\":5169:5176   */\n      dup9\n        /* \"#utility.yul\":5160:5166   */\n      dup3\n        /* \"#utility.yul\":5149:5158   */\n      dup10\n        /* \"#utility.yul\":5145:5167   */\n      add\n        /* \"#utility.yul\":5114:5177   */\n      tag_70\n      jump\t// in\n    tag_141:\n        /* \"#utility.yul\":5104:5177   */\n      swap5\n      pop\n        /* \"#utility.yul\":5059:5187   */\n      pop\n        /* \"#utility.yul\":5226:5228   */\n      0x40\n        /* \"#utility.yul\":5252:5316   */\n      tag_142\n        /* \"#utility.yul\":5308:5315   */\n      dup9\n        /* \"#utility.yul\":5299:5305   */\n      dup3\n        /* \"#utility.yul\":5288:5297   */\n      dup10\n        /* \"#utility.yul\":5284:5306   */\n      add\n        /* \"#utility.yul\":5252:5316   */\n      tag_62\n      jump\t// in\n    tag_142:\n        /* \"#utility.yul\":5242:5316   */\n      swap4\n      pop\n        /* \"#utility.yul\":5197:5326   */\n      pop\n        /* \"#utility.yul\":5365:5367   */\n      0x60\n        /* \"#utility.yul\":5391:5455   */\n      tag_143\n        /* \"#utility.yul\":5447:5454   */\n      dup9\n        /* \"#utility.yul\":5438:5444   */\n      dup3\n        /* \"#utility.yul\":5427:5436   */\n      dup10\n        /* \"#utility.yul\":5423:5445   */\n      add\n        /* \"#utility.yul\":5391:5455   */\n      tag_62\n      jump\t// in\n    tag_143:\n        /* \"#utility.yul\":5381:5455   */\n      swap3\n      pop\n        /* \"#utility.yul\":5336:5465   */\n      pop\n        /* \"#utility.yul\":5504:5507   */\n      0x80\n        /* \"#utility.yul\":5531:5594   */\n      tag_144\n        /* \"#utility.yul\":5586:5593   */\n      dup9\n        /* \"#utility.yul\":5577:5583   */\n      dup3\n        /* \"#utility.yul\":5566:5575   */\n      dup10\n        /* \"#utility.yul\":5562:5584   */\n      add\n        /* \"#utility.yul\":5531:5594   */\n      tag_67\n      jump\t// in\n    tag_144:\n        /* \"#utility.yul\":5521:5594   */\n      swap2\n      pop\n        /* \"#utility.yul\":5475:5604   */\n      pop\n        /* \"#utility.yul\":4640:5611   */\n      swap3\n      swap6\n      pop\n      swap3\n      swap6\n      swap1\n      swap4\n      pop\n      jump\t// out\n        /* \"#utility.yul\":5617:6173   */\n    tag_50:\n        /* \"#utility.yul\":5656:5663   */\n      0x00\n        /* \"#utility.yul\":5679:5698   */\n      tag_146\n        /* \"#utility.yul\":5696:5697   */\n      dup3\n        /* \"#utility.yul\":5679:5698   */\n      tag_68\n      jump\t// in\n    tag_146:\n        /* \"#utility.yul\":5674:5698   */\n      swap2\n      pop\n        /* \"#utility.yul\":5712:5731   */\n      tag_147\n        /* \"#utility.yul\":5729:5730   */\n      dup4\n        /* \"#utility.yul\":5712:5731   */\n      tag_68\n      jump\t// in\n    tag_147:\n        /* \"#utility.yul\":5707:5731   */\n      swap3\n      pop\n        /* \"#utility.yul\":5766:5767   */\n      dup3\n        /* \"#utility.yul\":5763:5764   */\n      dup3\n        /* \"#utility.yul\":5759:5768   */\n      mul\n        /* \"#utility.yul\":5788:5817   */\n      tag_148\n        /* \"#utility.yul\":5805:5816   */\n      dup2\n        /* \"#utility.yul\":5788:5817   */\n      tag_68\n      jump\t// in\n    tag_148:\n        /* \"#utility.yul\":5777:5817   */\n      swap2\n      pop\n        /* \"#utility.yul\":5875:5941   */\n      0x8000000000000000000000000000000000000000000000000000000000000000\n        /* \"#utility.yul\":5872:5873   */\n      dup5\n        /* \"#utility.yul\":5869:5942   */\n      eq\n        /* \"#utility.yul\":5865:5866   */\n      0x00\n        /* \"#utility.yul\":5862:5863   */\n      dup5\n        /* \"#utility.yul\":5858:5867   */\n      slt\n        /* \"#utility.yul\":5854:5943   */\n      and\n        /* \"#utility.yul\":5851:5966   */\n      iszero\n      tag_149\n      jumpi\n        /* \"#utility.yul\":5946:5964   */\n      tag_150\n      tag_63\n      jump\t// in\n    tag_150:\n        /* \"#utility.yul\":5851:5966   */\n    tag_149:\n        /* \"#utility.yul\":6116:6117   */\n      dup3\n        /* \"#utility.yul\":6107:6114   */\n      dup3\n        /* \"#utility.yul\":6102:6118   */\n      sdiv\n        /* \"#utility.yul\":6099:6100   */\n      dup5\n        /* \"#utility.yul\":6096:6119   */\n      eq\n        /* \"#utility.yul\":6076:6077   */\n      dup4\n        /* \"#utility.yul\":6069:6078   */\n      iszero\n        /* \"#utility.yul\":6049:6133   */\n      or\n        /* \"#utility.yul\":6026:6166   */\n      tag_151\n      jumpi\n        /* \"#utility.yul\":6146:6164   */\n      tag_152\n      tag_63\n      jump\t// in\n    tag_152:\n        /* \"#utility.yul\":6026:6166   */\n    tag_151:\n        /* \"#utility.yul\":5664:6173   */\n      pop\n        /* \"#utility.yul\":5617:6173   */\n      swap3\n      swap2\n      pop\n      pop\n      jump\t// out\n\n    auxdata: 0xa2646970667358221220a8c2a710f10046955c659f92d71611dac9cc500bb9561ed4ae670d4b18adefb564736f6c63430008120033\n}\n",
				"bytecode": {
					"linkReferences": {},
					"object": "608060405234801561001057600080fd5b5061070f806100206000396000f3fe60806040526004361061004a5760003560e01c80630d8e6e2c1461004f5780633d750b281461007a5780636e5b6b281461008457806398d5fdca146100c1578063a42d06ac146100ec575b600080fd5b34801561005b57600080fd5b50610064610129565b6040516100719190610323565b60405180910390f35b6100826101b8565b005b34801561009057600080fd5b506100ab60048036038101906100a6919061036f565b61020f565b6040516100b89190610323565b60405180910390f35b3480156100cd57600080fd5b506100d6610249565b6040516100e39190610323565b60405180910390f35b3480156100f857600080fd5b50610113600480360381019061010e91906103fa565b6102f2565b6040516101209190610323565b60405180910390f35b60008073694aa1769357215de4fac081bf1f309adc32530690508073ffffffffffffffffffffffffffffffffffffffff166354fd4d506040518163ffffffff1660e01b8152600401602060405180830381865afa15801561018e573d6000803e3d6000fd5b505050506040513d601f19601f820116820180604052508101906101b2919061043c565b91505090565b346000803373ffffffffffffffffffffffffffffffffffffffff1673ffffffffffffffffffffffffffffffffffffffff16815260200190815260200160002060008282546102069190610498565b92505081905550565b60008061021a610249565b90506000670de0b6b3a7640000848361023391906104cc565b61023d919061053d565b90508092505050919050565b60008073694aa1769357215de4fac081bf1f309adc325306905060008173ffffffffffffffffffffffffffffffffffffffff1663feaf968c6040518163ffffffff1660e01b815260040160a060405180830381865afa1580156102b0573d6000803e3d6000fd5b505050506040513d601f19601f820116820180604052508101906102d491906105e6565b5050509150506402540be400816102eb9190610661565b9250505090565b60006020528060005260406000206000915090505481565b6000819050919050565b61031d8161030a565b82525050565b60006020820190506103386000830184610314565b92915050565b600080fd5b61034c8161030a565b811461035757600080fd5b50565b60008135905061036981610343565b92915050565b6000602082840312156103855761038461033e565b5b60006103938482850161035a565b91505092915050565b600073ffffffffffffffffffffffffffffffffffffffff82169050919050565b60006103c78261039c565b9050919050565b6103d7816103bc565b81146103e257600080fd5b50565b6000813590506103f4816103ce565b92915050565b6000602082840312156104105761040f61033e565b5b600061041e848285016103e5565b91505092915050565b60008151905061043681610343565b92915050565b6000602082840312156104525761045161033e565b5b600061046084828501610427565b91505092915050565b7f4e487b7100000000000000000000000000000000000000000000000000000000600052601160045260246000fd5b60006104a38261030a565b91506104ae8361030a565b92508282019050808211156104c6576104c5610469565b5b92915050565b60006104d78261030a565b91506104e28361030a565b92508282026104f08161030a565b9150828204841483151761050757610506610469565b5b5092915050565b7f4e487b7100000000000000000000000000000000000000000000000000000000600052601260045260246000fd5b60006105488261030a565b91506105538361030a565b9250826105635761056261050e565b5b828204905092915050565b600069ffffffffffffffffffff82169050919050565b61058d8161056e565b811461059857600080fd5b50565b6000815190506105aa81610584565b92915050565b6000819050919050565b6105c3816105b0565b81146105ce57600080fd5b50565b6000815190506105e0816105ba565b92915050565b600080600080600060a086880312156106025761060161033e565b5b60006106108882890161059b565b9550506020610621888289016105d1565b945050604061063288828901610427565b935050606061064388828901610427565b92505060806106548882890161059b565b9150509295509295909350565b600061066c826105b0565b9150610677836105b0565b9250828202610685816105b0565b91507f800000000000000000000000000000000000000000000000000000000000000084146000841216156106bd576106bc610469565b5b82820584148315176106d2576106d1610469565b5b509291505056fea2646970667358221220a8c2a710f10046955c659f92d71611dac9cc500bb9561ed4ae670d4b18adefb564736f6c63430008120033",
					"opcodes": "PUSH1 0x80 PUSH1 0x40 MSTORE CALLVALUE DUP1 ISZERO PUSH2 0x10 JUMPI PUSH1 0x0 DUP1 REVERT JUMPDEST POP PUSH2 0x70F DUP1 PUSH2 0x20 PUSH1 0x0 CODECOPY PUSH1 0x0 RETURN INVALID PUSH1 0x80 PUSH1 0x40 MSTORE PUSH1 0x4 CALLDATASIZE LT PUSH2 0x4A JUMPI PUSH1 0x0 CALLDATALOAD PUSH1 0xE0 SHR DUP1 PUSH4 0xD8E6E2C EQ PUSH2 0x4F JUMPI DUP1 PUSH4 0x3D750B28 EQ PUSH2 0x7A JUMPI DUP1 PUSH4 0x6E5B6B28 EQ PUSH2 0x84 JUMPI DUP1 PUSH4 0x98D5FDCA EQ PUSH2 0xC1 JUMPI DUP1 PUSH4 0xA42D06AC EQ PUSH2 0xEC JUMPI JUMPDEST PUSH1 0x0 DUP1 REVERT JUMPDEST CALLVALUE DUP1 ISZERO PUSH2 0x5B JUMPI PUSH1 0x0 DUP1 REVERT JUMPDEST POP PUSH2 0x64 PUSH2 0x129 JUMP JUMPDEST PUSH1 0x40 MLOAD PUSH2 0x71 SWAP2 SWAP1 PUSH2 0x323 JUMP JUMPDEST PUSH1 0x40 MLOAD DUP1 SWAP2 SUB SWAP1 RETURN JUMPDEST PUSH2 0x82 PUSH2 0x1B8 JUMP JUMPDEST STOP JUMPDEST CALLVALUE DUP1 ISZERO PUSH2 0x90 JUMPI PUSH1 0x0 DUP1 REVERT JUMPDEST POP PUSH2 0xAB PUSH1 0x4 DUP1 CALLDATASIZE SUB DUP2 ADD SWAP1 PUSH2 0xA6 SWAP2 SWAP1 PUSH2 0x36F JUMP JUMPDEST PUSH2 0x20F JUMP JUMPDEST PUSH1 0x40 MLOAD PUSH2 0xB8 SWAP2 SWAP1 PUSH2 0x323 JUMP JUMPDEST PUSH1 0x40 MLOAD DUP1 SWAP2 SUB SWAP1 RETURN JUMPDEST CALLVALUE DUP1 ISZERO PUSH2 0xCD JUMPI PUSH1 0x0 DUP1 REVERT JUMPDEST POP PUSH2 0xD6 PUSH2 0x249 JUMP JUMPDEST PUSH1 0x40 MLOAD PUSH2 0xE3 SWAP2 SWAP1 PUSH2 0x323 JUMP JUMPDEST PUSH1 0x40 MLOAD DUP1 SWAP2 SUB SWAP1 RETURN JUMPDEST CALLVALUE DUP1 ISZERO PUSH2 0xF8 JUMPI PUSH1 0x0 DUP1 REVERT JUMPDEST POP PUSH2 0x113 PUSH1 0x4 DUP1 CALLDATASIZE SUB DUP2 ADD SWAP1 PUSH2 0x10E SWAP2 SWAP1 PUSH2 0x3FA JUMP JUMPDEST PUSH2 0x2F2 JUMP JUMPDEST PUSH1 0x40 MLOAD PUSH2 0x120 SWAP2 SWAP1 PUSH2 0x323 JUMP JUMPDEST PUSH1 0x40 MLOAD DUP1 SWAP2 SUB SWAP1 RETURN JUMPDEST PUSH1 0x0 DUP1 PUSH20 0x694AA1769357215DE4FAC081BF1F309ADC325306 SWAP1 POP DUP1 PUSH20 0xFFFFFFFFFFFFFFFFFFFFFFFFFFFFFFFFFFFFFFFF AND PUSH4 0x54FD4D50 PUSH1 0x40 MLOAD DUP2 PUSH4 0xFFFFFFFF AND PUSH1 0xE0 SHL DUP2 MSTORE PUSH1 0x4 ADD PUSH1 0x20 PUSH1 0x40 MLOAD DUP1 DUP4 SUB DUP2 DUP7 GAS STATICCALL ISZERO DUP1 ISZERO PUSH2 0x18E JUMPI RETURNDATASIZE PUSH1 0x0 DUP1 RETURNDATACOPY RETURNDATASIZE PUSH1 0x0 REVERT JUMPDEST POP POP POP POP PUSH1 0x40 MLOAD RETURNDATASIZE PUSH1 0x1F NOT PUSH1 0x1F DUP3 ADD AND DUP3 ADD DUP1 PUSH1 0x40 MSTORE POP DUP2 ADD SWAP1 PUSH2 0x1B2 SWAP2 SWAP1 PUSH2 0x43C JUMP JUMPDEST SWAP2 POP POP SWAP1 JUMP JUMPDEST CALLVALUE PUSH1 0x0 DUP1 CALLER PUSH20 0xFFFFFFFFFFFFFFFFFFFFFFFFFFFFFFFFFFFFFFFF AND PUSH20 0xFFFFFFFFFFFFFFFFFFFFFFFFFFFFFFFFFFFFFFFF AND DUP2 MSTORE PUSH1 0x20 ADD SWAP1 DUP2 MSTORE PUSH1 0x20 ADD PUSH1 0x0 KECCAK256 PUSH1 0x0 DUP3 DUP3 SLOAD PUSH2 0x206 SWAP2 SWAP1 PUSH2 0x498 JUMP JUMPDEST SWAP3 POP POP DUP2 SWAP1 SSTORE POP JUMP JUMPDEST PUSH1 0x0 DUP1 PUSH2 0x21A PUSH2 0x249 JUMP JUMPDEST SWAP1 POP PUSH1 0x0 PUSH8 0xDE0B6B3A7640000 DUP5 DUP4 PUSH2 0x233 SWAP2 SWAP1 PUSH2 0x4CC JUMP JUMPDEST PUSH2 0x23D SWAP2 SWAP1 PUSH2 0x53D JUMP JUMPDEST SWAP1 POP DUP1 SWAP3 POP POP POP SWAP2 SWAP1 POP JUMP JUMPDEST PUSH1 0x0 DUP1 PUSH20 0x694AA1769357215DE4FAC081BF1F309ADC325306 SWAP1 POP PUSH1 0x0 DUP2 PUSH20 0xFFFFFFFFFFFFFFFFFFFFFFFFFFFFFFFFFFFFFFFF AND PUSH4 0xFEAF968C PUSH1 0x40 MLOAD DUP2 PUSH4 0xFFFFFFFF AND PUSH1 0xE0 SHL DUP2 MSTORE PUSH1 0x4 ADD PUSH1 0xA0 PUSH1 0x40 MLOAD DUP1 DUP4 SUB DUP2 DUP7 GAS STATICCALL ISZERO DUP1 ISZERO PUSH2 0x2B0 JUMPI RETURNDATASIZE PUSH1 0x0 DUP1 RETURNDATACOPY RETURNDATASIZE PUSH1 0x0 REVERT JUMPDEST POP POP POP POP PUSH1 0x40 MLOAD RETURNDATASIZE PUSH1 0x1F NOT PUSH1 0x1F DUP3 ADD AND DUP3 ADD DUP1 PUSH1 0x40 MSTORE POP DUP2 ADD SWAP1 PUSH2 0x2D4 SWAP2 SWAP1 PUSH2 0x5E6 JUMP JUMPDEST POP POP POP SWAP2 POP POP PUSH5 0x2540BE400 DUP2 PUSH2 0x2EB SWAP2 SWAP1 PUSH2 0x661 JUMP JUMPDEST SWAP3 POP POP POP SWAP1 JUMP JUMPDEST PUSH1 0x0 PUSH1 0x20 MSTORE DUP1 PUSH1 0x0 MSTORE PUSH1 0x40 PUSH1 0x0 KECCAK256 PUSH1 0x0 SWAP2 POP SWAP1 POP SLOAD DUP2 JUMP JUMPDEST PUSH1 0x0 DUP2 SWAP1 POP SWAP2 SWAP1 POP JUMP JUMPDEST PUSH2 0x31D DUP2 PUSH2 0x30A JUMP JUMPDEST DUP3 MSTORE POP POP JUMP JUMPDEST PUSH1 0x0 PUSH1 0x20 DUP3 ADD SWAP1 POP PUSH2 0x338 PUSH1 0x0 DUP4 ADD DUP5 PUSH2 0x314 JUMP JUMPDEST SWAP3 SWAP2 POP POP JUMP JUMPDEST PUSH1 0x0 DUP1 REVERT JUMPDEST PUSH2 0x34C DUP2 PUSH2 0x30A JUMP JUMPDEST DUP2 EQ PUSH2 0x357 JUMPI PUSH1 0x0 DUP1 REVERT JUMPDEST POP JUMP JUMPDEST PUSH1 0x0 DUP2 CALLDATALOAD SWAP1 POP PUSH2 0x369 DUP2 PUSH2 0x343 JUMP JUMPDEST SWAP3 SWAP2 POP POP JUMP JUMPDEST PUSH1 0x0 PUSH1 0x20 DUP3 DUP5 SUB SLT ISZERO PUSH2 0x385 JUMPI PUSH2 0x384 PUSH2 0x33E JUMP JUMPDEST JUMPDEST PUSH1 0x0 PUSH2 0x393 DUP5 DUP3 DUP6 ADD PUSH2 0x35A JUMP JUMPDEST SWAP2 POP POP SWAP3 SWAP2 POP POP JUMP JUMPDEST PUSH1 0x0 PUSH20 0xFFFFFFFFFFFFFFFFFFFFFFFFFFFFFFFFFFFFFFFF DUP3 AND SWAP1 POP SWAP2 SWAP1 POP JUMP JUMPDEST PUSH1 0x0 PUSH2 0x3C7 DUP3 PUSH2 0x39C JUMP JUMPDEST SWAP1 POP SWAP2 SWAP1 POP JUMP JUMPDEST PUSH2 0x3D7 DUP2 PUSH2 0x3BC JUMP JUMPDEST DUP2 EQ PUSH2 0x3E2 JUMPI PUSH1 0x0 DUP1 REVERT JUMPDEST POP JUMP JUMPDEST PUSH1 0x0 DUP2 CALLDATALOAD SWAP1 POP PUSH2 0x3F4 DUP2 PUSH2 0x3CE JUMP JUMPDEST SWAP3 SWAP2 POP POP JUMP JUMPDEST PUSH1 0x0 PUSH1 0x20 DUP3 DUP5 SUB SLT ISZERO PUSH2 0x410 JUMPI PUSH2 0x40F PUSH2 0x33E JUMP JUMPDEST JUMPDEST PUSH1 0x0 PUSH2 0x41E DUP5 DUP3 DUP6 ADD PUSH2 0x3E5 JUMP JUMPDEST SWAP2 POP POP SWAP3 SWAP2 POP POP JUMP JUMPDEST PUSH1 0x0 DUP2 MLOAD SWAP1 POP PUSH2 0x436 DUP2 PUSH2 0x343 JUMP JUMPDEST SWAP3 SWAP2 POP POP JUMP JUMPDEST PUSH1 0x0 PUSH1 0x20 DUP3 DUP5 SUB SLT ISZERO PUSH2 0x452 JUMPI PUSH2 0x451 PUSH2 0x33E JUMP JUMPDEST JUMPDEST PUSH1 0x0 PUSH2 0x460 DUP5 DUP3 DUP6 ADD PUSH2 0x427 JUMP JUMPDEST SWAP2 POP POP SWAP3 SWAP2 POP POP JUMP JUMPDEST PUSH32 0x4E487B7100000000000000000000000000000000000000000000000000000000 PUSH1 0x0 MSTORE PUSH1 0x11 PUSH1 0x4 MSTORE PUSH1 0x24 PUSH1 0x0 REVERT JUMPDEST PUSH1 0x0 PUSH2 0x4A3 DUP3 PUSH2 0x30A JUMP JUMPDEST SWAP2 POP PUSH2 0x4AE DUP4 PUSH2 0x30A JUMP JUMPDEST SWAP3 POP DUP3 DUP3 ADD SWAP1 POP DUP1 DUP3 GT ISZERO PUSH2 0x4C6 JUMPI PUSH2 0x4C5 PUSH2 0x469 JUMP JUMPDEST JUMPDEST SWAP3 SWAP2 POP POP JUMP JUMPDEST PUSH1 0x0 PUSH2 0x4D7 DUP3 PUSH2 0x30A JUMP JUMPDEST SWAP2 POP PUSH2 0x4E2 DUP4 PUSH2 0x30A JUMP JUMPDEST SWAP3 POP DUP3 DUP3 MUL PUSH2 0x4F0 DUP2 PUSH2 0x30A JUMP JUMPDEST SWAP2 POP DUP3 DUP3 DIV DUP5 EQ DUP4 ISZERO OR PUSH2 0x507 JUMPI PUSH2 0x506 PUSH2 0x469 JUMP JUMPDEST JUMPDEST POP SWAP3 SWAP2 POP POP JUMP JUMPDEST PUSH32 0x4E487B7100000000000000000000000000000000000000000000000000000000 PUSH1 0x0 MSTORE PUSH1 0x12 PUSH1 0x4 MSTORE PUSH1 0x24 PUSH1 0x0 REVERT JUMPDEST PUSH1 0x0 PUSH2 0x548 DUP3 PUSH2 0x30A JUMP JUMPDEST SWAP2 POP PUSH2 0x553 DUP4 PUSH2 0x30A JUMP JUMPDEST SWAP3 POP DUP3 PUSH2 0x563 JUMPI PUSH2 0x562 PUSH2 0x50E JUMP JUMPDEST JUMPDEST DUP3 DUP3 DIV SWAP1 POP SWAP3 SWAP2 POP POP JUMP JUMPDEST PUSH1 0x0 PUSH10 0xFFFFFFFFFFFFFFFFFFFF DUP3 AND SWAP1 POP SWAP2 SWAP1 POP JUMP JUMPDEST PUSH2 0x58D DUP2 PUSH2 0x56E JUMP JUMPDEST DUP2 EQ PUSH2 0x598 JUMPI PUSH1 0x0 DUP1 REVERT JUMPDEST POP JUMP JUMPDEST PUSH1 0x0 DUP2 MLOAD SWAP1 POP PUSH2 0x5AA DUP2 PUSH2 0x584 JUMP JUMPDEST SWAP3 SWAP2 POP POP JUMP JUMPDEST PUSH1 0x0 DUP2 SWAP1 POP SWAP2 SWAP1 POP JUMP JUMPDEST PUSH2 0x5C3 DUP2 PUSH2 0x5B0 JUMP JUMPDEST DUP2 EQ PUSH2 0x5CE JUMPI PUSH1 0x0 DUP1 REVERT JUMPDEST POP JUMP JUMPDEST PUSH1 0x0 DUP2 MLOAD SWAP1 POP PUSH2 0x5E0 DUP2 PUSH2 0x5BA JUMP JUMPDEST SWAP3 SWAP2 POP POP JUMP JUMPDEST PUSH1 0x0 DUP1 PUSH1 0x0 DUP1 PUSH1 0x0 PUSH1 0xA0 DUP7 DUP9 SUB SLT ISZERO PUSH2 0x602 JUMPI PUSH2 0x601 PUSH2 0x33E JUMP JUMPDEST JUMPDEST PUSH1 0x0 PUSH2 0x610 DUP9 DUP3 DUP10 ADD PUSH2 0x59B JUMP JUMPDEST SWAP6 POP POP PUSH1 0x20 PUSH2 0x621 DUP9 DUP3 DUP10 ADD PUSH2 0x5D1 JUMP JUMPDEST SWAP5 POP POP PUSH1 0x40 PUSH2 0x632 DUP9 DUP3 DUP10 ADD PUSH2 0x427 JUMP JUMPDEST SWAP4 POP POP PUSH1 0x60 PUSH2 0x643 DUP9 DUP3 DUP10 ADD PUSH2 0x427 JUMP JUMPDEST SWAP3 POP POP PUSH1 0x80 PUSH2 0x654 DUP9 DUP3 DUP10 ADD PUSH2 0x59B JUMP JUMPDEST SWAP2 POP POP SWAP3 SWAP6 POP SWAP3 SWAP6 SWAP1 SWAP4 POP JUMP JUMPDEST PUSH1 0x0 PUSH2 0x66C DUP3 PUSH2 0x5B0 JUMP JUMPDEST SWAP2 POP PUSH2 0x677 DUP4 PUSH2 0x5B0 JUMP JUMPDEST SWAP3 POP DUP3 DUP3 MUL PUSH2 0x685 DUP2 PUSH2 0x5B0 JUMP JUMPDEST SWAP2 POP PUSH32 0x8000000000000000000000000000000000000000000000000000000000000000 DUP5 EQ PUSH1 0x0 DUP5 SLT AND ISZERO PUSH2 0x6BD JUMPI PUSH2 0x6BC PUSH2 0x469 JUMP JUMPDEST JUMPDEST DUP3 DUP3 SDIV DUP5 EQ DUP4 ISZERO OR PUSH2 0x6D2 JUMPI PUSH2 0x6D1 PUSH2 0x469 JUMP JUMPDEST JUMPDEST POP SWAP3 SWAP2 POP POP JUMP INVALID LOG2 PUSH5 0x6970667358 0x22 SLT KECCAK256 0xA8 0xC2 0xA7 LT CALL STOP CHAINID SWAP6 0x5C PUSH6 0x9F92D71611DA 0xC9 0xCC POP SIGNEXTEND 0xB9 JUMP 0x1E 0xD4 0xAE PUSH8 0xD4B18ADEFB56473 PUSH16 0x6C634300081200330000000000000000 "
				},
				"gasEstimates": {
					"creation": {
						"codeDepositCost": "361400",
						"executionCost": "399",
						"totalCost": "361799"
					},
					"external": {
						"adressToAmountFounded(address)": "2880",
						"found()": "infinite",
						"getConversionRate(uint256)": "infinite",
						"getPrice()": "infinite",
						"getVersion()": "infinite"
					}
				},
				"methodIdentifiers": {
					"adressToAmountFounded(address)": "a42d06ac",
					"found()": "3d750b28",
					"getConversionRate(uint256)": "6e5b6b28",
					"getPrice()": "98d5fdca",
					"getVersion()": "0d8e6e2c"
				}
			},
			"storageLayout": {
				"storage": [
					{
						"astId": 52,
						"contract": "contracts/FoundMe.sol:FoundMe",
						"label": "adressToAmountFounded",
						"offset": 0,
						"slot": "0",
						"type": "t_mapping(t_address,t_uint256)"
					}
				],
				"types": {
					"t_address": {
						"encoding": "inplace",
						"label": "address",
						"numberOfBytes": "20"
					},
					"t_mapping(t_address,t_uint256)": {
						"encoding": "mapping",
						"key": "t_address",
						"label": "mapping(address => uint256)",
						"numberOfBytes": "32",
						"value": "t_uint256"
					},
					"t_uint256": {
						"encoding": "inplace",
						"label": "uint256",
						"numberOfBytes": "32"
					}
				}
			},
			"userdoc": {
				"kind": "user",
				"methods": {},
				"version": 1
			}
		}
	}
}